{
	"data": {
		"bytecode": {
			"linkReferences": {},
			"object": "608060405260015f819055805461ffff1916601e1790553480156020575f80fd5b50613f5e8061002e5f395ff3fe608060405234801561000f575f80fd5b50600436106100b1575f3560e01c8063ca4abd681161006e578063ca4abd681461014a578063cf6c62ea1461015d578063d8ae9b9b1461017d578063ddca3f4314610190578063e3cb477c146101b1578063e6a43905146101c4575f80fd5b8063112a15fb146100b55780631efd0e78146100db57806340fa3295146100ee578063497785811461010157806370085be0146101245780638d2dbeae14610137575b5f80fd5b6100c86100c3366004612264565b61020f565b6040519081526020015b60405180910390f35b6100c86100e93660046122a6565b610287565b6100c86100fc3660046122f0565b610a66565b61011461010f36600461232f565b610abf565b60405190151581526020016100d2565b6100c8610132366004612366565b610aea565b6100c86101453660046123ab565b610e1c565b6100c86101583660046123e9565b611085565b61017061016b36600461241d565b611341565b6040516100d2919061248e565b61017061018b3660046123ab565b6117c1565b60015461019e9061ffff1681565b60405161ffff90911681526020016100d2565b6100c86101bf36600461232f565b611ba2565b6101f76101d236600461232f565b600260209081525f92835260408084209091529082529020546001600160a01b031681565b6040516001600160a01b0390911681526020016100d2565b5f81815b6001855161022191906124b4565b81101561027d575f61027286838151811061023e5761023e6124c7565b6020026020010151848885600161025591906124db565b81518110610265576102656124c7565b6020026020010151611085565b925050600101610213565b5090505b92915050565b5f80546001146102b25760405162461bcd60e51b81526004016102a9906124ee565b60405180910390fd5b5f8080558451339185918791906102cb576102cb6124c7565b60200260200101516001600160a01b03166323b872dd8330846040518463ffffffff1660e01b815260040161030293929190612513565b6020604051808303815f875af115801561031e573d5f803e3d5ffd5b505050506040513d601f19601f820116820180604052508101906103429190612537565b505f5b6001875161035391906124b4565b811015610a16576002875161036891906124b4565b8110156106cc575f61039c888381518110610385576103856124c7565b6020026020010151848a85600161025591906124db565b90505f60025f8a85815181106103b4576103b46124c7565b60200260200101516001600160a01b03166001600160a01b031681526020019081526020015f205f8a8560016103ea91906124db565b815181106103fa576103fa6124c7565b6020908102919091018101516001600160a01b039081168352908201929092526040015f2054169050806369865deb8a6104358660016124db565b81518110610445576104456124c7565b6020026020010151846040518363ffffffff1660e01b815260040161047f9291906001600160a01b03929092168252602082015260400190565b5f604051808303815f87803b158015610496575f80fd5b505af11580156104a8573d5f803e3d5ffd5b505050508883815181106104be576104be6124c7565b602090810291909101015160405163a9059cbb60e01b81526001600160a01b038381166004830152602482018790529091169063a9059cbb906044016020604051808303815f875af1158015610516573d5f803e3d5ffd5b505050506040513d601f19601f8201168201806040525081019061053a9190612537565b50886105478460016124db565b81518110610557576105576124c7565b60200260200101516001600160a01b03166323b872dd8230856040518463ffffffff1660e01b815260040161058e93929190612513565b6020604051808303815f875af11580156105aa573d5f803e3d5ffd5b505050506040513d601f19601f820116820180604052508101906105ce9190612537565b50806001600160a01b031663a7533d048a85815181106105f0576105f06124c7565b602002602001015186856040518463ffffffff1660e01b815260040161061893929190612556565b5f604051808303815f87803b15801561062f575f80fd5b505af1158015610641573d5f803e3d5ffd5b505050507fd6d34547c69c5ee3d2667625c188acf1006abb93e0ee7cf03925c67cf7760413818a8581518110610679576106796124c7565b60200260200101518b86600161068f91906124db565b8151811061069f5761069f6124c7565b60200260200101518786426040516106bc96959493929190612577565b60405180910390a1509150610a0e565b5f6106e2888381518110610385576103856124c7565b90505f60025f8a85815181106106fa576106fa6124c7565b60200260200101516001600160a01b03166001600160a01b031681526020019081526020015f205f8a85600161073091906124db565b81518110610740576107406124c7565b6020908102919091018101516001600160a01b039081168352908201929092526040015f2054169050806369865deb8a61077b8660016124db565b8151811061078b5761078b6124c7565b6020026020010151846040518363ffffffff1660e01b81526004016107c59291906001600160a01b03929092168252602082015260400190565b5f604051808303815f87803b1580156107dc575f80fd5b505af11580156107ee573d5f803e3d5ffd5b50505050888381518110610804576108046124c7565b602090810291909101015160405163a9059cbb60e01b81526001600160a01b038381166004830152602482018790529091169063a9059cbb906044016020604051808303815f875af115801561085c573d5f803e3d5ffd5b505050506040513d601f19601f820116820180604052508101906108809190612537565b508861088d8460016124db565b8151811061089d5761089d6124c7565b60200260200101516001600160a01b03166323b872dd8287856040518463ffffffff1660e01b81526004016108d493929190612513565b6020604051808303815f875af11580156108f0573d5f803e3d5ffd5b505050506040513d601f19601f820116820180604052508101906109149190612537565b50806001600160a01b031663a7533d048a8581518110610936576109366124c7565b602002602001015186856040518463ffffffff1660e01b815260040161095e93929190612556565b5f604051808303815f87803b158015610975575f80fd5b505af1158015610987573d5f803e3d5ffd5b505050507fd6d34547c69c5ee3d2667625c188acf1006abb93e0ee7cf03925c67cf7760413818a85815181106109bf576109bf6124c7565b60200260200101518b8660016109d591906124db565b815181106109e5576109e56124c7565b6020026020010151878642604051610a0296959493929190612577565b60405180910390a15091505b600101610345565b5080841015610a595760405162461bcd60e51b815260206004820152600f60248201526e1cdb1a5c1c1859d948195e18d95959608a1b60448201526064016102a9565b60015f5595945050505050565b5f80610a7183611d69565b610a7b8585611ba2565b610a8591906125b0565b610a8e85611d69565b610a9890876125b0565b610aaa90670de0b6b3a76400006125b0565b610ab491906125c7565b9150505b9392505050565b6001600160a01b039182165f9081526002602090815260408083209385168352929052205416151590565b5f8054600114610b0c5760405162461bcd60e51b81526004016102a9906124ee565b5f80556040516370a0823160e01b815233600482018190529086906001600160a01b038716906370a0823190602401602060405180830381865afa158015610b56573d5f803e3d5ffd5b505050506040513d601f19601f82011682018060405250810190610b7a91906125e6565b1015610bbd5760405162461bcd60e51b81526020600482015260126024820152716e6f7420656e6f7567682062616c616e636560701b60448201526064016102a9565b5f610bc9868887611085565b905080841015610c115760405162461bcd60e51b8152602060048201526013602482015272736c697070616765206578697374206d6f726560681b60448201526064016102a9565b6001600160a01b038087165f8181526002602090815260408083208a86168452909152908190205490516323b872dd60e01b81529216916323b872dd90610c6090869085908d90600401612513565b6020604051808303815f875af1158015610c7c573d5f803e3d5ffd5b505050506040513d601f19601f82011682018060405250810190610ca09190612537565b506040516369865deb60e01b81526001600160a01b038781166004830152602482018490528216906369865deb906044015f604051808303815f87803b158015610ce8575f80fd5b505af1158015610cfa573d5f803e3d5ffd5b50506040516323b872dd60e01b81526001600160a01b03891692506323b872dd9150610d2e90849087908790600401612513565b6020604051808303815f875af1158015610d4a573d5f803e3d5ffd5b505050506040513d601f19601f82011682018060405250810190610d6e9190612537565b506040516329d4cf4160e21b81526001600160a01b0382169063a7533d0490610d9f908a908c908790600401612556565b5f604051808303815f87803b158015610db6575f80fd5b505af1158015610dc8573d5f803e3d5ffd5b505050507fd6d34547c69c5ee3d2667625c188acf1006abb93e0ee7cf03925c67cf77604138188888b8642604051610e0596959493929190612577565b60405180910390a15060015f559695505050505050565b5f80610e2785611d69565b90505f610e3385611d69565b9050846001600160a01b0316866001600160a01b031603610e665760405162461bcd60e51b81526004016102a9906125fd565b6001600160a01b03861615801590610e8657506001600160a01b03851615155b610ea25760405162461bcd60e51b81526004016102a99061262a565b610eac8686610abf565b610ec85760405162461bcd60e51b81526004016102a990612650565b6001600160a01b038087165f9081526002602090815260408083208985168452909152808220548151630240bc6b60e21b8152915193169282918491630902f1ac916004808201926060929091908290030181865afa158015610f2d573d5f803e3d5ffd5b505050506040513d601f19601f82011682018060405250810190610f51919061267d565b5091509150826001600160a01b0316630dfe16816040518163ffffffff1660e01b8152600401602060405180830381865afa158015610f92573d5f803e3d5ffd5b505050506040513d601f19601f82011682018060405250810190610fb691906126a8565b6001600160a01b0316896001600160a01b031603611054575f84610fda89846124b4565b610fe6906103e56125b0565b610ff091906125b0565b85878a610fff876103e86125b0565b61100991906125b0565b61101391906125b0565b61101d91906125b0565b61102791906125c7565b90506110328a611d69565b61103c90826125c7565b6110479060016124db565b9650505050505050610ab8565b5f8461106089856124b4565b61106c906103e56125b0565b61107691906125b0565b85878a610fff866103e86125b0565b5f8061109085611d69565b90505f61109c84611d69565b9050836001600160a01b0316866001600160a01b0316036110cf5760405162461bcd60e51b81526004016102a9906125fd565b6001600160a01b038616158015906110ef57506001600160a01b03841615155b61110b5760405162461bcd60e51b81526004016102a99061262a565b6111158685610abf565b6111315760405162461bcd60e51b81526004016102a990612650565b6001600160a01b038087165f9081526002602090815260408083208885168452909152808220548151630240bc6b60e21b8152915193169282918491630902f1ac916004808201926060929091908290030181865afa158015611196573d5f803e3d5ffd5b505050506040513d601f19601f820116820180604052508101906111ba919061267d565b5090925090505f84866111cd84866125b0565b6111d791906125b0565b6111e191906125b0565b9050836001600160a01b0316630dfe16816040518163ffffffff1660e01b8152600401602060405180830381865afa15801561121f573d5f803e3d5ffd5b505050506040513d601f19601f8201168201806040525081019061124391906126a8565b6001600160a01b03168a6001600160a01b0316036112e5575f86600a606461126d8d6103e56125b0565b61127791906125c7565b61128287600a6125b0565b61128c91906124db565b61129691906125c7565b6112a091906125b0565b90505f6112ad82846125c7565b6112b788866125b0565b6112c191906124b4565b90506112cc8a611d69565b6112d690826125c7565b98505050505050505050610ab8565b5f86600a60646112f78d6103e56125b0565b61130191906125c7565b61130c86600a6125b0565b61131691906124db565b61132091906125c7565b61132a91906125b0565b90505f61133782846125c7565b6112b788876125b0565b60605f546001146113645760405162461bcd60e51b81526004016102a9906124ee565b5f80805533906001600160a01b03808716908816036113955760405162461bcd60e51b81526004016102a9906125fd565b5f6001600160a01b038816158015906113b657506001600160a01b03871615155b6113d25760405162461bcd60e51b81526004016102a99061262a565b6113dc8888610abf565b6113f1576113ea8888611dee565b9050611484565b506001600160a01b038088165f9081526002602090815260408083208a85168452909152902054166114238888611ba2565b91505f611431878a8a610a66565b90508581146114825760405162461bcd60e51b815260206004820152601a60248201527f6c6971756964697479206d75737420626520696e20726174696f00000000000060448201526064016102a9565b505b6040516370a0823160e01b81526001600160a01b0384811660048301528791908a16906370a0823190602401602060405180830381865afa1580156114cb573d5f803e3d5ffd5b505050506040513d601f19601f820116820180604052508101906114ef91906125e6565b1015801561156657506040516370a0823160e01b81526001600160a01b0384811660048301528691908916906370a0823190602401602060405180830381865afa15801561153f573d5f803e3d5ffd5b505050506040513d601f19601f8201168201806040525081019061156391906125e6565b10155b6115a75760405162461bcd60e51b81526020600482015260126024820152716e6f7420656e6f7567682062616c616e636560701b60448201526064016102a9565b6040516323b872dd60e01b81526001600160a01b038916906323b872dd906115d790869085908b90600401612513565b6020604051808303815f875af11580156115f3573d5f803e3d5ffd5b505050506040513d601f19601f820116820180604052508101906116179190612537565b506040516323b872dd60e01b81526001600160a01b038816906323b872dd9061164890869085908a90600401612513565b6020604051808303815f875af1158015611664573d5f803e3d5ffd5b505050506040513d601f19601f820116820180604052508101906116889190612537565b50604051638dbdbe6d60e01b815260048101879052602481018690526001600160a01b038481166044830152821690638dbdbe6d906064015f604051808303815f87803b1580156116d7575f80fd5b505af11580156116e9573d5f803e3d5ffd5b50506040516303d54a4360e11b81526001600160a01b03841692506307aa9486915061171d908b908a908a90600401612556565b5f604051808303815f87803b158015611734575f80fd5b505af1158015611746573d5f803e3d5ffd5b505050507f1f08cdbfd8645bf6b89fc4886fe2fb86dbb812265a6d7f18011f8cb985cd1ca181898989894260405161178396959493929190612577565b60405180910390a1505060408051808201909152600f81526e1b1a5c5d5a591a5d1e481859191959608a1b602082015260015f559695505050505050565b60605f546001146117e45760405162461bcd60e51b81526004016102a9906124ee565b5f8080556001600160a01b03858116825260026020908152604080842087841685529091529091205433911661182c5760405162461bcd60e51b81526004016102a990612650565b5f806118388787611f9b565b6001600160a01b038281165f9081526002602090815260408083208585168452909152908190205490516370a0823160e01b815287831660048201529395509193501690869082906370a0823190602401602060405180830381865afa1580156118a4573d5f803e3d5ffd5b505050506040513d601f19601f820116820180604052508101906118c891906125e6565b10156119165760405162461bcd60e51b815260206004820152601960248201527f6e6f74206861766520656e6f756768206c69717569646974790000000000000060448201526064016102a9565b604051627b8a6760e11b8152600481018790526001600160a01b0385811660248301525f91829184169062f714ce9060440160408051808303815f875af1158015611963573d5f803e3d5ffd5b505050506040513d601f19601f8201168201806040525081019061198791906126c3565b60405163014f6afd60e61b815291935091506001600160a01b038416906353dabf40906119bc90889086908690600401612556565b5f604051808303815f87803b1580156119d3575f80fd5b505af11580156119e5573d5f803e3d5ffd5b5050604051632281776960e01b815260048101859052602481018490526001600160a01b0386169250632281776991506044015f604051808303815f87803b158015611a2f575f80fd5b505af1158015611a41573d5f803e3d5ffd5b50506040516323b872dd60e01b81526001600160a01b03881692506323b872dd9150611a759086908a908790600401612513565b6020604051808303815f875af1158015611a91573d5f803e3d5ffd5b505050506040513d601f19601f82011682018060405250810190611ab59190612537565b506040516323b872dd60e01b81526001600160a01b038516906323b872dd90611ae69086908a908690600401612513565b6020604051808303815f875af1158015611b02573d5f803e3d5ffd5b505050506040513d601f19601f82011682018060405250810190611b269190612537565b507f55fab9f083fdeaaab9ca472e055ed8b03735b374f1de44ce5fd8c954c827c68a838686858542604051611b6096959493929190612577565b60405180910390a1505060408051808201909152601181527072656d6f766564206c697175696469747960781b602082015260015f5598975050505050505050565b5f611bad8383610abf565b611bef5760405162461bcd60e51b81526020600482015260136024820152721c1bdbdb08191bd95cc81b9bdd08195e1a5cdd606a1b60448201526064016102a9565b6001600160a01b038084165f9081526002602090815260408083208685168452909152808220548151630240bc6b60e21b8152915193169282918491630902f1ac916004808201926060929091908290030181865afa158015611c54573d5f803e3d5ffd5b505050506040513d601f19601f82011682018060405250810190611c78919061267d565b5091509150856001600160a01b0316836001600160a01b0316630dfe16816040518163ffffffff1660e01b8152600401602060405180830381865afa158015611cc3573d5f803e3d5ffd5b505050506040513d601f19601f82011682018060405250810190611ce791906126a8565b6001600160a01b031603611d425780611cff86611d69565b611d0991906125b0565b611d1287611d69565b611d1c90846125b0565b611d2e90670de0b6b3a76400006125b0565b611d3891906125c7565b9350505050610281565b81611d4c86611d69565b611d5691906125b0565b611d5f87611d69565b611d1c90836125b0565b5f80826001600160a01b031663313ce5676040518163ffffffff1660e01b8152600401602060405180830381865afa158015611da7573d5f803e3d5ffd5b505050506040513d601f19601f82011682018060405250810190611dcb91906126e5565b90505f611dd9826012612705565b9050611de681600a6127fe565b949350505050565b5f6001600160a01b03831615801590611e0f57506001600160a01b03821615155b611e2b5760405162461bcd60e51b81526004016102a99061262a565b816001600160a01b0316836001600160a01b031603611e5c5760405162461bcd60e51b81526004016102a9906125fd565b611e668383610abf565b15611ea15760405162461bcd60e51b815260206004820152600b60248201526a504149525f45584953545360a81b60448201526064016102a9565b5f80611ead8585611f9b565b915091505f80611ebd8787611fcf565b915091505f8484308585604051611ed390612175565b611ee195949392919061280c565b604051809103905ff080158015611efa573d5f803e3d5ffd5b506001600160a01b038681165f8181526002602081815260408084208b871680865290835281852080549789166001600160a01b031998891681179091559383528185208686528352938190208054909616831790955584519384528301919091528183015290519192507fa92a2b95c8d8436f6ac4c673c61487364f877efb9534d4296fad8ef904546c94919081900360600190a1979650505050505050565b5f805f80846001600160a01b0316866001600160a01b031610611fbf578486611fc2565b85855b9097909650945050505050565b60608061209e846001600160a01b03166306fdde036040518163ffffffff1660e01b81526004015f60405180830381865afa158015612010573d5f803e3d5ffd5b505050506040513d5f823e601f3d908101601f19168201604052612037919081019061285d565b846001600160a01b03166306fdde036040518163ffffffff1660e01b81526004015f60405180830381865afa158015612072573d5f803e3d5ffd5b505050506040513d5f823e601f3d908101601f19168201604052612099919081019061285d565b612149565b9150612140846001600160a01b03166395d89b416040518163ffffffff1660e01b81526004015f60405180830381865afa1580156120de573d5f803e3d5ffd5b505050506040513d5f823e601f3d908101601f19168201604052612105919081019061285d565b846001600160a01b03166395d89b416040518163ffffffff1660e01b81526004015f60405180830381865afa158015612072573d5f803e3d5ffd5b90509250929050565b6060828260405160200161215e929190612903565b604051602081830303815290604052905092915050565b6115fd8061292c83390190565b634e487b7160e01b5f52604160045260245ffd5b604051601f8201601f1916810167ffffffffffffffff811182821017156121bf576121bf612182565b604052919050565b6001600160a01b03811681146121db575f80fd5b50565b5f82601f8301126121ed575f80fd5b8135602067ffffffffffffffff82111561220957612209612182565b8160051b612218828201612196565b9283528481018201928281019087851115612231575f80fd5b83870192505b8483101561225957823561224a816121c7565b82529183019190830190612237565b979650505050505050565b5f8060408385031215612275575f80fd5b823567ffffffffffffffff81111561228b575f80fd5b612297858286016121de565b95602094909401359450505050565b5f805f606084860312156122b8575f80fd5b833567ffffffffffffffff8111156122ce575f80fd5b6122da868287016121de565b9660208601359650604090950135949350505050565b5f805f60608486031215612302575f80fd5b833592506020840135612314816121c7565b91506040840135612324816121c7565b809150509250925092565b5f8060408385031215612340575f80fd5b823561234b816121c7565b9150602083013561235b816121c7565b809150509250929050565b5f805f8060808587031215612379575f80fd5b84359350602085013561238b816121c7565b9250604085013561239b816121c7565b9396929550929360600135925050565b5f805f606084860312156123bd575f80fd5b83356123c8816121c7565b925060208401356123d8816121c7565b929592945050506040919091013590565b5f805f606084860312156123fb575f80fd5b8335612406816121c7565b9250602084013591506040840135612324816121c7565b5f805f8060808587031215612430575f80fd5b843561243b816121c7565b9350602085013561244b816121c7565b93969395505050506040820135916060013590565b5f81518084528060208401602086015e5f602082860101526020601f19601f83011685010191505092915050565b602081525f610ab86020830184612460565b634e487b7160e01b5f52601160045260245ffd5b81810381811115610281576102816124a0565b634e487b7160e01b5f52603260045260245ffd5b80820180821115610281576102816124a0565b6020808252600b908201526a1111560e881313d0d2d15160aa1b604082015260600190565b6001600160a01b039384168152919092166020820152604081019190915260600190565b5f60208284031215612547575f80fd5b81518015158114610ab8575f80fd5b6001600160a01b039390931683526020830191909152604082015260600190565b6001600160a01b03968716815294861660208601529290941660408401526060830152608082019290925260a081019190915260c00190565b8082028115828204841417610281576102816124a0565b5f826125e157634e487b7160e01b5f52601260045260245ffd5b500490565b5f602082840312156125f6575f80fd5b5051919050565b6020808252601390820152724944454e544943414c5f41444452455353455360681b604082015260600190565b6020808252600c908201526b5a45524f5f4144445245535360a01b604082015260600190565b60208082526013908201527263726561746520706169722066697273746c7960681b604082015260600190565b5f805f6060848603121561268f575f80fd5b8351925060208401519150604084015190509250925092565b5f602082840312156126b8575f80fd5b8151610ab8816121c7565b5f80604083850312156126d4575f80fd5b505080516020909101519092909150565b5f602082840312156126f5575f80fd5b815160ff81168114610ab8575f80fd5b60ff8281168282160390811115610281576102816124a0565b600181815b8085111561275857815f190482111561273e5761273e6124a0565b8085161561274b57918102915b93841c9390800290612723565b509250929050565b5f8261276e57506001610281565b8161277a57505f610281565b8160018114612790576002811461279a576127b6565b6001915050610281565b60ff8411156127ab576127ab6124a0565b50506001821b610281565b5060208310610133831016604e8410600b84101617156127d9575081810a610281565b6127e3838361271e565b805f19048211156127f6576127f66124a0565b029392505050565b5f610ab860ff841683612760565b6001600160a01b03868116825285811660208301528416604082015260a0606082018190525f9061283f90830185612460565b82810360808401526128518185612460565b98975050505050505050565b5f602080838503121561286e575f80fd5b825167ffffffffffffffff80821115612885575f80fd5b818501915085601f830112612898575f80fd5b8151818111156128aa576128aa612182565b6128bc601f8201601f19168501612196565b915080825286848285010111156128d1575f80fd5b808484018584015e5f90820190930192909252509392505050565b5f81518060208401855e5f93019283525090919050565b5f61290e82856128ec565b602d60f81b815261292260018201856128ec565b9594505050505056fe608060405234801561000f575f80fd5b506040516115fd3803806115fd83398101604081905261002e9161018f565b8181600361003c83826102a3565b50600461004982826102a3565b5050506001600160a01b03831633146100945760405162461bcd60e51b81526020600482015260096024820152682327a92124a22222a760b91b604482015260640160405180910390fd5b5050600680546001600160a01b039485166001600160a01b031991821617909155600780549385169382169390931790925560058054919093169116179055610362565b80516001600160a01b03811681146100ee575f80fd5b919050565b634e487b7160e01b5f52604160045260245ffd5b5f82601f830112610116575f80fd5b81516001600160401b0380821115610130576101306100f3565b604051601f8301601f19908116603f01168101908282118183101715610158576101586100f3565b81604052838152866020858801011115610170575f80fd5b8360208701602083015e5f602085830101528094505050505092915050565b5f805f805f60a086880312156101a3575f80fd5b6101ac866100d8565b94506101ba602087016100d8565b93506101c8604087016100d8565b60608701519093506001600160401b03808211156101e4575f80fd5b6101f089838a01610107565b93506080880151915080821115610205575f80fd5b5061021288828901610107565b9150509295509295909350565b600181811c9082168061023357607f821691505b60208210810361025157634e487b7160e01b5f52602260045260245ffd5b50919050565b601f82111561029e57805f5260205f20601f840160051c8101602085101561027c5750805b601f840160051c820191505b8181101561029b575f8155600101610288565b50505b505050565b81516001600160401b038111156102bc576102bc6100f3565b6102d0816102ca845461021f565b84610257565b602080601f831160018114610303575f84156102ec5750858301515b5f19600386901b1c1916600185901b17855561035a565b5f85815260208120601f198616915b8281101561033157888601518255948401946001909101908401610312565b508582101561034e57878501515f19600388901b60f8161c191681555b505060018460011b0185555b505050505050565b61128e8061036f5f395ff3fe608060405234801561000f575f80fd5b506004361061013c575f3560e01c80633827ebaa116100b457806395d89b411161007957806395d89b41146102c7578063a7533d04146102cf578063a9059cbb146102e2578063c5cc6b6a146102f5578063d21220a714610308578063dd62ed3e1461031b575f80fd5b80633827ebaa1461025d57806353dabf401461026657806369865deb1461027957806370a082311461028c5780638dbdbe6d146102b4575f80fd5b80630d293d3b116101055780630d293d3b146101de5780630dfe1681146101f557806318160ddd14610220578063228177691461022857806323b872dd1461023b578063313ce5671461024e575f80fd5b8062f714ce1461014057806306fdde031461016d57806307aa9486146101825780630902f1ac14610197578063095ea7b3146101bb575b5f80fd5b61015361014e366004610ea2565b610353565b604080519283526020830191909152015b60405180910390f35b610175610469565b6040516101649190610ecc565b610195610190366004610f01565b6104f9565b005b600854600954600a5460408051938452602084019290925290820152606001610164565b6101ce6101c9366004610f31565b610620565b6040519015158152602001610164565b6101e760085481565b604051908152602001610164565b600654610208906001600160a01b031681565b6040516001600160a01b039091168152602001610164565b6002546101e7565b610195610236366004610f59565b610639565b6101ce610249366004610f79565b610756565b60405160128152602001610164565b6101e760095481565b610195610274366004610f01565b610779565b610195610287366004610f31565b6108ac565b6101e761029a366004610fb2565b6001600160a01b03165f9081526020819052604090205490565b6101956102c2366004610fd2565b61090f565b6101756109ea565b6101956102dd366004610f01565b6109f9565b6101ce6102f0366004610f31565b610a73565b600554610208906001600160a01b031681565b600754610208906001600160a01b031681565b6101e7610329366004611004565b6001600160a01b039182165f90815260016020908152604080832093909416825291909152205490565b5f805f84116103a95760405162461bcd60e51b815260206004820152601860248201527f616d6f756e742067726561746572207468616e207a65726f000000000000000060448201526064015b60405180910390fd5b6005546001600160a01b031633146103d35760405162461bcd60e51b81526004016103a09061102c565b5f6103dd60025490565b90505f816103f6876a084595161401484a000000611063565b610400919061107a565b600854600954919250905f6a084595161401484a0000006104218585611063565b61042b919061107a565b90505f6a084595161401484a0000006104448685611063565b61044e919061107a565b905061045a898b610a80565b90999098509650505050505050565b60606003805461047890611099565b80601f01602080910402602001604051908101604052809291908181526020018280546104a490611099565b80156104ef5780601f106104c6576101008083540402835291602001916104ef565b820191905f5260205f20905b8154815290600101906020018083116104d257829003601f168201915b5050505050905090565b6005546001600160a01b031633146105235760405162461bcd60e51b81526004016103a09061102c565b6006546001600160a01b03908116908416036105aa578160085f82825461054a91906110cb565b925050819055508060095f82825461056291906110cb565b90915550506008546009546040517f47a0f291b7d5c7d992b467d24bb7350c2fde51fafc5e867df69d34a7ff2208f49261059d9230926110de565b60405180910390a16105d9565b8060085f8282546105bb91906110cb565b925050819055508160095f8282546105d391906110cb565b90915550505b42600a556008546009546040517f47a0f291b7d5c7d992b467d24bb7350c2fde51fafc5e867df69d34a7ff2208f4926106139230926110de565b60405180910390a1505050565b5f3361062d818585610ab8565b60019150505b92915050565b6005546001600160a01b031633146106635760405162461bcd60e51b81526004016103a09061102c565b60065460055460405163095ea7b360e01b81526001600160a01b0391821660048201526024810185905291169063095ea7b3906044016020604051808303815f875af11580156106b5573d5f803e3d5ffd5b505050506040513d601f19601f820116820180604052508101906106d991906110ff565b5060075460055460405163095ea7b360e01b81526001600160a01b0391821660048201526024810184905291169063095ea7b3906044015b6020604051808303815f875af115801561072d573d5f803e3d5ffd5b505050506040513d601f19601f8201168201806040525081019061075191906110ff565b505050565b5f33610763858285610ac5565b61076e858585610b27565b506001949350505050565b6005546001600160a01b031633146107a35760405162461bcd60e51b81526004016103a09061102c565b6006546001600160a01b03908116908416036107f0578160085f8282546107ca919061111e565b925050819055508060095f8282546107e2919061111e565b909155505042600a55610823565b8060085f828254610801919061111e565b925050819055508160095f828254610819919061111e565b909155505042600a555b600160085411801561083757506001600954115b6108765760405162461bcd60e51b815260206004820152601060248201526f1b9bdd08195b9bdd59da08185cdcd95d60821b60448201526064016103a0565b6008546009546040517f47a0f291b7d5c7d992b467d24bb7350c2fde51fafc5e867df69d34a7ff2208f4926106139230926110de565b6005546001600160a01b031633146108d65760405162461bcd60e51b81526004016103a09061102c565b60055460405163095ea7b360e01b81526001600160a01b039182166004820152602481018390529083169063095ea7b390604401610711565b6005546001600160a01b031633146109395760405162461bcd60e51b81526004016103a09061102c565b5f8311801561094757505f82115b6109855760405162461bcd60e51b815260206004820152600f60248201526e6e65646420746f20616464206c697160881b60448201526064016103a0565b6007545f906109d8906109a0906001600160a01b0316610b84565b6006546109b5906001600160a01b0316610b84565b6109bf8688611063565b6109c99190611063565b6109d39190611063565b610c09565b90506109e48282610c77565b50505050565b60606004805461047890611099565b6005546001600160a01b03163314610a235760405162461bcd60e51b81526004016103a09061102c565b6006546001600160a01b0390811690841603610a4a578160085f8282546107ca91906110cb565b8160085f828254610a5b919061111e565b925050819055508060095f82825461081991906110cb565b5f3361062d818585610b27565b6001600160a01b038216610aa957604051634b637e8f60e11b81525f60048201526024016103a0565b610ab4825f83610ca7565b5050565b6107518383836001610dba565b6001600160a01b038381165f908152600160209081526040808320938616835292905220545f1981146109e45781811015610b1957828183604051637dc7a0d960e11b81526004016103a0939291906110de565b6109e484848484035f610dba565b6001600160a01b038316610b5057604051634b637e8f60e11b81525f60048201526024016103a0565b6001600160a01b038216610b795760405163ec442f0560e01b81525f60048201526024016103a0565b610751838383610ca7565b5f80826001600160a01b031663313ce5676040518163ffffffff1660e01b8152600401602060405180830381865afa158015610bc2573d5f803e3d5ffd5b505050506040513d601f19601f82011682018060405250810190610be69190611131565b90505f610bf4826012611151565b9050610c0181600a61124a565b949350505050565b5f6003821115610c685750805f610c2160028361107a565b610c2c9060016110cb565b90505b81811015610c6257905080600281610c47818661107a565b610c5191906110cb565b610c5b919061107a565b9050610c2f565b50919050565b8115610c72575060015b919050565b6001600160a01b038216610ca05760405163ec442f0560e01b81525f60048201526024016103a0565b610ab45f83835b6001600160a01b038316610cd1578060025f828254610cc691906110cb565b90915550610d2e9050565b6001600160a01b0383165f9081526020819052604090205481811015610d105783818360405163391434e360e21b81526004016103a0939291906110de565b6001600160a01b0384165f9081526020819052604090209082900390555b6001600160a01b038216610d4a57600280548290039055610d68565b6001600160a01b0382165f9081526020819052604090208054820190555b816001600160a01b0316836001600160a01b03167fddf252ad1be2c89b69c2b068fc378daa952ba7f163c4a11628f55a4df523b3ef83604051610dad91815260200190565b60405180910390a3505050565b6001600160a01b038416610de35760405163e602df0560e01b81525f60048201526024016103a0565b6001600160a01b038316610e0c57604051634a1406b160e11b81525f60048201526024016103a0565b6001600160a01b038085165f90815260016020908152604080832093871683529290522082905580156109e457826001600160a01b0316846001600160a01b03167f8c5be1e5ebec7d5bd14f71427d1e84f3dd0314c0f7b2291e5b200ac8c7c3b92584604051610e7e91815260200190565b60405180910390a350505050565b80356001600160a01b0381168114610c72575f80fd5b5f8060408385031215610eb3575f80fd5b82359150610ec360208401610e8c565b90509250929050565b602081525f82518060208401528060208501604085015e5f604082850101526040601f19601f83011684010191505092915050565b5f805f60608486031215610f13575f80fd5b610f1c84610e8c565b95602085013595506040909401359392505050565b5f8060408385031215610f42575f80fd5b610f4b83610e8c565b946020939093013593505050565b5f8060408385031215610f6a575f80fd5b50508035926020909101359150565b5f805f60608486031215610f8b575f80fd5b610f9484610e8c565b9250610fa260208501610e8c565b9150604084013590509250925092565b5f60208284031215610fc2575f80fd5b610fcb82610e8c565b9392505050565b5f805f60608486031215610fe4575f80fd5b8335925060208401359150610ffb60408501610e8c565b90509250925092565b5f8060408385031215611015575f80fd5b61101e83610e8c565b9150610ec360208401610e8c565b6020808252600990820152683337b93134b23232b760b91b604082015260600190565b634e487b7160e01b5f52601160045260245ffd5b80820281158282048414176106335761063361104f565b5f8261109457634e487b7160e01b5f52601260045260245ffd5b500490565b600181811c908216806110ad57607f821691505b602082108103610c6257634e487b7160e01b5f52602260045260245ffd5b808201808211156106335761063361104f565b6001600160a01b039390931683526020830191909152604082015260600190565b5f6020828403121561110f575f80fd5b81518015158114610fcb575f80fd5b818103818111156106335761063361104f565b5f60208284031215611141575f80fd5b815160ff81168114610fcb575f80fd5b60ff82811682821603908111156106335761063361104f565b600181815b808511156111a457815f190482111561118a5761118a61104f565b8085161561119757918102915b93841c939080029061116f565b509250929050565b5f826111ba57506001610633565b816111c657505f610633565b81600181146111dc57600281146111e657611202565b6001915050610633565b60ff8411156111f7576111f761104f565b50506001821b610633565b5060208310610133831016604e8410600b8410161715611225575081810a610633565b61122f838361116a565b805f19048211156112425761124261104f565b029392505050565b5f610fcb60ff8416836111ac56fea26469706673582212205af128e8785d00bc0b97fc8949b00c9b076e7054ac1cb28b52a2130eec7a466c64736f6c63430008190033a26469706673582212200d26fa315f349b89b11d5f0133467e2a798d8fb433e5fffa14a3df350c0fb45964736f6c63430008190033",
			"opcodes": "PUSH1 0x80 PUSH1 0x40 MSTORE PUSH1 0x1 PUSH0 DUP2 SWAP1 SSTORE DUP1 SLOAD PUSH2 0xFFFF NOT AND PUSH1 0x1E OR SWAP1 SSTORE CALLVALUE DUP1 ISZERO PUSH1 0x20 JUMPI PUSH0 DUP1 REVERT JUMPDEST POP PUSH2 0x3F5E DUP1 PUSH2 0x2E PUSH0 CODECOPY PUSH0 RETURN INVALID PUSH1 0x80 PUSH1 0x40 MSTORE CALLVALUE DUP1 ISZERO PUSH2 0xF JUMPI PUSH0 DUP1 REVERT JUMPDEST POP PUSH1 0x4 CALLDATASIZE LT PUSH2 0xB1 JUMPI PUSH0 CALLDATALOAD PUSH1 0xE0 SHR DUP1 PUSH4 0xCA4ABD68 GT PUSH2 0x6E JUMPI DUP1 PUSH4 0xCA4ABD68 EQ PUSH2 0x14A JUMPI DUP1 PUSH4 0xCF6C62EA EQ PUSH2 0x15D JUMPI DUP1 PUSH4 0xD8AE9B9B EQ PUSH2 0x17D JUMPI DUP1 PUSH4 0xDDCA3F43 EQ PUSH2 0x190 JUMPI DUP1 PUSH4 0xE3CB477C EQ PUSH2 0x1B1 JUMPI DUP1 PUSH4 0xE6A43905 EQ PUSH2 0x1C4 JUMPI PUSH0 DUP1 REVERT JUMPDEST DUP1 PUSH4 0x112A15FB EQ PUSH2 0xB5 JUMPI DUP1 PUSH4 0x1EFD0E78 EQ PUSH2 0xDB JUMPI DUP1 PUSH4 0x40FA3295 EQ PUSH2 0xEE JUMPI DUP1 PUSH4 0x49778581 EQ PUSH2 0x101 JUMPI DUP1 PUSH4 0x70085BE0 EQ PUSH2 0x124 JUMPI DUP1 PUSH4 0x8D2DBEAE EQ PUSH2 0x137 JUMPI JUMPDEST PUSH0 DUP1 REVERT JUMPDEST PUSH2 0xC8 PUSH2 0xC3 CALLDATASIZE PUSH1 0x4 PUSH2 0x2264 JUMP JUMPDEST PUSH2 0x20F JUMP JUMPDEST PUSH1 0x40 MLOAD SWAP1 DUP2 MSTORE PUSH1 0x20 ADD JUMPDEST PUSH1 0x40 MLOAD DUP1 SWAP2 SUB SWAP1 RETURN JUMPDEST PUSH2 0xC8 PUSH2 0xE9 CALLDATASIZE PUSH1 0x4 PUSH2 0x22A6 JUMP JUMPDEST PUSH2 0x287 JUMP JUMPDEST PUSH2 0xC8 PUSH2 0xFC CALLDATASIZE PUSH1 0x4 PUSH2 0x22F0 JUMP JUMPDEST PUSH2 0xA66 JUMP JUMPDEST PUSH2 0x114 PUSH2 0x10F CALLDATASIZE PUSH1 0x4 PUSH2 0x232F JUMP JUMPDEST PUSH2 0xABF JUMP JUMPDEST PUSH1 0x40 MLOAD SWAP1 ISZERO ISZERO DUP2 MSTORE PUSH1 0x20 ADD PUSH2 0xD2 JUMP JUMPDEST PUSH2 0xC8 PUSH2 0x132 CALLDATASIZE PUSH1 0x4 PUSH2 0x2366 JUMP JUMPDEST PUSH2 0xAEA JUMP JUMPDEST PUSH2 0xC8 PUSH2 0x145 CALLDATASIZE PUSH1 0x4 PUSH2 0x23AB JUMP JUMPDEST PUSH2 0xE1C JUMP JUMPDEST PUSH2 0xC8 PUSH2 0x158 CALLDATASIZE PUSH1 0x4 PUSH2 0x23E9 JUMP JUMPDEST PUSH2 0x1085 JUMP JUMPDEST PUSH2 0x170 PUSH2 0x16B CALLDATASIZE PUSH1 0x4 PUSH2 0x241D JUMP JUMPDEST PUSH2 0x1341 JUMP JUMPDEST PUSH1 0x40 MLOAD PUSH2 0xD2 SWAP2 SWAP1 PUSH2 0x248E JUMP JUMPDEST PUSH2 0x170 PUSH2 0x18B CALLDATASIZE PUSH1 0x4 PUSH2 0x23AB JUMP JUMPDEST PUSH2 0x17C1 JUMP JUMPDEST PUSH1 0x1 SLOAD PUSH2 0x19E SWAP1 PUSH2 0xFFFF AND DUP2 JUMP JUMPDEST PUSH1 0x40 MLOAD PUSH2 0xFFFF SWAP1 SWAP2 AND DUP2 MSTORE PUSH1 0x20 ADD PUSH2 0xD2 JUMP JUMPDEST PUSH2 0xC8 PUSH2 0x1BF CALLDATASIZE PUSH1 0x4 PUSH2 0x232F JUMP JUMPDEST PUSH2 0x1BA2 JUMP JUMPDEST PUSH2 0x1F7 PUSH2 0x1D2 CALLDATASIZE PUSH1 0x4 PUSH2 0x232F JUMP JUMPDEST PUSH1 0x2 PUSH1 0x20 SWAP1 DUP2 MSTORE PUSH0 SWAP3 DUP4 MSTORE PUSH1 0x40 DUP1 DUP5 KECCAK256 SWAP1 SWAP2 MSTORE SWAP1 DUP3 MSTORE SWAP1 KECCAK256 SLOAD PUSH1 0x1 PUSH1 0x1 PUSH1 0xA0 SHL SUB AND DUP2 JUMP JUMPDEST PUSH1 0x40 MLOAD PUSH1 0x1 PUSH1 0x1 PUSH1 0xA0 SHL SUB SWAP1 SWAP2 AND DUP2 MSTORE PUSH1 0x20 ADD PUSH2 0xD2 JUMP JUMPDEST PUSH0 DUP2 DUP2 JUMPDEST PUSH1 0x1 DUP6 MLOAD PUSH2 0x221 SWAP2 SWAP1 PUSH2 0x24B4 JUMP JUMPDEST DUP2 LT ISZERO PUSH2 0x27D JUMPI PUSH0 PUSH2 0x272 DUP7 DUP4 DUP2 MLOAD DUP2 LT PUSH2 0x23E JUMPI PUSH2 0x23E PUSH2 0x24C7 JUMP JUMPDEST PUSH1 0x20 MUL PUSH1 0x20 ADD ADD MLOAD DUP5 DUP9 DUP6 PUSH1 0x1 PUSH2 0x255 SWAP2 SWAP1 PUSH2 0x24DB JUMP JUMPDEST DUP2 MLOAD DUP2 LT PUSH2 0x265 JUMPI PUSH2 0x265 PUSH2 0x24C7 JUMP JUMPDEST PUSH1 0x20 MUL PUSH1 0x20 ADD ADD MLOAD PUSH2 0x1085 JUMP JUMPDEST SWAP3 POP POP PUSH1 0x1 ADD PUSH2 0x213 JUMP JUMPDEST POP SWAP1 POP JUMPDEST SWAP3 SWAP2 POP POP JUMP JUMPDEST PUSH0 DUP1 SLOAD PUSH1 0x1 EQ PUSH2 0x2B2 JUMPI PUSH1 0x40 MLOAD PUSH3 0x461BCD PUSH1 0xE5 SHL DUP2 MSTORE PUSH1 0x4 ADD PUSH2 0x2A9 SWAP1 PUSH2 0x24EE JUMP JUMPDEST PUSH1 0x40 MLOAD DUP1 SWAP2 SUB SWAP1 REVERT JUMPDEST PUSH0 DUP1 DUP1 SSTORE DUP5 MLOAD CALLER SWAP2 DUP6 SWAP2 DUP8 SWAP2 SWAP1 PUSH2 0x2CB JUMPI PUSH2 0x2CB PUSH2 0x24C7 JUMP JUMPDEST PUSH1 0x20 MUL PUSH1 0x20 ADD ADD MLOAD PUSH1 0x1 PUSH1 0x1 PUSH1 0xA0 SHL SUB AND PUSH4 0x23B872DD DUP4 ADDRESS DUP5 PUSH1 0x40 MLOAD DUP5 PUSH4 0xFFFFFFFF AND PUSH1 0xE0 SHL DUP2 MSTORE PUSH1 0x4 ADD PUSH2 0x302 SWAP4 SWAP3 SWAP2 SWAP1 PUSH2 0x2513 JUMP JUMPDEST PUSH1 0x20 PUSH1 0x40 MLOAD DUP1 DUP4 SUB DUP2 PUSH0 DUP8 GAS CALL ISZERO DUP1 ISZERO PUSH2 0x31E JUMPI RETURNDATASIZE PUSH0 DUP1 RETURNDATACOPY RETURNDATASIZE PUSH0 REVERT JUMPDEST POP POP POP POP PUSH1 0x40 MLOAD RETURNDATASIZE PUSH1 0x1F NOT PUSH1 0x1F DUP3 ADD AND DUP3 ADD DUP1 PUSH1 0x40 MSTORE POP DUP2 ADD SWAP1 PUSH2 0x342 SWAP2 SWAP1 PUSH2 0x2537 JUMP JUMPDEST POP PUSH0 JUMPDEST PUSH1 0x1 DUP8 MLOAD PUSH2 0x353 SWAP2 SWAP1 PUSH2 0x24B4 JUMP JUMPDEST DUP2 LT ISZERO PUSH2 0xA16 JUMPI PUSH1 0x2 DUP8 MLOAD PUSH2 0x368 SWAP2 SWAP1 PUSH2 0x24B4 JUMP JUMPDEST DUP2 LT ISZERO PUSH2 0x6CC JUMPI PUSH0 PUSH2 0x39C DUP9 DUP4 DUP2 MLOAD DUP2 LT PUSH2 0x385 JUMPI PUSH2 0x385 PUSH2 0x24C7 JUMP JUMPDEST PUSH1 0x20 MUL PUSH1 0x20 ADD ADD MLOAD DUP5 DUP11 DUP6 PUSH1 0x1 PUSH2 0x255 SWAP2 SWAP1 PUSH2 0x24DB JUMP JUMPDEST SWAP1 POP PUSH0 PUSH1 0x2 PUSH0 DUP11 DUP6 DUP2 MLOAD DUP2 LT PUSH2 0x3B4 JUMPI PUSH2 0x3B4 PUSH2 0x24C7 JUMP JUMPDEST PUSH1 0x20 MUL PUSH1 0x20 ADD ADD MLOAD PUSH1 0x1 PUSH1 0x1 PUSH1 0xA0 SHL SUB AND PUSH1 0x1 PUSH1 0x1 PUSH1 0xA0 SHL SUB AND DUP2 MSTORE PUSH1 0x20 ADD SWAP1 DUP2 MSTORE PUSH1 0x20 ADD PUSH0 KECCAK256 PUSH0 DUP11 DUP6 PUSH1 0x1 PUSH2 0x3EA SWAP2 SWAP1 PUSH2 0x24DB JUMP JUMPDEST DUP2 MLOAD DUP2 LT PUSH2 0x3FA JUMPI PUSH2 0x3FA PUSH2 0x24C7 JUMP JUMPDEST PUSH1 0x20 SWAP1 DUP2 MUL SWAP2 SWAP1 SWAP2 ADD DUP2 ADD MLOAD PUSH1 0x1 PUSH1 0x1 PUSH1 0xA0 SHL SUB SWAP1 DUP2 AND DUP4 MSTORE SWAP1 DUP3 ADD SWAP3 SWAP1 SWAP3 MSTORE PUSH1 0x40 ADD PUSH0 KECCAK256 SLOAD AND SWAP1 POP DUP1 PUSH4 0x69865DEB DUP11 PUSH2 0x435 DUP7 PUSH1 0x1 PUSH2 0x24DB JUMP JUMPDEST DUP2 MLOAD DUP2 LT PUSH2 0x445 JUMPI PUSH2 0x445 PUSH2 0x24C7 JUMP JUMPDEST PUSH1 0x20 MUL PUSH1 0x20 ADD ADD MLOAD DUP5 PUSH1 0x40 MLOAD DUP4 PUSH4 0xFFFFFFFF AND PUSH1 0xE0 SHL DUP2 MSTORE PUSH1 0x4 ADD PUSH2 0x47F SWAP3 SWAP2 SWAP1 PUSH1 0x1 PUSH1 0x1 PUSH1 0xA0 SHL SUB SWAP3 SWAP1 SWAP3 AND DUP3 MSTORE PUSH1 0x20 DUP3 ADD MSTORE PUSH1 0x40 ADD SWAP1 JUMP JUMPDEST PUSH0 PUSH1 0x40 MLOAD DUP1 DUP4 SUB DUP2 PUSH0 DUP8 DUP1 EXTCODESIZE ISZERO DUP1 ISZERO PUSH2 0x496 JUMPI PUSH0 DUP1 REVERT JUMPDEST POP GAS CALL ISZERO DUP1 ISZERO PUSH2 0x4A8 JUMPI RETURNDATASIZE PUSH0 DUP1 RETURNDATACOPY RETURNDATASIZE PUSH0 REVERT JUMPDEST POP POP POP POP DUP9 DUP4 DUP2 MLOAD DUP2 LT PUSH2 0x4BE JUMPI PUSH2 0x4BE PUSH2 0x24C7 JUMP JUMPDEST PUSH1 0x20 SWAP1 DUP2 MUL SWAP2 SWAP1 SWAP2 ADD ADD MLOAD PUSH1 0x40 MLOAD PUSH4 0xA9059CBB PUSH1 0xE0 SHL DUP2 MSTORE PUSH1 0x1 PUSH1 0x1 PUSH1 0xA0 SHL SUB DUP4 DUP2 AND PUSH1 0x4 DUP4 ADD MSTORE PUSH1 0x24 DUP3 ADD DUP8 SWAP1 MSTORE SWAP1 SWAP2 AND SWAP1 PUSH4 0xA9059CBB SWAP1 PUSH1 0x44 ADD PUSH1 0x20 PUSH1 0x40 MLOAD DUP1 DUP4 SUB DUP2 PUSH0 DUP8 GAS CALL ISZERO DUP1 ISZERO PUSH2 0x516 JUMPI RETURNDATASIZE PUSH0 DUP1 RETURNDATACOPY RETURNDATASIZE PUSH0 REVERT JUMPDEST POP POP POP POP PUSH1 0x40 MLOAD RETURNDATASIZE PUSH1 0x1F NOT PUSH1 0x1F DUP3 ADD AND DUP3 ADD DUP1 PUSH1 0x40 MSTORE POP DUP2 ADD SWAP1 PUSH2 0x53A SWAP2 SWAP1 PUSH2 0x2537 JUMP JUMPDEST POP DUP9 PUSH2 0x547 DUP5 PUSH1 0x1 PUSH2 0x24DB JUMP JUMPDEST DUP2 MLOAD DUP2 LT PUSH2 0x557 JUMPI PUSH2 0x557 PUSH2 0x24C7 JUMP JUMPDEST PUSH1 0x20 MUL PUSH1 0x20 ADD ADD MLOAD PUSH1 0x1 PUSH1 0x1 PUSH1 0xA0 SHL SUB AND PUSH4 0x23B872DD DUP3 ADDRESS DUP6 PUSH1 0x40 MLOAD DUP5 PUSH4 0xFFFFFFFF AND PUSH1 0xE0 SHL DUP2 MSTORE PUSH1 0x4 ADD PUSH2 0x58E SWAP4 SWAP3 SWAP2 SWAP1 PUSH2 0x2513 JUMP JUMPDEST PUSH1 0x20 PUSH1 0x40 MLOAD DUP1 DUP4 SUB DUP2 PUSH0 DUP8 GAS CALL ISZERO DUP1 ISZERO PUSH2 0x5AA JUMPI RETURNDATASIZE PUSH0 DUP1 RETURNDATACOPY RETURNDATASIZE PUSH0 REVERT JUMPDEST POP POP POP POP PUSH1 0x40 MLOAD RETURNDATASIZE PUSH1 0x1F NOT PUSH1 0x1F DUP3 ADD AND DUP3 ADD DUP1 PUSH1 0x40 MSTORE POP DUP2 ADD SWAP1 PUSH2 0x5CE SWAP2 SWAP1 PUSH2 0x2537 JUMP JUMPDEST POP DUP1 PUSH1 0x1 PUSH1 0x1 PUSH1 0xA0 SHL SUB AND PUSH4 0xA7533D04 DUP11 DUP6 DUP2 MLOAD DUP2 LT PUSH2 0x5F0 JUMPI PUSH2 0x5F0 PUSH2 0x24C7 JUMP JUMPDEST PUSH1 0x20 MUL PUSH1 0x20 ADD ADD MLOAD DUP7 DUP6 PUSH1 0x40 MLOAD DUP5 PUSH4 0xFFFFFFFF AND PUSH1 0xE0 SHL DUP2 MSTORE PUSH1 0x4 ADD PUSH2 0x618 SWAP4 SWAP3 SWAP2 SWAP1 PUSH2 0x2556 JUMP JUMPDEST PUSH0 PUSH1 0x40 MLOAD DUP1 DUP4 SUB DUP2 PUSH0 DUP8 DUP1 EXTCODESIZE ISZERO DUP1 ISZERO PUSH2 0x62F JUMPI PUSH0 DUP1 REVERT JUMPDEST POP GAS CALL ISZERO DUP1 ISZERO PUSH2 0x641 JUMPI RETURNDATASIZE PUSH0 DUP1 RETURNDATACOPY RETURNDATASIZE PUSH0 REVERT JUMPDEST POP POP POP POP PUSH32 0xD6D34547C69C5EE3D2667625C188ACF1006ABB93E0EE7CF03925C67CF7760413 DUP2 DUP11 DUP6 DUP2 MLOAD DUP2 LT PUSH2 0x679 JUMPI PUSH2 0x679 PUSH2 0x24C7 JUMP JUMPDEST PUSH1 0x20 MUL PUSH1 0x20 ADD ADD MLOAD DUP12 DUP7 PUSH1 0x1 PUSH2 0x68F SWAP2 SWAP1 PUSH2 0x24DB JUMP JUMPDEST DUP2 MLOAD DUP2 LT PUSH2 0x69F JUMPI PUSH2 0x69F PUSH2 0x24C7 JUMP JUMPDEST PUSH1 0x20 MUL PUSH1 0x20 ADD ADD MLOAD DUP8 DUP7 TIMESTAMP PUSH1 0x40 MLOAD PUSH2 0x6BC SWAP7 SWAP6 SWAP5 SWAP4 SWAP3 SWAP2 SWAP1 PUSH2 0x2577 JUMP JUMPDEST PUSH1 0x40 MLOAD DUP1 SWAP2 SUB SWAP1 LOG1 POP SWAP2 POP PUSH2 0xA0E JUMP JUMPDEST PUSH0 PUSH2 0x6E2 DUP9 DUP4 DUP2 MLOAD DUP2 LT PUSH2 0x385 JUMPI PUSH2 0x385 PUSH2 0x24C7 JUMP JUMPDEST SWAP1 POP PUSH0 PUSH1 0x2 PUSH0 DUP11 DUP6 DUP2 MLOAD DUP2 LT PUSH2 0x6FA JUMPI PUSH2 0x6FA PUSH2 0x24C7 JUMP JUMPDEST PUSH1 0x20 MUL PUSH1 0x20 ADD ADD MLOAD PUSH1 0x1 PUSH1 0x1 PUSH1 0xA0 SHL SUB AND PUSH1 0x1 PUSH1 0x1 PUSH1 0xA0 SHL SUB AND DUP2 MSTORE PUSH1 0x20 ADD SWAP1 DUP2 MSTORE PUSH1 0x20 ADD PUSH0 KECCAK256 PUSH0 DUP11 DUP6 PUSH1 0x1 PUSH2 0x730 SWAP2 SWAP1 PUSH2 0x24DB JUMP JUMPDEST DUP2 MLOAD DUP2 LT PUSH2 0x740 JUMPI PUSH2 0x740 PUSH2 0x24C7 JUMP JUMPDEST PUSH1 0x20 SWAP1 DUP2 MUL SWAP2 SWAP1 SWAP2 ADD DUP2 ADD MLOAD PUSH1 0x1 PUSH1 0x1 PUSH1 0xA0 SHL SUB SWAP1 DUP2 AND DUP4 MSTORE SWAP1 DUP3 ADD SWAP3 SWAP1 SWAP3 MSTORE PUSH1 0x40 ADD PUSH0 KECCAK256 SLOAD AND SWAP1 POP DUP1 PUSH4 0x69865DEB DUP11 PUSH2 0x77B DUP7 PUSH1 0x1 PUSH2 0x24DB JUMP JUMPDEST DUP2 MLOAD DUP2 LT PUSH2 0x78B JUMPI PUSH2 0x78B PUSH2 0x24C7 JUMP JUMPDEST PUSH1 0x20 MUL PUSH1 0x20 ADD ADD MLOAD DUP5 PUSH1 0x40 MLOAD DUP4 PUSH4 0xFFFFFFFF AND PUSH1 0xE0 SHL DUP2 MSTORE PUSH1 0x4 ADD PUSH2 0x7C5 SWAP3 SWAP2 SWAP1 PUSH1 0x1 PUSH1 0x1 PUSH1 0xA0 SHL SUB SWAP3 SWAP1 SWAP3 AND DUP3 MSTORE PUSH1 0x20 DUP3 ADD MSTORE PUSH1 0x40 ADD SWAP1 JUMP JUMPDEST PUSH0 PUSH1 0x40 MLOAD DUP1 DUP4 SUB DUP2 PUSH0 DUP8 DUP1 EXTCODESIZE ISZERO DUP1 ISZERO PUSH2 0x7DC JUMPI PUSH0 DUP1 REVERT JUMPDEST POP GAS CALL ISZERO DUP1 ISZERO PUSH2 0x7EE JUMPI RETURNDATASIZE PUSH0 DUP1 RETURNDATACOPY RETURNDATASIZE PUSH0 REVERT JUMPDEST POP POP POP POP DUP9 DUP4 DUP2 MLOAD DUP2 LT PUSH2 0x804 JUMPI PUSH2 0x804 PUSH2 0x24C7 JUMP JUMPDEST PUSH1 0x20 SWAP1 DUP2 MUL SWAP2 SWAP1 SWAP2 ADD ADD MLOAD PUSH1 0x40 MLOAD PUSH4 0xA9059CBB PUSH1 0xE0 SHL DUP2 MSTORE PUSH1 0x1 PUSH1 0x1 PUSH1 0xA0 SHL SUB DUP4 DUP2 AND PUSH1 0x4 DUP4 ADD MSTORE PUSH1 0x24 DUP3 ADD DUP8 SWAP1 MSTORE SWAP1 SWAP2 AND SWAP1 PUSH4 0xA9059CBB SWAP1 PUSH1 0x44 ADD PUSH1 0x20 PUSH1 0x40 MLOAD DUP1 DUP4 SUB DUP2 PUSH0 DUP8 GAS CALL ISZERO DUP1 ISZERO PUSH2 0x85C JUMPI RETURNDATASIZE PUSH0 DUP1 RETURNDATACOPY RETURNDATASIZE PUSH0 REVERT JUMPDEST POP POP POP POP PUSH1 0x40 MLOAD RETURNDATASIZE PUSH1 0x1F NOT PUSH1 0x1F DUP3 ADD AND DUP3 ADD DUP1 PUSH1 0x40 MSTORE POP DUP2 ADD SWAP1 PUSH2 0x880 SWAP2 SWAP1 PUSH2 0x2537 JUMP JUMPDEST POP DUP9 PUSH2 0x88D DUP5 PUSH1 0x1 PUSH2 0x24DB JUMP JUMPDEST DUP2 MLOAD DUP2 LT PUSH2 0x89D JUMPI PUSH2 0x89D PUSH2 0x24C7 JUMP JUMPDEST PUSH1 0x20 MUL PUSH1 0x20 ADD ADD MLOAD PUSH1 0x1 PUSH1 0x1 PUSH1 0xA0 SHL SUB AND PUSH4 0x23B872DD DUP3 DUP8 DUP6 PUSH1 0x40 MLOAD DUP5 PUSH4 0xFFFFFFFF AND PUSH1 0xE0 SHL DUP2 MSTORE PUSH1 0x4 ADD PUSH2 0x8D4 SWAP4 SWAP3 SWAP2 SWAP1 PUSH2 0x2513 JUMP JUMPDEST PUSH1 0x20 PUSH1 0x40 MLOAD DUP1 DUP4 SUB DUP2 PUSH0 DUP8 GAS CALL ISZERO DUP1 ISZERO PUSH2 0x8F0 JUMPI RETURNDATASIZE PUSH0 DUP1 RETURNDATACOPY RETURNDATASIZE PUSH0 REVERT JUMPDEST POP POP POP POP PUSH1 0x40 MLOAD RETURNDATASIZE PUSH1 0x1F NOT PUSH1 0x1F DUP3 ADD AND DUP3 ADD DUP1 PUSH1 0x40 MSTORE POP DUP2 ADD SWAP1 PUSH2 0x914 SWAP2 SWAP1 PUSH2 0x2537 JUMP JUMPDEST POP DUP1 PUSH1 0x1 PUSH1 0x1 PUSH1 0xA0 SHL SUB AND PUSH4 0xA7533D04 DUP11 DUP6 DUP2 MLOAD DUP2 LT PUSH2 0x936 JUMPI PUSH2 0x936 PUSH2 0x24C7 JUMP JUMPDEST PUSH1 0x20 MUL PUSH1 0x20 ADD ADD MLOAD DUP7 DUP6 PUSH1 0x40 MLOAD DUP5 PUSH4 0xFFFFFFFF AND PUSH1 0xE0 SHL DUP2 MSTORE PUSH1 0x4 ADD PUSH2 0x95E SWAP4 SWAP3 SWAP2 SWAP1 PUSH2 0x2556 JUMP JUMPDEST PUSH0 PUSH1 0x40 MLOAD DUP1 DUP4 SUB DUP2 PUSH0 DUP8 DUP1 EXTCODESIZE ISZERO DUP1 ISZERO PUSH2 0x975 JUMPI PUSH0 DUP1 REVERT JUMPDEST POP GAS CALL ISZERO DUP1 ISZERO PUSH2 0x987 JUMPI RETURNDATASIZE PUSH0 DUP1 RETURNDATACOPY RETURNDATASIZE PUSH0 REVERT JUMPDEST POP POP POP POP PUSH32 0xD6D34547C69C5EE3D2667625C188ACF1006ABB93E0EE7CF03925C67CF7760413 DUP2 DUP11 DUP6 DUP2 MLOAD DUP2 LT PUSH2 0x9BF JUMPI PUSH2 0x9BF PUSH2 0x24C7 JUMP JUMPDEST PUSH1 0x20 MUL PUSH1 0x20 ADD ADD MLOAD DUP12 DUP7 PUSH1 0x1 PUSH2 0x9D5 SWAP2 SWAP1 PUSH2 0x24DB JUMP JUMPDEST DUP2 MLOAD DUP2 LT PUSH2 0x9E5 JUMPI PUSH2 0x9E5 PUSH2 0x24C7 JUMP JUMPDEST PUSH1 0x20 MUL PUSH1 0x20 ADD ADD MLOAD DUP8 DUP7 TIMESTAMP PUSH1 0x40 MLOAD PUSH2 0xA02 SWAP7 SWAP6 SWAP5 SWAP4 SWAP3 SWAP2 SWAP1 PUSH2 0x2577 JUMP JUMPDEST PUSH1 0x40 MLOAD DUP1 SWAP2 SUB SWAP1 LOG1 POP SWAP2 POP JUMPDEST PUSH1 0x1 ADD PUSH2 0x345 JUMP JUMPDEST POP DUP1 DUP5 LT ISZERO PUSH2 0xA59 JUMPI PUSH1 0x40 MLOAD PUSH3 0x461BCD PUSH1 0xE5 SHL DUP2 MSTORE PUSH1 0x20 PUSH1 0x4 DUP3 ADD MSTORE PUSH1 0xF PUSH1 0x24 DUP3 ADD MSTORE PUSH15 0x1CDB1A5C1C1859D948195E18D95959 PUSH1 0x8A SHL PUSH1 0x44 DUP3 ADD MSTORE PUSH1 0x64 ADD PUSH2 0x2A9 JUMP JUMPDEST PUSH1 0x1 PUSH0 SSTORE SWAP6 SWAP5 POP POP POP POP POP JUMP JUMPDEST PUSH0 DUP1 PUSH2 0xA71 DUP4 PUSH2 0x1D69 JUMP JUMPDEST PUSH2 0xA7B DUP6 DUP6 PUSH2 0x1BA2 JUMP JUMPDEST PUSH2 0xA85 SWAP2 SWAP1 PUSH2 0x25B0 JUMP JUMPDEST PUSH2 0xA8E DUP6 PUSH2 0x1D69 JUMP JUMPDEST PUSH2 0xA98 SWAP1 DUP8 PUSH2 0x25B0 JUMP JUMPDEST PUSH2 0xAAA SWAP1 PUSH8 0xDE0B6B3A7640000 PUSH2 0x25B0 JUMP JUMPDEST PUSH2 0xAB4 SWAP2 SWAP1 PUSH2 0x25C7 JUMP JUMPDEST SWAP2 POP POP JUMPDEST SWAP4 SWAP3 POP POP POP JUMP JUMPDEST PUSH1 0x1 PUSH1 0x1 PUSH1 0xA0 SHL SUB SWAP2 DUP3 AND PUSH0 SWAP1 DUP2 MSTORE PUSH1 0x2 PUSH1 0x20 SWAP1 DUP2 MSTORE PUSH1 0x40 DUP1 DUP4 KECCAK256 SWAP4 DUP6 AND DUP4 MSTORE SWAP3 SWAP1 MSTORE KECCAK256 SLOAD AND ISZERO ISZERO SWAP1 JUMP JUMPDEST PUSH0 DUP1 SLOAD PUSH1 0x1 EQ PUSH2 0xB0C JUMPI PUSH1 0x40 MLOAD PUSH3 0x461BCD PUSH1 0xE5 SHL DUP2 MSTORE PUSH1 0x4 ADD PUSH2 0x2A9 SWAP1 PUSH2 0x24EE JUMP JUMPDEST PUSH0 DUP1 SSTORE PUSH1 0x40 MLOAD PUSH4 0x70A08231 PUSH1 0xE0 SHL DUP2 MSTORE CALLER PUSH1 0x4 DUP3 ADD DUP2 SWAP1 MSTORE SWAP1 DUP7 SWAP1 PUSH1 0x1 PUSH1 0x1 PUSH1 0xA0 SHL SUB DUP8 AND SWAP1 PUSH4 0x70A08231 SWAP1 PUSH1 0x24 ADD PUSH1 0x20 PUSH1 0x40 MLOAD DUP1 DUP4 SUB DUP2 DUP7 GAS STATICCALL ISZERO DUP1 ISZERO PUSH2 0xB56 JUMPI RETURNDATASIZE PUSH0 DUP1 RETURNDATACOPY RETURNDATASIZE PUSH0 REVERT JUMPDEST POP POP POP POP PUSH1 0x40 MLOAD RETURNDATASIZE PUSH1 0x1F NOT PUSH1 0x1F DUP3 ADD AND DUP3 ADD DUP1 PUSH1 0x40 MSTORE POP DUP2 ADD SWAP1 PUSH2 0xB7A SWAP2 SWAP1 PUSH2 0x25E6 JUMP JUMPDEST LT ISZERO PUSH2 0xBBD JUMPI PUSH1 0x40 MLOAD PUSH3 0x461BCD PUSH1 0xE5 SHL DUP2 MSTORE PUSH1 0x20 PUSH1 0x4 DUP3 ADD MSTORE PUSH1 0x12 PUSH1 0x24 DUP3 ADD MSTORE PUSH18 0x6E6F7420656E6F7567682062616C616E6365 PUSH1 0x70 SHL PUSH1 0x44 DUP3 ADD MSTORE PUSH1 0x64 ADD PUSH2 0x2A9 JUMP JUMPDEST PUSH0 PUSH2 0xBC9 DUP7 DUP9 DUP8 PUSH2 0x1085 JUMP JUMPDEST SWAP1 POP DUP1 DUP5 LT ISZERO PUSH2 0xC11 JUMPI PUSH1 0x40 MLOAD PUSH3 0x461BCD PUSH1 0xE5 SHL DUP2 MSTORE PUSH1 0x20 PUSH1 0x4 DUP3 ADD MSTORE PUSH1 0x13 PUSH1 0x24 DUP3 ADD MSTORE PUSH19 0x736C697070616765206578697374206D6F7265 PUSH1 0x68 SHL PUSH1 0x44 DUP3 ADD MSTORE PUSH1 0x64 ADD PUSH2 0x2A9 JUMP JUMPDEST PUSH1 0x1 PUSH1 0x1 PUSH1 0xA0 SHL SUB DUP1 DUP8 AND PUSH0 DUP2 DUP2 MSTORE PUSH1 0x2 PUSH1 0x20 SWAP1 DUP2 MSTORE PUSH1 0x40 DUP1 DUP4 KECCAK256 DUP11 DUP7 AND DUP5 MSTORE SWAP1 SWAP2 MSTORE SWAP1 DUP2 SWAP1 KECCAK256 SLOAD SWAP1 MLOAD PUSH4 0x23B872DD PUSH1 0xE0 SHL DUP2 MSTORE SWAP3 AND SWAP2 PUSH4 0x23B872DD SWAP1 PUSH2 0xC60 SWAP1 DUP7 SWAP1 DUP6 SWAP1 DUP14 SWAP1 PUSH1 0x4 ADD PUSH2 0x2513 JUMP JUMPDEST PUSH1 0x20 PUSH1 0x40 MLOAD DUP1 DUP4 SUB DUP2 PUSH0 DUP8 GAS CALL ISZERO DUP1 ISZERO PUSH2 0xC7C JUMPI RETURNDATASIZE PUSH0 DUP1 RETURNDATACOPY RETURNDATASIZE PUSH0 REVERT JUMPDEST POP POP POP POP PUSH1 0x40 MLOAD RETURNDATASIZE PUSH1 0x1F NOT PUSH1 0x1F DUP3 ADD AND DUP3 ADD DUP1 PUSH1 0x40 MSTORE POP DUP2 ADD SWAP1 PUSH2 0xCA0 SWAP2 SWAP1 PUSH2 0x2537 JUMP JUMPDEST POP PUSH1 0x40 MLOAD PUSH4 0x69865DEB PUSH1 0xE0 SHL DUP2 MSTORE PUSH1 0x1 PUSH1 0x1 PUSH1 0xA0 SHL SUB DUP8 DUP2 AND PUSH1 0x4 DUP4 ADD MSTORE PUSH1 0x24 DUP3 ADD DUP5 SWAP1 MSTORE DUP3 AND SWAP1 PUSH4 0x69865DEB SWAP1 PUSH1 0x44 ADD PUSH0 PUSH1 0x40 MLOAD DUP1 DUP4 SUB DUP2 PUSH0 DUP8 DUP1 EXTCODESIZE ISZERO DUP1 ISZERO PUSH2 0xCE8 JUMPI PUSH0 DUP1 REVERT JUMPDEST POP GAS CALL ISZERO DUP1 ISZERO PUSH2 0xCFA JUMPI RETURNDATASIZE PUSH0 DUP1 RETURNDATACOPY RETURNDATASIZE PUSH0 REVERT JUMPDEST POP POP PUSH1 0x40 MLOAD PUSH4 0x23B872DD PUSH1 0xE0 SHL DUP2 MSTORE PUSH1 0x1 PUSH1 0x1 PUSH1 0xA0 SHL SUB DUP10 AND SWAP3 POP PUSH4 0x23B872DD SWAP2 POP PUSH2 0xD2E SWAP1 DUP5 SWAP1 DUP8 SWAP1 DUP8 SWAP1 PUSH1 0x4 ADD PUSH2 0x2513 JUMP JUMPDEST PUSH1 0x20 PUSH1 0x40 MLOAD DUP1 DUP4 SUB DUP2 PUSH0 DUP8 GAS CALL ISZERO DUP1 ISZERO PUSH2 0xD4A JUMPI RETURNDATASIZE PUSH0 DUP1 RETURNDATACOPY RETURNDATASIZE PUSH0 REVERT JUMPDEST POP POP POP POP PUSH1 0x40 MLOAD RETURNDATASIZE PUSH1 0x1F NOT PUSH1 0x1F DUP3 ADD AND DUP3 ADD DUP1 PUSH1 0x40 MSTORE POP DUP2 ADD SWAP1 PUSH2 0xD6E SWAP2 SWAP1 PUSH2 0x2537 JUMP JUMPDEST POP PUSH1 0x40 MLOAD PUSH4 0x29D4CF41 PUSH1 0xE2 SHL DUP2 MSTORE PUSH1 0x1 PUSH1 0x1 PUSH1 0xA0 SHL SUB DUP3 AND SWAP1 PUSH4 0xA7533D04 SWAP1 PUSH2 0xD9F SWAP1 DUP11 SWAP1 DUP13 SWAP1 DUP8 SWAP1 PUSH1 0x4 ADD PUSH2 0x2556 JUMP JUMPDEST PUSH0 PUSH1 0x40 MLOAD DUP1 DUP4 SUB DUP2 PUSH0 DUP8 DUP1 EXTCODESIZE ISZERO DUP1 ISZERO PUSH2 0xDB6 JUMPI PUSH0 DUP1 REVERT JUMPDEST POP GAS CALL ISZERO DUP1 ISZERO PUSH2 0xDC8 JUMPI RETURNDATASIZE PUSH0 DUP1 RETURNDATACOPY RETURNDATASIZE PUSH0 REVERT JUMPDEST POP POP POP POP PUSH32 0xD6D34547C69C5EE3D2667625C188ACF1006ABB93E0EE7CF03925C67CF7760413 DUP2 DUP9 DUP9 DUP12 DUP7 TIMESTAMP PUSH1 0x40 MLOAD PUSH2 0xE05 SWAP7 SWAP6 SWAP5 SWAP4 SWAP3 SWAP2 SWAP1 PUSH2 0x2577 JUMP JUMPDEST PUSH1 0x40 MLOAD DUP1 SWAP2 SUB SWAP1 LOG1 POP PUSH1 0x1 PUSH0 SSTORE SWAP7 SWAP6 POP POP POP POP POP POP JUMP JUMPDEST PUSH0 DUP1 PUSH2 0xE27 DUP6 PUSH2 0x1D69 JUMP JUMPDEST SWAP1 POP PUSH0 PUSH2 0xE33 DUP6 PUSH2 0x1D69 JUMP JUMPDEST SWAP1 POP DUP5 PUSH1 0x1 PUSH1 0x1 PUSH1 0xA0 SHL SUB AND DUP7 PUSH1 0x1 PUSH1 0x1 PUSH1 0xA0 SHL SUB AND SUB PUSH2 0xE66 JUMPI PUSH1 0x40 MLOAD PUSH3 0x461BCD PUSH1 0xE5 SHL DUP2 MSTORE PUSH1 0x4 ADD PUSH2 0x2A9 SWAP1 PUSH2 0x25FD JUMP JUMPDEST PUSH1 0x1 PUSH1 0x1 PUSH1 0xA0 SHL SUB DUP7 AND ISZERO DUP1 ISZERO SWAP1 PUSH2 0xE86 JUMPI POP PUSH1 0x1 PUSH1 0x1 PUSH1 0xA0 SHL SUB DUP6 AND ISZERO ISZERO JUMPDEST PUSH2 0xEA2 JUMPI PUSH1 0x40 MLOAD PUSH3 0x461BCD PUSH1 0xE5 SHL DUP2 MSTORE PUSH1 0x4 ADD PUSH2 0x2A9 SWAP1 PUSH2 0x262A JUMP JUMPDEST PUSH2 0xEAC DUP7 DUP7 PUSH2 0xABF JUMP JUMPDEST PUSH2 0xEC8 JUMPI PUSH1 0x40 MLOAD PUSH3 0x461BCD PUSH1 0xE5 SHL DUP2 MSTORE PUSH1 0x4 ADD PUSH2 0x2A9 SWAP1 PUSH2 0x2650 JUMP JUMPDEST PUSH1 0x1 PUSH1 0x1 PUSH1 0xA0 SHL SUB DUP1 DUP8 AND PUSH0 SWAP1 DUP2 MSTORE PUSH1 0x2 PUSH1 0x20 SWAP1 DUP2 MSTORE PUSH1 0x40 DUP1 DUP4 KECCAK256 DUP10 DUP6 AND DUP5 MSTORE SWAP1 SWAP2 MSTORE DUP1 DUP3 KECCAK256 SLOAD DUP2 MLOAD PUSH4 0x240BC6B PUSH1 0xE2 SHL DUP2 MSTORE SWAP2 MLOAD SWAP4 AND SWAP3 DUP3 SWAP2 DUP5 SWAP2 PUSH4 0x902F1AC SWAP2 PUSH1 0x4 DUP1 DUP3 ADD SWAP3 PUSH1 0x60 SWAP3 SWAP1 SWAP2 SWAP1 DUP3 SWAP1 SUB ADD DUP2 DUP7 GAS STATICCALL ISZERO DUP1 ISZERO PUSH2 0xF2D JUMPI RETURNDATASIZE PUSH0 DUP1 RETURNDATACOPY RETURNDATASIZE PUSH0 REVERT JUMPDEST POP POP POP POP PUSH1 0x40 MLOAD RETURNDATASIZE PUSH1 0x1F NOT PUSH1 0x1F DUP3 ADD AND DUP3 ADD DUP1 PUSH1 0x40 MSTORE POP DUP2 ADD SWAP1 PUSH2 0xF51 SWAP2 SWAP1 PUSH2 0x267D JUMP JUMPDEST POP SWAP2 POP SWAP2 POP DUP3 PUSH1 0x1 PUSH1 0x1 PUSH1 0xA0 SHL SUB AND PUSH4 0xDFE1681 PUSH1 0x40 MLOAD DUP2 PUSH4 0xFFFFFFFF AND PUSH1 0xE0 SHL DUP2 MSTORE PUSH1 0x4 ADD PUSH1 0x20 PUSH1 0x40 MLOAD DUP1 DUP4 SUB DUP2 DUP7 GAS STATICCALL ISZERO DUP1 ISZERO PUSH2 0xF92 JUMPI RETURNDATASIZE PUSH0 DUP1 RETURNDATACOPY RETURNDATASIZE PUSH0 REVERT JUMPDEST POP POP POP POP PUSH1 0x40 MLOAD RETURNDATASIZE PUSH1 0x1F NOT PUSH1 0x1F DUP3 ADD AND DUP3 ADD DUP1 PUSH1 0x40 MSTORE POP DUP2 ADD SWAP1 PUSH2 0xFB6 SWAP2 SWAP1 PUSH2 0x26A8 JUMP JUMPDEST PUSH1 0x1 PUSH1 0x1 PUSH1 0xA0 SHL SUB AND DUP10 PUSH1 0x1 PUSH1 0x1 PUSH1 0xA0 SHL SUB AND SUB PUSH2 0x1054 JUMPI PUSH0 DUP5 PUSH2 0xFDA DUP10 DUP5 PUSH2 0x24B4 JUMP JUMPDEST PUSH2 0xFE6 SWAP1 PUSH2 0x3E5 PUSH2 0x25B0 JUMP JUMPDEST PUSH2 0xFF0 SWAP2 SWAP1 PUSH2 0x25B0 JUMP JUMPDEST DUP6 DUP8 DUP11 PUSH2 0xFFF DUP8 PUSH2 0x3E8 PUSH2 0x25B0 JUMP JUMPDEST PUSH2 0x1009 SWAP2 SWAP1 PUSH2 0x25B0 JUMP JUMPDEST PUSH2 0x1013 SWAP2 SWAP1 PUSH2 0x25B0 JUMP JUMPDEST PUSH2 0x101D SWAP2 SWAP1 PUSH2 0x25B0 JUMP JUMPDEST PUSH2 0x1027 SWAP2 SWAP1 PUSH2 0x25C7 JUMP JUMPDEST SWAP1 POP PUSH2 0x1032 DUP11 PUSH2 0x1D69 JUMP JUMPDEST PUSH2 0x103C SWAP1 DUP3 PUSH2 0x25C7 JUMP JUMPDEST PUSH2 0x1047 SWAP1 PUSH1 0x1 PUSH2 0x24DB JUMP JUMPDEST SWAP7 POP POP POP POP POP POP POP PUSH2 0xAB8 JUMP JUMPDEST PUSH0 DUP5 PUSH2 0x1060 DUP10 DUP6 PUSH2 0x24B4 JUMP JUMPDEST PUSH2 0x106C SWAP1 PUSH2 0x3E5 PUSH2 0x25B0 JUMP JUMPDEST PUSH2 0x1076 SWAP2 SWAP1 PUSH2 0x25B0 JUMP JUMPDEST DUP6 DUP8 DUP11 PUSH2 0xFFF DUP7 PUSH2 0x3E8 PUSH2 0x25B0 JUMP JUMPDEST PUSH0 DUP1 PUSH2 0x1090 DUP6 PUSH2 0x1D69 JUMP JUMPDEST SWAP1 POP PUSH0 PUSH2 0x109C DUP5 PUSH2 0x1D69 JUMP JUMPDEST SWAP1 POP DUP4 PUSH1 0x1 PUSH1 0x1 PUSH1 0xA0 SHL SUB AND DUP7 PUSH1 0x1 PUSH1 0x1 PUSH1 0xA0 SHL SUB AND SUB PUSH2 0x10CF JUMPI PUSH1 0x40 MLOAD PUSH3 0x461BCD PUSH1 0xE5 SHL DUP2 MSTORE PUSH1 0x4 ADD PUSH2 0x2A9 SWAP1 PUSH2 0x25FD JUMP JUMPDEST PUSH1 0x1 PUSH1 0x1 PUSH1 0xA0 SHL SUB DUP7 AND ISZERO DUP1 ISZERO SWAP1 PUSH2 0x10EF JUMPI POP PUSH1 0x1 PUSH1 0x1 PUSH1 0xA0 SHL SUB DUP5 AND ISZERO ISZERO JUMPDEST PUSH2 0x110B JUMPI PUSH1 0x40 MLOAD PUSH3 0x461BCD PUSH1 0xE5 SHL DUP2 MSTORE PUSH1 0x4 ADD PUSH2 0x2A9 SWAP1 PUSH2 0x262A JUMP JUMPDEST PUSH2 0x1115 DUP7 DUP6 PUSH2 0xABF JUMP JUMPDEST PUSH2 0x1131 JUMPI PUSH1 0x40 MLOAD PUSH3 0x461BCD PUSH1 0xE5 SHL DUP2 MSTORE PUSH1 0x4 ADD PUSH2 0x2A9 SWAP1 PUSH2 0x2650 JUMP JUMPDEST PUSH1 0x1 PUSH1 0x1 PUSH1 0xA0 SHL SUB DUP1 DUP8 AND PUSH0 SWAP1 DUP2 MSTORE PUSH1 0x2 PUSH1 0x20 SWAP1 DUP2 MSTORE PUSH1 0x40 DUP1 DUP4 KECCAK256 DUP9 DUP6 AND DUP5 MSTORE SWAP1 SWAP2 MSTORE DUP1 DUP3 KECCAK256 SLOAD DUP2 MLOAD PUSH4 0x240BC6B PUSH1 0xE2 SHL DUP2 MSTORE SWAP2 MLOAD SWAP4 AND SWAP3 DUP3 SWAP2 DUP5 SWAP2 PUSH4 0x902F1AC SWAP2 PUSH1 0x4 DUP1 DUP3 ADD SWAP3 PUSH1 0x60 SWAP3 SWAP1 SWAP2 SWAP1 DUP3 SWAP1 SUB ADD DUP2 DUP7 GAS STATICCALL ISZERO DUP1 ISZERO PUSH2 0x1196 JUMPI RETURNDATASIZE PUSH0 DUP1 RETURNDATACOPY RETURNDATASIZE PUSH0 REVERT JUMPDEST POP POP POP POP PUSH1 0x40 MLOAD RETURNDATASIZE PUSH1 0x1F NOT PUSH1 0x1F DUP3 ADD AND DUP3 ADD DUP1 PUSH1 0x40 MSTORE POP DUP2 ADD SWAP1 PUSH2 0x11BA SWAP2 SWAP1 PUSH2 0x267D JUMP JUMPDEST POP SWAP1 SWAP3 POP SWAP1 POP PUSH0 DUP5 DUP7 PUSH2 0x11CD DUP5 DUP7 PUSH2 0x25B0 JUMP JUMPDEST PUSH2 0x11D7 SWAP2 SWAP1 PUSH2 0x25B0 JUMP JUMPDEST PUSH2 0x11E1 SWAP2 SWAP1 PUSH2 0x25B0 JUMP JUMPDEST SWAP1 POP DUP4 PUSH1 0x1 PUSH1 0x1 PUSH1 0xA0 SHL SUB AND PUSH4 0xDFE1681 PUSH1 0x40 MLOAD DUP2 PUSH4 0xFFFFFFFF AND PUSH1 0xE0 SHL DUP2 MSTORE PUSH1 0x4 ADD PUSH1 0x20 PUSH1 0x40 MLOAD DUP1 DUP4 SUB DUP2 DUP7 GAS STATICCALL ISZERO DUP1 ISZERO PUSH2 0x121F JUMPI RETURNDATASIZE PUSH0 DUP1 RETURNDATACOPY RETURNDATASIZE PUSH0 REVERT JUMPDEST POP POP POP POP PUSH1 0x40 MLOAD RETURNDATASIZE PUSH1 0x1F NOT PUSH1 0x1F DUP3 ADD AND DUP3 ADD DUP1 PUSH1 0x40 MSTORE POP DUP2 ADD SWAP1 PUSH2 0x1243 SWAP2 SWAP1 PUSH2 0x26A8 JUMP JUMPDEST PUSH1 0x1 PUSH1 0x1 PUSH1 0xA0 SHL SUB AND DUP11 PUSH1 0x1 PUSH1 0x1 PUSH1 0xA0 SHL SUB AND SUB PUSH2 0x12E5 JUMPI PUSH0 DUP7 PUSH1 0xA PUSH1 0x64 PUSH2 0x126D DUP14 PUSH2 0x3E5 PUSH2 0x25B0 JUMP JUMPDEST PUSH2 0x1277 SWAP2 SWAP1 PUSH2 0x25C7 JUMP JUMPDEST PUSH2 0x1282 DUP8 PUSH1 0xA PUSH2 0x25B0 JUMP JUMPDEST PUSH2 0x128C SWAP2 SWAP1 PUSH2 0x24DB JUMP JUMPDEST PUSH2 0x1296 SWAP2 SWAP1 PUSH2 0x25C7 JUMP JUMPDEST PUSH2 0x12A0 SWAP2 SWAP1 PUSH2 0x25B0 JUMP JUMPDEST SWAP1 POP PUSH0 PUSH2 0x12AD DUP3 DUP5 PUSH2 0x25C7 JUMP JUMPDEST PUSH2 0x12B7 DUP9 DUP7 PUSH2 0x25B0 JUMP JUMPDEST PUSH2 0x12C1 SWAP2 SWAP1 PUSH2 0x24B4 JUMP JUMPDEST SWAP1 POP PUSH2 0x12CC DUP11 PUSH2 0x1D69 JUMP JUMPDEST PUSH2 0x12D6 SWAP1 DUP3 PUSH2 0x25C7 JUMP JUMPDEST SWAP9 POP POP POP POP POP POP POP POP POP PUSH2 0xAB8 JUMP JUMPDEST PUSH0 DUP7 PUSH1 0xA PUSH1 0x64 PUSH2 0x12F7 DUP14 PUSH2 0x3E5 PUSH2 0x25B0 JUMP JUMPDEST PUSH2 0x1301 SWAP2 SWAP1 PUSH2 0x25C7 JUMP JUMPDEST PUSH2 0x130C DUP7 PUSH1 0xA PUSH2 0x25B0 JUMP JUMPDEST PUSH2 0x1316 SWAP2 SWAP1 PUSH2 0x24DB JUMP JUMPDEST PUSH2 0x1320 SWAP2 SWAP1 PUSH2 0x25C7 JUMP JUMPDEST PUSH2 0x132A SWAP2 SWAP1 PUSH2 0x25B0 JUMP JUMPDEST SWAP1 POP PUSH0 PUSH2 0x1337 DUP3 DUP5 PUSH2 0x25C7 JUMP JUMPDEST PUSH2 0x12B7 DUP9 DUP8 PUSH2 0x25B0 JUMP JUMPDEST PUSH1 0x60 PUSH0 SLOAD PUSH1 0x1 EQ PUSH2 0x1364 JUMPI PUSH1 0x40 MLOAD PUSH3 0x461BCD PUSH1 0xE5 SHL DUP2 MSTORE PUSH1 0x4 ADD PUSH2 0x2A9 SWAP1 PUSH2 0x24EE JUMP JUMPDEST PUSH0 DUP1 DUP1 SSTORE CALLER SWAP1 PUSH1 0x1 PUSH1 0x1 PUSH1 0xA0 SHL SUB DUP1 DUP8 AND SWAP1 DUP9 AND SUB PUSH2 0x1395 JUMPI PUSH1 0x40 MLOAD PUSH3 0x461BCD PUSH1 0xE5 SHL DUP2 MSTORE PUSH1 0x4 ADD PUSH2 0x2A9 SWAP1 PUSH2 0x25FD JUMP JUMPDEST PUSH0 PUSH1 0x1 PUSH1 0x1 PUSH1 0xA0 SHL SUB DUP9 AND ISZERO DUP1 ISZERO SWAP1 PUSH2 0x13B6 JUMPI POP PUSH1 0x1 PUSH1 0x1 PUSH1 0xA0 SHL SUB DUP8 AND ISZERO ISZERO JUMPDEST PUSH2 0x13D2 JUMPI PUSH1 0x40 MLOAD PUSH3 0x461BCD PUSH1 0xE5 SHL DUP2 MSTORE PUSH1 0x4 ADD PUSH2 0x2A9 SWAP1 PUSH2 0x262A JUMP JUMPDEST PUSH2 0x13DC DUP9 DUP9 PUSH2 0xABF JUMP JUMPDEST PUSH2 0x13F1 JUMPI PUSH2 0x13EA DUP9 DUP9 PUSH2 0x1DEE JUMP JUMPDEST SWAP1 POP PUSH2 0x1484 JUMP JUMPDEST POP PUSH1 0x1 PUSH1 0x1 PUSH1 0xA0 SHL SUB DUP1 DUP9 AND PUSH0 SWAP1 DUP2 MSTORE PUSH1 0x2 PUSH1 0x20 SWAP1 DUP2 MSTORE PUSH1 0x40 DUP1 DUP4 KECCAK256 DUP11 DUP6 AND DUP5 MSTORE SWAP1 SWAP2 MSTORE SWAP1 KECCAK256 SLOAD AND PUSH2 0x1423 DUP9 DUP9 PUSH2 0x1BA2 JUMP JUMPDEST SWAP2 POP PUSH0 PUSH2 0x1431 DUP8 DUP11 DUP11 PUSH2 0xA66 JUMP JUMPDEST SWAP1 POP DUP6 DUP2 EQ PUSH2 0x1482 JUMPI PUSH1 0x40 MLOAD PUSH3 0x461BCD PUSH1 0xE5 SHL DUP2 MSTORE PUSH1 0x20 PUSH1 0x4 DUP3 ADD MSTORE PUSH1 0x1A PUSH1 0x24 DUP3 ADD MSTORE PUSH32 0x6C6971756964697479206D75737420626520696E20726174696F000000000000 PUSH1 0x44 DUP3 ADD MSTORE PUSH1 0x64 ADD PUSH2 0x2A9 JUMP JUMPDEST POP JUMPDEST PUSH1 0x40 MLOAD PUSH4 0x70A08231 PUSH1 0xE0 SHL DUP2 MSTORE PUSH1 0x1 PUSH1 0x1 PUSH1 0xA0 SHL SUB DUP5 DUP2 AND PUSH1 0x4 DUP4 ADD MSTORE DUP8 SWAP2 SWAP1 DUP11 AND SWAP1 PUSH4 0x70A08231 SWAP1 PUSH1 0x24 ADD PUSH1 0x20 PUSH1 0x40 MLOAD DUP1 DUP4 SUB DUP2 DUP7 GAS STATICCALL ISZERO DUP1 ISZERO PUSH2 0x14CB JUMPI RETURNDATASIZE PUSH0 DUP1 RETURNDATACOPY RETURNDATASIZE PUSH0 REVERT JUMPDEST POP POP POP POP PUSH1 0x40 MLOAD RETURNDATASIZE PUSH1 0x1F NOT PUSH1 0x1F DUP3 ADD AND DUP3 ADD DUP1 PUSH1 0x40 MSTORE POP DUP2 ADD SWAP1 PUSH2 0x14EF SWAP2 SWAP1 PUSH2 0x25E6 JUMP JUMPDEST LT ISZERO DUP1 ISZERO PUSH2 0x1566 JUMPI POP PUSH1 0x40 MLOAD PUSH4 0x70A08231 PUSH1 0xE0 SHL DUP2 MSTORE PUSH1 0x1 PUSH1 0x1 PUSH1 0xA0 SHL SUB DUP5 DUP2 AND PUSH1 0x4 DUP4 ADD MSTORE DUP7 SWAP2 SWAP1 DUP10 AND SWAP1 PUSH4 0x70A08231 SWAP1 PUSH1 0x24 ADD PUSH1 0x20 PUSH1 0x40 MLOAD DUP1 DUP4 SUB DUP2 DUP7 GAS STATICCALL ISZERO DUP1 ISZERO PUSH2 0x153F JUMPI RETURNDATASIZE PUSH0 DUP1 RETURNDATACOPY RETURNDATASIZE PUSH0 REVERT JUMPDEST POP POP POP POP PUSH1 0x40 MLOAD RETURNDATASIZE PUSH1 0x1F NOT PUSH1 0x1F DUP3 ADD AND DUP3 ADD DUP1 PUSH1 0x40 MSTORE POP DUP2 ADD SWAP1 PUSH2 0x1563 SWAP2 SWAP1 PUSH2 0x25E6 JUMP JUMPDEST LT ISZERO JUMPDEST PUSH2 0x15A7 JUMPI PUSH1 0x40 MLOAD PUSH3 0x461BCD PUSH1 0xE5 SHL DUP2 MSTORE PUSH1 0x20 PUSH1 0x4 DUP3 ADD MSTORE PUSH1 0x12 PUSH1 0x24 DUP3 ADD MSTORE PUSH18 0x6E6F7420656E6F7567682062616C616E6365 PUSH1 0x70 SHL PUSH1 0x44 DUP3 ADD MSTORE PUSH1 0x64 ADD PUSH2 0x2A9 JUMP JUMPDEST PUSH1 0x40 MLOAD PUSH4 0x23B872DD PUSH1 0xE0 SHL DUP2 MSTORE PUSH1 0x1 PUSH1 0x1 PUSH1 0xA0 SHL SUB DUP10 AND SWAP1 PUSH4 0x23B872DD SWAP1 PUSH2 0x15D7 SWAP1 DUP7 SWAP1 DUP6 SWAP1 DUP12 SWAP1 PUSH1 0x4 ADD PUSH2 0x2513 JUMP JUMPDEST PUSH1 0x20 PUSH1 0x40 MLOAD DUP1 DUP4 SUB DUP2 PUSH0 DUP8 GAS CALL ISZERO DUP1 ISZERO PUSH2 0x15F3 JUMPI RETURNDATASIZE PUSH0 DUP1 RETURNDATACOPY RETURNDATASIZE PUSH0 REVERT JUMPDEST POP POP POP POP PUSH1 0x40 MLOAD RETURNDATASIZE PUSH1 0x1F NOT PUSH1 0x1F DUP3 ADD AND DUP3 ADD DUP1 PUSH1 0x40 MSTORE POP DUP2 ADD SWAP1 PUSH2 0x1617 SWAP2 SWAP1 PUSH2 0x2537 JUMP JUMPDEST POP PUSH1 0x40 MLOAD PUSH4 0x23B872DD PUSH1 0xE0 SHL DUP2 MSTORE PUSH1 0x1 PUSH1 0x1 PUSH1 0xA0 SHL SUB DUP9 AND SWAP1 PUSH4 0x23B872DD SWAP1 PUSH2 0x1648 SWAP1 DUP7 SWAP1 DUP6 SWAP1 DUP11 SWAP1 PUSH1 0x4 ADD PUSH2 0x2513 JUMP JUMPDEST PUSH1 0x20 PUSH1 0x40 MLOAD DUP1 DUP4 SUB DUP2 PUSH0 DUP8 GAS CALL ISZERO DUP1 ISZERO PUSH2 0x1664 JUMPI RETURNDATASIZE PUSH0 DUP1 RETURNDATACOPY RETURNDATASIZE PUSH0 REVERT JUMPDEST POP POP POP POP PUSH1 0x40 MLOAD RETURNDATASIZE PUSH1 0x1F NOT PUSH1 0x1F DUP3 ADD AND DUP3 ADD DUP1 PUSH1 0x40 MSTORE POP DUP2 ADD SWAP1 PUSH2 0x1688 SWAP2 SWAP1 PUSH2 0x2537 JUMP JUMPDEST POP PUSH1 0x40 MLOAD PUSH4 0x8DBDBE6D PUSH1 0xE0 SHL DUP2 MSTORE PUSH1 0x4 DUP2 ADD DUP8 SWAP1 MSTORE PUSH1 0x24 DUP2 ADD DUP7 SWAP1 MSTORE PUSH1 0x1 PUSH1 0x1 PUSH1 0xA0 SHL SUB DUP5 DUP2 AND PUSH1 0x44 DUP4 ADD MSTORE DUP3 AND SWAP1 PUSH4 0x8DBDBE6D SWAP1 PUSH1 0x64 ADD PUSH0 PUSH1 0x40 MLOAD DUP1 DUP4 SUB DUP2 PUSH0 DUP8 DUP1 EXTCODESIZE ISZERO DUP1 ISZERO PUSH2 0x16D7 JUMPI PUSH0 DUP1 REVERT JUMPDEST POP GAS CALL ISZERO DUP1 ISZERO PUSH2 0x16E9 JUMPI RETURNDATASIZE PUSH0 DUP1 RETURNDATACOPY RETURNDATASIZE PUSH0 REVERT JUMPDEST POP POP PUSH1 0x40 MLOAD PUSH4 0x3D54A43 PUSH1 0xE1 SHL DUP2 MSTORE PUSH1 0x1 PUSH1 0x1 PUSH1 0xA0 SHL SUB DUP5 AND SWAP3 POP PUSH4 0x7AA9486 SWAP2 POP PUSH2 0x171D SWAP1 DUP12 SWAP1 DUP11 SWAP1 DUP11 SWAP1 PUSH1 0x4 ADD PUSH2 0x2556 JUMP JUMPDEST PUSH0 PUSH1 0x40 MLOAD DUP1 DUP4 SUB DUP2 PUSH0 DUP8 DUP1 EXTCODESIZE ISZERO DUP1 ISZERO PUSH2 0x1734 JUMPI PUSH0 DUP1 REVERT JUMPDEST POP GAS CALL ISZERO DUP1 ISZERO PUSH2 0x1746 JUMPI RETURNDATASIZE PUSH0 DUP1 RETURNDATACOPY RETURNDATASIZE PUSH0 REVERT JUMPDEST POP POP POP POP PUSH32 0x1F08CDBFD8645BF6B89FC4886FE2FB86DBB812265A6D7F18011F8CB985CD1CA1 DUP2 DUP10 DUP10 DUP10 DUP10 TIMESTAMP PUSH1 0x40 MLOAD PUSH2 0x1783 SWAP7 SWAP6 SWAP5 SWAP4 SWAP3 SWAP2 SWAP1 PUSH2 0x2577 JUMP JUMPDEST PUSH1 0x40 MLOAD DUP1 SWAP2 SUB SWAP1 LOG1 POP POP PUSH1 0x40 DUP1 MLOAD DUP1 DUP3 ADD SWAP1 SWAP2 MSTORE PUSH1 0xF DUP2 MSTORE PUSH15 0x1B1A5C5D5A591A5D1E481859191959 PUSH1 0x8A SHL PUSH1 0x20 DUP3 ADD MSTORE PUSH1 0x1 PUSH0 SSTORE SWAP7 SWAP6 POP POP POP POP POP POP JUMP JUMPDEST PUSH1 0x60 PUSH0 SLOAD PUSH1 0x1 EQ PUSH2 0x17E4 JUMPI PUSH1 0x40 MLOAD PUSH3 0x461BCD PUSH1 0xE5 SHL DUP2 MSTORE PUSH1 0x4 ADD PUSH2 0x2A9 SWAP1 PUSH2 0x24EE JUMP JUMPDEST PUSH0 DUP1 DUP1 SSTORE PUSH1 0x1 PUSH1 0x1 PUSH1 0xA0 SHL SUB DUP6 DUP2 AND DUP3 MSTORE PUSH1 0x2 PUSH1 0x20 SWAP1 DUP2 MSTORE PUSH1 0x40 DUP1 DUP5 KECCAK256 DUP8 DUP5 AND DUP6 MSTORE SWAP1 SWAP2 MSTORE SWAP1 SWAP2 KECCAK256 SLOAD CALLER SWAP2 AND PUSH2 0x182C JUMPI PUSH1 0x40 MLOAD PUSH3 0x461BCD PUSH1 0xE5 SHL DUP2 MSTORE PUSH1 0x4 ADD PUSH2 0x2A9 SWAP1 PUSH2 0x2650 JUMP JUMPDEST PUSH0 DUP1 PUSH2 0x1838 DUP8 DUP8 PUSH2 0x1F9B JUMP JUMPDEST PUSH1 0x1 PUSH1 0x1 PUSH1 0xA0 SHL SUB DUP3 DUP2 AND PUSH0 SWAP1 DUP2 MSTORE PUSH1 0x2 PUSH1 0x20 SWAP1 DUP2 MSTORE PUSH1 0x40 DUP1 DUP4 KECCAK256 DUP6 DUP6 AND DUP5 MSTORE SWAP1 SWAP2 MSTORE SWAP1 DUP2 SWAP1 KECCAK256 SLOAD SWAP1 MLOAD PUSH4 0x70A08231 PUSH1 0xE0 SHL DUP2 MSTORE DUP8 DUP4 AND PUSH1 0x4 DUP3 ADD MSTORE SWAP4 SWAP6 POP SWAP2 SWAP4 POP AND SWAP1 DUP7 SWAP1 DUP3 SWAP1 PUSH4 0x70A08231 SWAP1 PUSH1 0x24 ADD PUSH1 0x20 PUSH1 0x40 MLOAD DUP1 DUP4 SUB DUP2 DUP7 GAS STATICCALL ISZERO DUP1 ISZERO PUSH2 0x18A4 JUMPI RETURNDATASIZE PUSH0 DUP1 RETURNDATACOPY RETURNDATASIZE PUSH0 REVERT JUMPDEST POP POP POP POP PUSH1 0x40 MLOAD RETURNDATASIZE PUSH1 0x1F NOT PUSH1 0x1F DUP3 ADD AND DUP3 ADD DUP1 PUSH1 0x40 MSTORE POP DUP2 ADD SWAP1 PUSH2 0x18C8 SWAP2 SWAP1 PUSH2 0x25E6 JUMP JUMPDEST LT ISZERO PUSH2 0x1916 JUMPI PUSH1 0x40 MLOAD PUSH3 0x461BCD PUSH1 0xE5 SHL DUP2 MSTORE PUSH1 0x20 PUSH1 0x4 DUP3 ADD MSTORE PUSH1 0x19 PUSH1 0x24 DUP3 ADD MSTORE PUSH32 0x6E6F74206861766520656E6F756768206C697175696469747900000000000000 PUSH1 0x44 DUP3 ADD MSTORE PUSH1 0x64 ADD PUSH2 0x2A9 JUMP JUMPDEST PUSH1 0x40 MLOAD PUSH3 0x7B8A67 PUSH1 0xE1 SHL DUP2 MSTORE PUSH1 0x4 DUP2 ADD DUP8 SWAP1 MSTORE PUSH1 0x1 PUSH1 0x1 PUSH1 0xA0 SHL SUB DUP6 DUP2 AND PUSH1 0x24 DUP4 ADD MSTORE PUSH0 SWAP2 DUP3 SWAP2 DUP5 AND SWAP1 PUSH3 0xF714CE SWAP1 PUSH1 0x44 ADD PUSH1 0x40 DUP1 MLOAD DUP1 DUP4 SUB DUP2 PUSH0 DUP8 GAS CALL ISZERO DUP1 ISZERO PUSH2 0x1963 JUMPI RETURNDATASIZE PUSH0 DUP1 RETURNDATACOPY RETURNDATASIZE PUSH0 REVERT JUMPDEST POP POP POP POP PUSH1 0x40 MLOAD RETURNDATASIZE PUSH1 0x1F NOT PUSH1 0x1F DUP3 ADD AND DUP3 ADD DUP1 PUSH1 0x40 MSTORE POP DUP2 ADD SWAP1 PUSH2 0x1987 SWAP2 SWAP1 PUSH2 0x26C3 JUMP JUMPDEST PUSH1 0x40 MLOAD PUSH4 0x14F6AFD PUSH1 0xE6 SHL DUP2 MSTORE SWAP2 SWAP4 POP SWAP2 POP PUSH1 0x1 PUSH1 0x1 PUSH1 0xA0 SHL SUB DUP5 AND SWAP1 PUSH4 0x53DABF40 SWAP1 PUSH2 0x19BC SWAP1 DUP9 SWAP1 DUP7 SWAP1 DUP7 SWAP1 PUSH1 0x4 ADD PUSH2 0x2556 JUMP JUMPDEST PUSH0 PUSH1 0x40 MLOAD DUP1 DUP4 SUB DUP2 PUSH0 DUP8 DUP1 EXTCODESIZE ISZERO DUP1 ISZERO PUSH2 0x19D3 JUMPI PUSH0 DUP1 REVERT JUMPDEST POP GAS CALL ISZERO DUP1 ISZERO PUSH2 0x19E5 JUMPI RETURNDATASIZE PUSH0 DUP1 RETURNDATACOPY RETURNDATASIZE PUSH0 REVERT JUMPDEST POP POP PUSH1 0x40 MLOAD PUSH4 0x22817769 PUSH1 0xE0 SHL DUP2 MSTORE PUSH1 0x4 DUP2 ADD DUP6 SWAP1 MSTORE PUSH1 0x24 DUP2 ADD DUP5 SWAP1 MSTORE PUSH1 0x1 PUSH1 0x1 PUSH1 0xA0 SHL SUB DUP7 AND SWAP3 POP PUSH4 0x22817769 SWAP2 POP PUSH1 0x44 ADD PUSH0 PUSH1 0x40 MLOAD DUP1 DUP4 SUB DUP2 PUSH0 DUP8 DUP1 EXTCODESIZE ISZERO DUP1 ISZERO PUSH2 0x1A2F JUMPI PUSH0 DUP1 REVERT JUMPDEST POP GAS CALL ISZERO DUP1 ISZERO PUSH2 0x1A41 JUMPI RETURNDATASIZE PUSH0 DUP1 RETURNDATACOPY RETURNDATASIZE PUSH0 REVERT JUMPDEST POP POP PUSH1 0x40 MLOAD PUSH4 0x23B872DD PUSH1 0xE0 SHL DUP2 MSTORE PUSH1 0x1 PUSH1 0x1 PUSH1 0xA0 SHL SUB DUP9 AND SWAP3 POP PUSH4 0x23B872DD SWAP2 POP PUSH2 0x1A75 SWAP1 DUP7 SWAP1 DUP11 SWAP1 DUP8 SWAP1 PUSH1 0x4 ADD PUSH2 0x2513 JUMP JUMPDEST PUSH1 0x20 PUSH1 0x40 MLOAD DUP1 DUP4 SUB DUP2 PUSH0 DUP8 GAS CALL ISZERO DUP1 ISZERO PUSH2 0x1A91 JUMPI RETURNDATASIZE PUSH0 DUP1 RETURNDATACOPY RETURNDATASIZE PUSH0 REVERT JUMPDEST POP POP POP POP PUSH1 0x40 MLOAD RETURNDATASIZE PUSH1 0x1F NOT PUSH1 0x1F DUP3 ADD AND DUP3 ADD DUP1 PUSH1 0x40 MSTORE POP DUP2 ADD SWAP1 PUSH2 0x1AB5 SWAP2 SWAP1 PUSH2 0x2537 JUMP JUMPDEST POP PUSH1 0x40 MLOAD PUSH4 0x23B872DD PUSH1 0xE0 SHL DUP2 MSTORE PUSH1 0x1 PUSH1 0x1 PUSH1 0xA0 SHL SUB DUP6 AND SWAP1 PUSH4 0x23B872DD SWAP1 PUSH2 0x1AE6 SWAP1 DUP7 SWAP1 DUP11 SWAP1 DUP7 SWAP1 PUSH1 0x4 ADD PUSH2 0x2513 JUMP JUMPDEST PUSH1 0x20 PUSH1 0x40 MLOAD DUP1 DUP4 SUB DUP2 PUSH0 DUP8 GAS CALL ISZERO DUP1 ISZERO PUSH2 0x1B02 JUMPI RETURNDATASIZE PUSH0 DUP1 RETURNDATACOPY RETURNDATASIZE PUSH0 REVERT JUMPDEST POP POP POP POP PUSH1 0x40 MLOAD RETURNDATASIZE PUSH1 0x1F NOT PUSH1 0x1F DUP3 ADD AND DUP3 ADD DUP1 PUSH1 0x40 MSTORE POP DUP2 ADD SWAP1 PUSH2 0x1B26 SWAP2 SWAP1 PUSH2 0x2537 JUMP JUMPDEST POP PUSH32 0x55FAB9F083FDEAAAB9CA472E055ED8B03735B374F1DE44CE5FD8C954C827C68A DUP4 DUP7 DUP7 DUP6 DUP6 TIMESTAMP PUSH1 0x40 MLOAD PUSH2 0x1B60 SWAP7 SWAP6 SWAP5 SWAP4 SWAP3 SWAP2 SWAP1 PUSH2 0x2577 JUMP JUMPDEST PUSH1 0x40 MLOAD DUP1 SWAP2 SUB SWAP1 LOG1 POP POP PUSH1 0x40 DUP1 MLOAD DUP1 DUP3 ADD SWAP1 SWAP2 MSTORE PUSH1 0x11 DUP2 MSTORE PUSH17 0x72656D6F766564206C6971756964697479 PUSH1 0x78 SHL PUSH1 0x20 DUP3 ADD MSTORE PUSH1 0x1 PUSH0 SSTORE SWAP9 SWAP8 POP POP POP POP POP POP POP POP JUMP JUMPDEST PUSH0 PUSH2 0x1BAD DUP4 DUP4 PUSH2 0xABF JUMP JUMPDEST PUSH2 0x1BEF JUMPI PUSH1 0x40 MLOAD PUSH3 0x461BCD PUSH1 0xE5 SHL DUP2 MSTORE PUSH1 0x20 PUSH1 0x4 DUP3 ADD MSTORE PUSH1 0x13 PUSH1 0x24 DUP3 ADD MSTORE PUSH19 0x1C1BDBDB08191BD95CC81B9BDD08195E1A5CDD PUSH1 0x6A SHL PUSH1 0x44 DUP3 ADD MSTORE PUSH1 0x64 ADD PUSH2 0x2A9 JUMP JUMPDEST PUSH1 0x1 PUSH1 0x1 PUSH1 0xA0 SHL SUB DUP1 DUP5 AND PUSH0 SWAP1 DUP2 MSTORE PUSH1 0x2 PUSH1 0x20 SWAP1 DUP2 MSTORE PUSH1 0x40 DUP1 DUP4 KECCAK256 DUP7 DUP6 AND DUP5 MSTORE SWAP1 SWAP2 MSTORE DUP1 DUP3 KECCAK256 SLOAD DUP2 MLOAD PUSH4 0x240BC6B PUSH1 0xE2 SHL DUP2 MSTORE SWAP2 MLOAD SWAP4 AND SWAP3 DUP3 SWAP2 DUP5 SWAP2 PUSH4 0x902F1AC SWAP2 PUSH1 0x4 DUP1 DUP3 ADD SWAP3 PUSH1 0x60 SWAP3 SWAP1 SWAP2 SWAP1 DUP3 SWAP1 SUB ADD DUP2 DUP7 GAS STATICCALL ISZERO DUP1 ISZERO PUSH2 0x1C54 JUMPI RETURNDATASIZE PUSH0 DUP1 RETURNDATACOPY RETURNDATASIZE PUSH0 REVERT JUMPDEST POP POP POP POP PUSH1 0x40 MLOAD RETURNDATASIZE PUSH1 0x1F NOT PUSH1 0x1F DUP3 ADD AND DUP3 ADD DUP1 PUSH1 0x40 MSTORE POP DUP2 ADD SWAP1 PUSH2 0x1C78 SWAP2 SWAP1 PUSH2 0x267D JUMP JUMPDEST POP SWAP2 POP SWAP2 POP DUP6 PUSH1 0x1 PUSH1 0x1 PUSH1 0xA0 SHL SUB AND DUP4 PUSH1 0x1 PUSH1 0x1 PUSH1 0xA0 SHL SUB AND PUSH4 0xDFE1681 PUSH1 0x40 MLOAD DUP2 PUSH4 0xFFFFFFFF AND PUSH1 0xE0 SHL DUP2 MSTORE PUSH1 0x4 ADD PUSH1 0x20 PUSH1 0x40 MLOAD DUP1 DUP4 SUB DUP2 DUP7 GAS STATICCALL ISZERO DUP1 ISZERO PUSH2 0x1CC3 JUMPI RETURNDATASIZE PUSH0 DUP1 RETURNDATACOPY RETURNDATASIZE PUSH0 REVERT JUMPDEST POP POP POP POP PUSH1 0x40 MLOAD RETURNDATASIZE PUSH1 0x1F NOT PUSH1 0x1F DUP3 ADD AND DUP3 ADD DUP1 PUSH1 0x40 MSTORE POP DUP2 ADD SWAP1 PUSH2 0x1CE7 SWAP2 SWAP1 PUSH2 0x26A8 JUMP JUMPDEST PUSH1 0x1 PUSH1 0x1 PUSH1 0xA0 SHL SUB AND SUB PUSH2 0x1D42 JUMPI DUP1 PUSH2 0x1CFF DUP7 PUSH2 0x1D69 JUMP JUMPDEST PUSH2 0x1D09 SWAP2 SWAP1 PUSH2 0x25B0 JUMP JUMPDEST PUSH2 0x1D12 DUP8 PUSH2 0x1D69 JUMP JUMPDEST PUSH2 0x1D1C SWAP1 DUP5 PUSH2 0x25B0 JUMP JUMPDEST PUSH2 0x1D2E SWAP1 PUSH8 0xDE0B6B3A7640000 PUSH2 0x25B0 JUMP JUMPDEST PUSH2 0x1D38 SWAP2 SWAP1 PUSH2 0x25C7 JUMP JUMPDEST SWAP4 POP POP POP POP PUSH2 0x281 JUMP JUMPDEST DUP2 PUSH2 0x1D4C DUP7 PUSH2 0x1D69 JUMP JUMPDEST PUSH2 0x1D56 SWAP2 SWAP1 PUSH2 0x25B0 JUMP JUMPDEST PUSH2 0x1D5F DUP8 PUSH2 0x1D69 JUMP JUMPDEST PUSH2 0x1D1C SWAP1 DUP4 PUSH2 0x25B0 JUMP JUMPDEST PUSH0 DUP1 DUP3 PUSH1 0x1 PUSH1 0x1 PUSH1 0xA0 SHL SUB AND PUSH4 0x313CE567 PUSH1 0x40 MLOAD DUP2 PUSH4 0xFFFFFFFF AND PUSH1 0xE0 SHL DUP2 MSTORE PUSH1 0x4 ADD PUSH1 0x20 PUSH1 0x40 MLOAD DUP1 DUP4 SUB DUP2 DUP7 GAS STATICCALL ISZERO DUP1 ISZERO PUSH2 0x1DA7 JUMPI RETURNDATASIZE PUSH0 DUP1 RETURNDATACOPY RETURNDATASIZE PUSH0 REVERT JUMPDEST POP POP POP POP PUSH1 0x40 MLOAD RETURNDATASIZE PUSH1 0x1F NOT PUSH1 0x1F DUP3 ADD AND DUP3 ADD DUP1 PUSH1 0x40 MSTORE POP DUP2 ADD SWAP1 PUSH2 0x1DCB SWAP2 SWAP1 PUSH2 0x26E5 JUMP JUMPDEST SWAP1 POP PUSH0 PUSH2 0x1DD9 DUP3 PUSH1 0x12 PUSH2 0x2705 JUMP JUMPDEST SWAP1 POP PUSH2 0x1DE6 DUP2 PUSH1 0xA PUSH2 0x27FE JUMP JUMPDEST SWAP5 SWAP4 POP POP POP POP JUMP JUMPDEST PUSH0 PUSH1 0x1 PUSH1 0x1 PUSH1 0xA0 SHL SUB DUP4 AND ISZERO DUP1 ISZERO SWAP1 PUSH2 0x1E0F JUMPI POP PUSH1 0x1 PUSH1 0x1 PUSH1 0xA0 SHL SUB DUP3 AND ISZERO ISZERO JUMPDEST PUSH2 0x1E2B JUMPI PUSH1 0x40 MLOAD PUSH3 0x461BCD PUSH1 0xE5 SHL DUP2 MSTORE PUSH1 0x4 ADD PUSH2 0x2A9 SWAP1 PUSH2 0x262A JUMP JUMPDEST DUP2 PUSH1 0x1 PUSH1 0x1 PUSH1 0xA0 SHL SUB AND DUP4 PUSH1 0x1 PUSH1 0x1 PUSH1 0xA0 SHL SUB AND SUB PUSH2 0x1E5C JUMPI PUSH1 0x40 MLOAD PUSH3 0x461BCD PUSH1 0xE5 SHL DUP2 MSTORE PUSH1 0x4 ADD PUSH2 0x2A9 SWAP1 PUSH2 0x25FD JUMP JUMPDEST PUSH2 0x1E66 DUP4 DUP4 PUSH2 0xABF JUMP JUMPDEST ISZERO PUSH2 0x1EA1 JUMPI PUSH1 0x40 MLOAD PUSH3 0x461BCD PUSH1 0xE5 SHL DUP2 MSTORE PUSH1 0x20 PUSH1 0x4 DUP3 ADD MSTORE PUSH1 0xB PUSH1 0x24 DUP3 ADD MSTORE PUSH11 0x504149525F455849535453 PUSH1 0xA8 SHL PUSH1 0x44 DUP3 ADD MSTORE PUSH1 0x64 ADD PUSH2 0x2A9 JUMP JUMPDEST PUSH0 DUP1 PUSH2 0x1EAD DUP6 DUP6 PUSH2 0x1F9B JUMP JUMPDEST SWAP2 POP SWAP2 POP PUSH0 DUP1 PUSH2 0x1EBD DUP8 DUP8 PUSH2 0x1FCF JUMP JUMPDEST SWAP2 POP SWAP2 POP PUSH0 DUP5 DUP5 ADDRESS DUP6 DUP6 PUSH1 0x40 MLOAD PUSH2 0x1ED3 SWAP1 PUSH2 0x2175 JUMP JUMPDEST PUSH2 0x1EE1 SWAP6 SWAP5 SWAP4 SWAP3 SWAP2 SWAP1 PUSH2 0x280C JUMP JUMPDEST PUSH1 0x40 MLOAD DUP1 SWAP2 SUB SWAP1 PUSH0 CREATE DUP1 ISZERO DUP1 ISZERO PUSH2 0x1EFA JUMPI RETURNDATASIZE PUSH0 DUP1 RETURNDATACOPY RETURNDATASIZE PUSH0 REVERT JUMPDEST POP PUSH1 0x1 PUSH1 0x1 PUSH1 0xA0 SHL SUB DUP7 DUP2 AND PUSH0 DUP2 DUP2 MSTORE PUSH1 0x2 PUSH1 0x20 DUP2 DUP2 MSTORE PUSH1 0x40 DUP1 DUP5 KECCAK256 DUP12 DUP8 AND DUP1 DUP7 MSTORE SWAP1 DUP4 MSTORE DUP2 DUP6 KECCAK256 DUP1 SLOAD SWAP8 DUP10 AND PUSH1 0x1 PUSH1 0x1 PUSH1 0xA0 SHL SUB NOT SWAP9 DUP10 AND DUP2 OR SWAP1 SWAP2 SSTORE SWAP4 DUP4 MSTORE DUP2 DUP6 KECCAK256 DUP7 DUP7 MSTORE DUP4 MSTORE SWAP4 DUP2 SWAP1 KECCAK256 DUP1 SLOAD SWAP1 SWAP7 AND DUP4 OR SWAP1 SWAP6 SSTORE DUP5 MLOAD SWAP4 DUP5 MSTORE DUP4 ADD SWAP2 SWAP1 SWAP2 MSTORE DUP2 DUP4 ADD MSTORE SWAP1 MLOAD SWAP2 SWAP3 POP PUSH32 0xA92A2B95C8D8436F6AC4C673C61487364F877EFB9534D4296FAD8EF904546C94 SWAP2 SWAP1 DUP2 SWAP1 SUB PUSH1 0x60 ADD SWAP1 LOG1 SWAP8 SWAP7 POP POP POP POP POP POP POP JUMP JUMPDEST PUSH0 DUP1 PUSH0 DUP1 DUP5 PUSH1 0x1 PUSH1 0x1 PUSH1 0xA0 SHL SUB AND DUP7 PUSH1 0x1 PUSH1 0x1 PUSH1 0xA0 SHL SUB AND LT PUSH2 0x1FBF JUMPI DUP5 DUP7 PUSH2 0x1FC2 JUMP JUMPDEST DUP6 DUP6 JUMPDEST SWAP1 SWAP8 SWAP1 SWAP7 POP SWAP5 POP POP POP POP POP JUMP JUMPDEST PUSH1 0x60 DUP1 PUSH2 0x209E DUP5 PUSH1 0x1 PUSH1 0x1 PUSH1 0xA0 SHL SUB AND PUSH4 0x6FDDE03 PUSH1 0x40 MLOAD DUP2 PUSH4 0xFFFFFFFF AND PUSH1 0xE0 SHL DUP2 MSTORE PUSH1 0x4 ADD PUSH0 PUSH1 0x40 MLOAD DUP1 DUP4 SUB DUP2 DUP7 GAS STATICCALL ISZERO DUP1 ISZERO PUSH2 0x2010 JUMPI RETURNDATASIZE PUSH0 DUP1 RETURNDATACOPY RETURNDATASIZE PUSH0 REVERT JUMPDEST POP POP POP POP PUSH1 0x40 MLOAD RETURNDATASIZE PUSH0 DUP3 RETURNDATACOPY PUSH1 0x1F RETURNDATASIZE SWAP1 DUP2 ADD PUSH1 0x1F NOT AND DUP3 ADD PUSH1 0x40 MSTORE PUSH2 0x2037 SWAP2 SWAP1 DUP2 ADD SWAP1 PUSH2 0x285D JUMP JUMPDEST DUP5 PUSH1 0x1 PUSH1 0x1 PUSH1 0xA0 SHL SUB AND PUSH4 0x6FDDE03 PUSH1 0x40 MLOAD DUP2 PUSH4 0xFFFFFFFF AND PUSH1 0xE0 SHL DUP2 MSTORE PUSH1 0x4 ADD PUSH0 PUSH1 0x40 MLOAD DUP1 DUP4 SUB DUP2 DUP7 GAS STATICCALL ISZERO DUP1 ISZERO PUSH2 0x2072 JUMPI RETURNDATASIZE PUSH0 DUP1 RETURNDATACOPY RETURNDATASIZE PUSH0 REVERT JUMPDEST POP POP POP POP PUSH1 0x40 MLOAD RETURNDATASIZE PUSH0 DUP3 RETURNDATACOPY PUSH1 0x1F RETURNDATASIZE SWAP1 DUP2 ADD PUSH1 0x1F NOT AND DUP3 ADD PUSH1 0x40 MSTORE PUSH2 0x2099 SWAP2 SWAP1 DUP2 ADD SWAP1 PUSH2 0x285D JUMP JUMPDEST PUSH2 0x2149 JUMP JUMPDEST SWAP2 POP PUSH2 0x2140 DUP5 PUSH1 0x1 PUSH1 0x1 PUSH1 0xA0 SHL SUB AND PUSH4 0x95D89B41 PUSH1 0x40 MLOAD DUP2 PUSH4 0xFFFFFFFF AND PUSH1 0xE0 SHL DUP2 MSTORE PUSH1 0x4 ADD PUSH0 PUSH1 0x40 MLOAD DUP1 DUP4 SUB DUP2 DUP7 GAS STATICCALL ISZERO DUP1 ISZERO PUSH2 0x20DE JUMPI RETURNDATASIZE PUSH0 DUP1 RETURNDATACOPY RETURNDATASIZE PUSH0 REVERT JUMPDEST POP POP POP POP PUSH1 0x40 MLOAD RETURNDATASIZE PUSH0 DUP3 RETURNDATACOPY PUSH1 0x1F RETURNDATASIZE SWAP1 DUP2 ADD PUSH1 0x1F NOT AND DUP3 ADD PUSH1 0x40 MSTORE PUSH2 0x2105 SWAP2 SWAP1 DUP2 ADD SWAP1 PUSH2 0x285D JUMP JUMPDEST DUP5 PUSH1 0x1 PUSH1 0x1 PUSH1 0xA0 SHL SUB AND PUSH4 0x95D89B41 PUSH1 0x40 MLOAD DUP2 PUSH4 0xFFFFFFFF AND PUSH1 0xE0 SHL DUP2 MSTORE PUSH1 0x4 ADD PUSH0 PUSH1 0x40 MLOAD DUP1 DUP4 SUB DUP2 DUP7 GAS STATICCALL ISZERO DUP1 ISZERO PUSH2 0x2072 JUMPI RETURNDATASIZE PUSH0 DUP1 RETURNDATACOPY RETURNDATASIZE PUSH0 REVERT JUMPDEST SWAP1 POP SWAP3 POP SWAP3 SWAP1 POP JUMP JUMPDEST PUSH1 0x60 DUP3 DUP3 PUSH1 0x40 MLOAD PUSH1 0x20 ADD PUSH2 0x215E SWAP3 SWAP2 SWAP1 PUSH2 0x2903 JUMP JUMPDEST PUSH1 0x40 MLOAD PUSH1 0x20 DUP2 DUP4 SUB SUB DUP2 MSTORE SWAP1 PUSH1 0x40 MSTORE SWAP1 POP SWAP3 SWAP2 POP POP JUMP JUMPDEST PUSH2 0x15FD DUP1 PUSH2 0x292C DUP4 CODECOPY ADD SWAP1 JUMP JUMPDEST PUSH4 0x4E487B71 PUSH1 0xE0 SHL PUSH0 MSTORE PUSH1 0x41 PUSH1 0x4 MSTORE PUSH1 0x24 PUSH0 REVERT JUMPDEST PUSH1 0x40 MLOAD PUSH1 0x1F DUP3 ADD PUSH1 0x1F NOT AND DUP2 ADD PUSH8 0xFFFFFFFFFFFFFFFF DUP2 GT DUP3 DUP3 LT OR ISZERO PUSH2 0x21BF JUMPI PUSH2 0x21BF PUSH2 0x2182 JUMP JUMPDEST PUSH1 0x40 MSTORE SWAP2 SWAP1 POP JUMP JUMPDEST PUSH1 0x1 PUSH1 0x1 PUSH1 0xA0 SHL SUB DUP2 AND DUP2 EQ PUSH2 0x21DB JUMPI PUSH0 DUP1 REVERT JUMPDEST POP JUMP JUMPDEST PUSH0 DUP3 PUSH1 0x1F DUP4 ADD SLT PUSH2 0x21ED JUMPI PUSH0 DUP1 REVERT JUMPDEST DUP2 CALLDATALOAD PUSH1 0x20 PUSH8 0xFFFFFFFFFFFFFFFF DUP3 GT ISZERO PUSH2 0x2209 JUMPI PUSH2 0x2209 PUSH2 0x2182 JUMP JUMPDEST DUP2 PUSH1 0x5 SHL PUSH2 0x2218 DUP3 DUP3 ADD PUSH2 0x2196 JUMP JUMPDEST SWAP3 DUP4 MSTORE DUP5 DUP2 ADD DUP3 ADD SWAP3 DUP3 DUP2 ADD SWAP1 DUP8 DUP6 GT ISZERO PUSH2 0x2231 JUMPI PUSH0 DUP1 REVERT JUMPDEST DUP4 DUP8 ADD SWAP3 POP JUMPDEST DUP5 DUP4 LT ISZERO PUSH2 0x2259 JUMPI DUP3 CALLDATALOAD PUSH2 0x224A DUP2 PUSH2 0x21C7 JUMP JUMPDEST DUP3 MSTORE SWAP2 DUP4 ADD SWAP2 SWAP1 DUP4 ADD SWAP1 PUSH2 0x2237 JUMP JUMPDEST SWAP8 SWAP7 POP POP POP POP POP POP POP JUMP JUMPDEST PUSH0 DUP1 PUSH1 0x40 DUP4 DUP6 SUB SLT ISZERO PUSH2 0x2275 JUMPI PUSH0 DUP1 REVERT JUMPDEST DUP3 CALLDATALOAD PUSH8 0xFFFFFFFFFFFFFFFF DUP2 GT ISZERO PUSH2 0x228B JUMPI PUSH0 DUP1 REVERT JUMPDEST PUSH2 0x2297 DUP6 DUP3 DUP7 ADD PUSH2 0x21DE JUMP JUMPDEST SWAP6 PUSH1 0x20 SWAP5 SWAP1 SWAP5 ADD CALLDATALOAD SWAP5 POP POP POP POP JUMP JUMPDEST PUSH0 DUP1 PUSH0 PUSH1 0x60 DUP5 DUP7 SUB SLT ISZERO PUSH2 0x22B8 JUMPI PUSH0 DUP1 REVERT JUMPDEST DUP4 CALLDATALOAD PUSH8 0xFFFFFFFFFFFFFFFF DUP2 GT ISZERO PUSH2 0x22CE JUMPI PUSH0 DUP1 REVERT JUMPDEST PUSH2 0x22DA DUP7 DUP3 DUP8 ADD PUSH2 0x21DE JUMP JUMPDEST SWAP7 PUSH1 0x20 DUP7 ADD CALLDATALOAD SWAP7 POP PUSH1 0x40 SWAP1 SWAP6 ADD CALLDATALOAD SWAP5 SWAP4 POP POP POP POP JUMP JUMPDEST PUSH0 DUP1 PUSH0 PUSH1 0x60 DUP5 DUP7 SUB SLT ISZERO PUSH2 0x2302 JUMPI PUSH0 DUP1 REVERT JUMPDEST DUP4 CALLDATALOAD SWAP3 POP PUSH1 0x20 DUP5 ADD CALLDATALOAD PUSH2 0x2314 DUP2 PUSH2 0x21C7 JUMP JUMPDEST SWAP2 POP PUSH1 0x40 DUP5 ADD CALLDATALOAD PUSH2 0x2324 DUP2 PUSH2 0x21C7 JUMP JUMPDEST DUP1 SWAP2 POP POP SWAP3 POP SWAP3 POP SWAP3 JUMP JUMPDEST PUSH0 DUP1 PUSH1 0x40 DUP4 DUP6 SUB SLT ISZERO PUSH2 0x2340 JUMPI PUSH0 DUP1 REVERT JUMPDEST DUP3 CALLDATALOAD PUSH2 0x234B DUP2 PUSH2 0x21C7 JUMP JUMPDEST SWAP2 POP PUSH1 0x20 DUP4 ADD CALLDATALOAD PUSH2 0x235B DUP2 PUSH2 0x21C7 JUMP JUMPDEST DUP1 SWAP2 POP POP SWAP3 POP SWAP3 SWAP1 POP JUMP JUMPDEST PUSH0 DUP1 PUSH0 DUP1 PUSH1 0x80 DUP6 DUP8 SUB SLT ISZERO PUSH2 0x2379 JUMPI PUSH0 DUP1 REVERT JUMPDEST DUP5 CALLDATALOAD SWAP4 POP PUSH1 0x20 DUP6 ADD CALLDATALOAD PUSH2 0x238B DUP2 PUSH2 0x21C7 JUMP JUMPDEST SWAP3 POP PUSH1 0x40 DUP6 ADD CALLDATALOAD PUSH2 0x239B DUP2 PUSH2 0x21C7 JUMP JUMPDEST SWAP4 SWAP7 SWAP3 SWAP6 POP SWAP3 SWAP4 PUSH1 0x60 ADD CALLDATALOAD SWAP3 POP POP JUMP JUMPDEST PUSH0 DUP1 PUSH0 PUSH1 0x60 DUP5 DUP7 SUB SLT ISZERO PUSH2 0x23BD JUMPI PUSH0 DUP1 REVERT JUMPDEST DUP4 CALLDATALOAD PUSH2 0x23C8 DUP2 PUSH2 0x21C7 JUMP JUMPDEST SWAP3 POP PUSH1 0x20 DUP5 ADD CALLDATALOAD PUSH2 0x23D8 DUP2 PUSH2 0x21C7 JUMP JUMPDEST SWAP3 SWAP6 SWAP3 SWAP5 POP POP POP PUSH1 0x40 SWAP2 SWAP1 SWAP2 ADD CALLDATALOAD SWAP1 JUMP JUMPDEST PUSH0 DUP1 PUSH0 PUSH1 0x60 DUP5 DUP7 SUB SLT ISZERO PUSH2 0x23FB JUMPI PUSH0 DUP1 REVERT JUMPDEST DUP4 CALLDATALOAD PUSH2 0x2406 DUP2 PUSH2 0x21C7 JUMP JUMPDEST SWAP3 POP PUSH1 0x20 DUP5 ADD CALLDATALOAD SWAP2 POP PUSH1 0x40 DUP5 ADD CALLDATALOAD PUSH2 0x2324 DUP2 PUSH2 0x21C7 JUMP JUMPDEST PUSH0 DUP1 PUSH0 DUP1 PUSH1 0x80 DUP6 DUP8 SUB SLT ISZERO PUSH2 0x2430 JUMPI PUSH0 DUP1 REVERT JUMPDEST DUP5 CALLDATALOAD PUSH2 0x243B DUP2 PUSH2 0x21C7 JUMP JUMPDEST SWAP4 POP PUSH1 0x20 DUP6 ADD CALLDATALOAD PUSH2 0x244B DUP2 PUSH2 0x21C7 JUMP JUMPDEST SWAP4 SWAP7 SWAP4 SWAP6 POP POP POP POP PUSH1 0x40 DUP3 ADD CALLDATALOAD SWAP2 PUSH1 0x60 ADD CALLDATALOAD SWAP1 JUMP JUMPDEST PUSH0 DUP2 MLOAD DUP1 DUP5 MSTORE DUP1 PUSH1 0x20 DUP5 ADD PUSH1 0x20 DUP7 ADD MCOPY PUSH0 PUSH1 0x20 DUP3 DUP7 ADD ADD MSTORE PUSH1 0x20 PUSH1 0x1F NOT PUSH1 0x1F DUP4 ADD AND DUP6 ADD ADD SWAP2 POP POP SWAP3 SWAP2 POP POP JUMP JUMPDEST PUSH1 0x20 DUP2 MSTORE PUSH0 PUSH2 0xAB8 PUSH1 0x20 DUP4 ADD DUP5 PUSH2 0x2460 JUMP JUMPDEST PUSH4 0x4E487B71 PUSH1 0xE0 SHL PUSH0 MSTORE PUSH1 0x11 PUSH1 0x4 MSTORE PUSH1 0x24 PUSH0 REVERT JUMPDEST DUP2 DUP2 SUB DUP2 DUP2 GT ISZERO PUSH2 0x281 JUMPI PUSH2 0x281 PUSH2 0x24A0 JUMP JUMPDEST PUSH4 0x4E487B71 PUSH1 0xE0 SHL PUSH0 MSTORE PUSH1 0x32 PUSH1 0x4 MSTORE PUSH1 0x24 PUSH0 REVERT JUMPDEST DUP1 DUP3 ADD DUP1 DUP3 GT ISZERO PUSH2 0x281 JUMPI PUSH2 0x281 PUSH2 0x24A0 JUMP JUMPDEST PUSH1 0x20 DUP1 DUP3 MSTORE PUSH1 0xB SWAP1 DUP3 ADD MSTORE PUSH11 0x1111560E881313D0D2D151 PUSH1 0xAA SHL PUSH1 0x40 DUP3 ADD MSTORE PUSH1 0x60 ADD SWAP1 JUMP JUMPDEST PUSH1 0x1 PUSH1 0x1 PUSH1 0xA0 SHL SUB SWAP4 DUP5 AND DUP2 MSTORE SWAP2 SWAP1 SWAP3 AND PUSH1 0x20 DUP3 ADD MSTORE PUSH1 0x40 DUP2 ADD SWAP2 SWAP1 SWAP2 MSTORE PUSH1 0x60 ADD SWAP1 JUMP JUMPDEST PUSH0 PUSH1 0x20 DUP3 DUP5 SUB SLT ISZERO PUSH2 0x2547 JUMPI PUSH0 DUP1 REVERT JUMPDEST DUP2 MLOAD DUP1 ISZERO ISZERO DUP2 EQ PUSH2 0xAB8 JUMPI PUSH0 DUP1 REVERT JUMPDEST PUSH1 0x1 PUSH1 0x1 PUSH1 0xA0 SHL SUB SWAP4 SWAP1 SWAP4 AND DUP4 MSTORE PUSH1 0x20 DUP4 ADD SWAP2 SWAP1 SWAP2 MSTORE PUSH1 0x40 DUP3 ADD MSTORE PUSH1 0x60 ADD SWAP1 JUMP JUMPDEST PUSH1 0x1 PUSH1 0x1 PUSH1 0xA0 SHL SUB SWAP7 DUP8 AND DUP2 MSTORE SWAP5 DUP7 AND PUSH1 0x20 DUP7 ADD MSTORE SWAP3 SWAP1 SWAP5 AND PUSH1 0x40 DUP5 ADD MSTORE PUSH1 0x60 DUP4 ADD MSTORE PUSH1 0x80 DUP3 ADD SWAP3 SWAP1 SWAP3 MSTORE PUSH1 0xA0 DUP2 ADD SWAP2 SWAP1 SWAP2 MSTORE PUSH1 0xC0 ADD SWAP1 JUMP JUMPDEST DUP1 DUP3 MUL DUP2 ISZERO DUP3 DUP3 DIV DUP5 EQ OR PUSH2 0x281 JUMPI PUSH2 0x281 PUSH2 0x24A0 JUMP JUMPDEST PUSH0 DUP3 PUSH2 0x25E1 JUMPI PUSH4 0x4E487B71 PUSH1 0xE0 SHL PUSH0 MSTORE PUSH1 0x12 PUSH1 0x4 MSTORE PUSH1 0x24 PUSH0 REVERT JUMPDEST POP DIV SWAP1 JUMP JUMPDEST PUSH0 PUSH1 0x20 DUP3 DUP5 SUB SLT ISZERO PUSH2 0x25F6 JUMPI PUSH0 DUP1 REVERT JUMPDEST POP MLOAD SWAP2 SWAP1 POP JUMP JUMPDEST PUSH1 0x20 DUP1 DUP3 MSTORE PUSH1 0x13 SWAP1 DUP3 ADD MSTORE PUSH19 0x4944454E544943414C5F414444524553534553 PUSH1 0x68 SHL PUSH1 0x40 DUP3 ADD MSTORE PUSH1 0x60 ADD SWAP1 JUMP JUMPDEST PUSH1 0x20 DUP1 DUP3 MSTORE PUSH1 0xC SWAP1 DUP3 ADD MSTORE PUSH12 0x5A45524F5F41444452455353 PUSH1 0xA0 SHL PUSH1 0x40 DUP3 ADD MSTORE PUSH1 0x60 ADD SWAP1 JUMP JUMPDEST PUSH1 0x20 DUP1 DUP3 MSTORE PUSH1 0x13 SWAP1 DUP3 ADD MSTORE PUSH19 0x63726561746520706169722066697273746C79 PUSH1 0x68 SHL PUSH1 0x40 DUP3 ADD MSTORE PUSH1 0x60 ADD SWAP1 JUMP JUMPDEST PUSH0 DUP1 PUSH0 PUSH1 0x60 DUP5 DUP7 SUB SLT ISZERO PUSH2 0x268F JUMPI PUSH0 DUP1 REVERT JUMPDEST DUP4 MLOAD SWAP3 POP PUSH1 0x20 DUP5 ADD MLOAD SWAP2 POP PUSH1 0x40 DUP5 ADD MLOAD SWAP1 POP SWAP3 POP SWAP3 POP SWAP3 JUMP JUMPDEST PUSH0 PUSH1 0x20 DUP3 DUP5 SUB SLT ISZERO PUSH2 0x26B8 JUMPI PUSH0 DUP1 REVERT JUMPDEST DUP2 MLOAD PUSH2 0xAB8 DUP2 PUSH2 0x21C7 JUMP JUMPDEST PUSH0 DUP1 PUSH1 0x40 DUP4 DUP6 SUB SLT ISZERO PUSH2 0x26D4 JUMPI PUSH0 DUP1 REVERT JUMPDEST POP POP DUP1 MLOAD PUSH1 0x20 SWAP1 SWAP2 ADD MLOAD SWAP1 SWAP3 SWAP1 SWAP2 POP JUMP JUMPDEST PUSH0 PUSH1 0x20 DUP3 DUP5 SUB SLT ISZERO PUSH2 0x26F5 JUMPI PUSH0 DUP1 REVERT JUMPDEST DUP2 MLOAD PUSH1 0xFF DUP2 AND DUP2 EQ PUSH2 0xAB8 JUMPI PUSH0 DUP1 REVERT JUMPDEST PUSH1 0xFF DUP3 DUP2 AND DUP3 DUP3 AND SUB SWAP1 DUP2 GT ISZERO PUSH2 0x281 JUMPI PUSH2 0x281 PUSH2 0x24A0 JUMP JUMPDEST PUSH1 0x1 DUP2 DUP2 JUMPDEST DUP1 DUP6 GT ISZERO PUSH2 0x2758 JUMPI DUP2 PUSH0 NOT DIV DUP3 GT ISZERO PUSH2 0x273E JUMPI PUSH2 0x273E PUSH2 0x24A0 JUMP JUMPDEST DUP1 DUP6 AND ISZERO PUSH2 0x274B JUMPI SWAP2 DUP2 MUL SWAP2 JUMPDEST SWAP4 DUP5 SHR SWAP4 SWAP1 DUP1 MUL SWAP1 PUSH2 0x2723 JUMP JUMPDEST POP SWAP3 POP SWAP3 SWAP1 POP JUMP JUMPDEST PUSH0 DUP3 PUSH2 0x276E JUMPI POP PUSH1 0x1 PUSH2 0x281 JUMP JUMPDEST DUP2 PUSH2 0x277A JUMPI POP PUSH0 PUSH2 0x281 JUMP JUMPDEST DUP2 PUSH1 0x1 DUP2 EQ PUSH2 0x2790 JUMPI PUSH1 0x2 DUP2 EQ PUSH2 0x279A JUMPI PUSH2 0x27B6 JUMP JUMPDEST PUSH1 0x1 SWAP2 POP POP PUSH2 0x281 JUMP JUMPDEST PUSH1 0xFF DUP5 GT ISZERO PUSH2 0x27AB JUMPI PUSH2 0x27AB PUSH2 0x24A0 JUMP JUMPDEST POP POP PUSH1 0x1 DUP3 SHL PUSH2 0x281 JUMP JUMPDEST POP PUSH1 0x20 DUP4 LT PUSH2 0x133 DUP4 LT AND PUSH1 0x4E DUP5 LT PUSH1 0xB DUP5 LT AND OR ISZERO PUSH2 0x27D9 JUMPI POP DUP2 DUP2 EXP PUSH2 0x281 JUMP JUMPDEST PUSH2 0x27E3 DUP4 DUP4 PUSH2 0x271E JUMP JUMPDEST DUP1 PUSH0 NOT DIV DUP3 GT ISZERO PUSH2 0x27F6 JUMPI PUSH2 0x27F6 PUSH2 0x24A0 JUMP JUMPDEST MUL SWAP4 SWAP3 POP POP POP JUMP JUMPDEST PUSH0 PUSH2 0xAB8 PUSH1 0xFF DUP5 AND DUP4 PUSH2 0x2760 JUMP JUMPDEST PUSH1 0x1 PUSH1 0x1 PUSH1 0xA0 SHL SUB DUP7 DUP2 AND DUP3 MSTORE DUP6 DUP2 AND PUSH1 0x20 DUP4 ADD MSTORE DUP5 AND PUSH1 0x40 DUP3 ADD MSTORE PUSH1 0xA0 PUSH1 0x60 DUP3 ADD DUP2 SWAP1 MSTORE PUSH0 SWAP1 PUSH2 0x283F SWAP1 DUP4 ADD DUP6 PUSH2 0x2460 JUMP JUMPDEST DUP3 DUP2 SUB PUSH1 0x80 DUP5 ADD MSTORE PUSH2 0x2851 DUP2 DUP6 PUSH2 0x2460 JUMP JUMPDEST SWAP9 SWAP8 POP POP POP POP POP POP POP POP JUMP JUMPDEST PUSH0 PUSH1 0x20 DUP1 DUP4 DUP6 SUB SLT ISZERO PUSH2 0x286E JUMPI PUSH0 DUP1 REVERT JUMPDEST DUP3 MLOAD PUSH8 0xFFFFFFFFFFFFFFFF DUP1 DUP3 GT ISZERO PUSH2 0x2885 JUMPI PUSH0 DUP1 REVERT JUMPDEST DUP2 DUP6 ADD SWAP2 POP DUP6 PUSH1 0x1F DUP4 ADD SLT PUSH2 0x2898 JUMPI PUSH0 DUP1 REVERT JUMPDEST DUP2 MLOAD DUP2 DUP2 GT ISZERO PUSH2 0x28AA JUMPI PUSH2 0x28AA PUSH2 0x2182 JUMP JUMPDEST PUSH2 0x28BC PUSH1 0x1F DUP3 ADD PUSH1 0x1F NOT AND DUP6 ADD PUSH2 0x2196 JUMP JUMPDEST SWAP2 POP DUP1 DUP3 MSTORE DUP7 DUP5 DUP3 DUP6 ADD ADD GT ISZERO PUSH2 0x28D1 JUMPI PUSH0 DUP1 REVERT JUMPDEST DUP1 DUP5 DUP5 ADD DUP6 DUP5 ADD MCOPY PUSH0 SWAP1 DUP3 ADD SWAP1 SWAP4 ADD SWAP3 SWAP1 SWAP3 MSTORE POP SWAP4 SWAP3 POP POP POP JUMP JUMPDEST PUSH0 DUP2 MLOAD DUP1 PUSH1 0x20 DUP5 ADD DUP6 MCOPY PUSH0 SWAP4 ADD SWAP3 DUP4 MSTORE POP SWAP1 SWAP2 SWAP1 POP JUMP JUMPDEST PUSH0 PUSH2 0x290E DUP3 DUP6 PUSH2 0x28EC JUMP JUMPDEST PUSH1 0x2D PUSH1 0xF8 SHL DUP2 MSTORE PUSH2 0x2922 PUSH1 0x1 DUP3 ADD DUP6 PUSH2 0x28EC JUMP JUMPDEST SWAP6 SWAP5 POP POP POP POP POP JUMP INVALID PUSH1 0x80 PUSH1 0x40 MSTORE CALLVALUE DUP1 ISZERO PUSH2 0xF JUMPI PUSH0 DUP1 REVERT JUMPDEST POP PUSH1 0x40 MLOAD PUSH2 0x15FD CODESIZE SUB DUP1 PUSH2 0x15FD DUP4 CODECOPY DUP2 ADD PUSH1 0x40 DUP2 SWAP1 MSTORE PUSH2 0x2E SWAP2 PUSH2 0x18F JUMP JUMPDEST DUP2 DUP2 PUSH1 0x3 PUSH2 0x3C DUP4 DUP3 PUSH2 0x2A3 JUMP JUMPDEST POP PUSH1 0x4 PUSH2 0x49 DUP3 DUP3 PUSH2 0x2A3 JUMP JUMPDEST POP POP POP PUSH1 0x1 PUSH1 0x1 PUSH1 0xA0 SHL SUB DUP4 AND CALLER EQ PUSH2 0x94 JUMPI PUSH1 0x40 MLOAD PUSH3 0x461BCD PUSH1 0xE5 SHL DUP2 MSTORE PUSH1 0x20 PUSH1 0x4 DUP3 ADD MSTORE PUSH1 0x9 PUSH1 0x24 DUP3 ADD MSTORE PUSH9 0x2327A92124A22222A7 PUSH1 0xB9 SHL PUSH1 0x44 DUP3 ADD MSTORE PUSH1 0x64 ADD PUSH1 0x40 MLOAD DUP1 SWAP2 SUB SWAP1 REVERT JUMPDEST POP POP PUSH1 0x6 DUP1 SLOAD PUSH1 0x1 PUSH1 0x1 PUSH1 0xA0 SHL SUB SWAP5 DUP6 AND PUSH1 0x1 PUSH1 0x1 PUSH1 0xA0 SHL SUB NOT SWAP2 DUP3 AND OR SWAP1 SWAP2 SSTORE PUSH1 0x7 DUP1 SLOAD SWAP4 DUP6 AND SWAP4 DUP3 AND SWAP4 SWAP1 SWAP4 OR SWAP1 SWAP3 SSTORE PUSH1 0x5 DUP1 SLOAD SWAP2 SWAP1 SWAP4 AND SWAP2 AND OR SWAP1 SSTORE PUSH2 0x362 JUMP JUMPDEST DUP1 MLOAD PUSH1 0x1 PUSH1 0x1 PUSH1 0xA0 SHL SUB DUP2 AND DUP2 EQ PUSH2 0xEE JUMPI PUSH0 DUP1 REVERT JUMPDEST SWAP2 SWAP1 POP JUMP JUMPDEST PUSH4 0x4E487B71 PUSH1 0xE0 SHL PUSH0 MSTORE PUSH1 0x41 PUSH1 0x4 MSTORE PUSH1 0x24 PUSH0 REVERT JUMPDEST PUSH0 DUP3 PUSH1 0x1F DUP4 ADD SLT PUSH2 0x116 JUMPI PUSH0 DUP1 REVERT JUMPDEST DUP2 MLOAD PUSH1 0x1 PUSH1 0x1 PUSH1 0x40 SHL SUB DUP1 DUP3 GT ISZERO PUSH2 0x130 JUMPI PUSH2 0x130 PUSH2 0xF3 JUMP JUMPDEST PUSH1 0x40 MLOAD PUSH1 0x1F DUP4 ADD PUSH1 0x1F NOT SWAP1 DUP2 AND PUSH1 0x3F ADD AND DUP2 ADD SWAP1 DUP3 DUP3 GT DUP2 DUP4 LT OR ISZERO PUSH2 0x158 JUMPI PUSH2 0x158 PUSH2 0xF3 JUMP JUMPDEST DUP2 PUSH1 0x40 MSTORE DUP4 DUP2 MSTORE DUP7 PUSH1 0x20 DUP6 DUP9 ADD ADD GT ISZERO PUSH2 0x170 JUMPI PUSH0 DUP1 REVERT JUMPDEST DUP4 PUSH1 0x20 DUP8 ADD PUSH1 0x20 DUP4 ADD MCOPY PUSH0 PUSH1 0x20 DUP6 DUP4 ADD ADD MSTORE DUP1 SWAP5 POP POP POP POP POP SWAP3 SWAP2 POP POP JUMP JUMPDEST PUSH0 DUP1 PUSH0 DUP1 PUSH0 PUSH1 0xA0 DUP7 DUP9 SUB SLT ISZERO PUSH2 0x1A3 JUMPI PUSH0 DUP1 REVERT JUMPDEST PUSH2 0x1AC DUP7 PUSH2 0xD8 JUMP JUMPDEST SWAP5 POP PUSH2 0x1BA PUSH1 0x20 DUP8 ADD PUSH2 0xD8 JUMP JUMPDEST SWAP4 POP PUSH2 0x1C8 PUSH1 0x40 DUP8 ADD PUSH2 0xD8 JUMP JUMPDEST PUSH1 0x60 DUP8 ADD MLOAD SWAP1 SWAP4 POP PUSH1 0x1 PUSH1 0x1 PUSH1 0x40 SHL SUB DUP1 DUP3 GT ISZERO PUSH2 0x1E4 JUMPI PUSH0 DUP1 REVERT JUMPDEST PUSH2 0x1F0 DUP10 DUP4 DUP11 ADD PUSH2 0x107 JUMP JUMPDEST SWAP4 POP PUSH1 0x80 DUP9 ADD MLOAD SWAP2 POP DUP1 DUP3 GT ISZERO PUSH2 0x205 JUMPI PUSH0 DUP1 REVERT JUMPDEST POP PUSH2 0x212 DUP9 DUP3 DUP10 ADD PUSH2 0x107 JUMP JUMPDEST SWAP2 POP POP SWAP3 SWAP6 POP SWAP3 SWAP6 SWAP1 SWAP4 POP JUMP JUMPDEST PUSH1 0x1 DUP2 DUP2 SHR SWAP1 DUP3 AND DUP1 PUSH2 0x233 JUMPI PUSH1 0x7F DUP3 AND SWAP2 POP JUMPDEST PUSH1 0x20 DUP3 LT DUP2 SUB PUSH2 0x251 JUMPI PUSH4 0x4E487B71 PUSH1 0xE0 SHL PUSH0 MSTORE PUSH1 0x22 PUSH1 0x4 MSTORE PUSH1 0x24 PUSH0 REVERT JUMPDEST POP SWAP2 SWAP1 POP JUMP JUMPDEST PUSH1 0x1F DUP3 GT ISZERO PUSH2 0x29E JUMPI DUP1 PUSH0 MSTORE PUSH1 0x20 PUSH0 KECCAK256 PUSH1 0x1F DUP5 ADD PUSH1 0x5 SHR DUP2 ADD PUSH1 0x20 DUP6 LT ISZERO PUSH2 0x27C JUMPI POP DUP1 JUMPDEST PUSH1 0x1F DUP5 ADD PUSH1 0x5 SHR DUP3 ADD SWAP2 POP JUMPDEST DUP2 DUP2 LT ISZERO PUSH2 0x29B JUMPI PUSH0 DUP2 SSTORE PUSH1 0x1 ADD PUSH2 0x288 JUMP JUMPDEST POP POP JUMPDEST POP POP POP JUMP JUMPDEST DUP2 MLOAD PUSH1 0x1 PUSH1 0x1 PUSH1 0x40 SHL SUB DUP2 GT ISZERO PUSH2 0x2BC JUMPI PUSH2 0x2BC PUSH2 0xF3 JUMP JUMPDEST PUSH2 0x2D0 DUP2 PUSH2 0x2CA DUP5 SLOAD PUSH2 0x21F JUMP JUMPDEST DUP5 PUSH2 0x257 JUMP JUMPDEST PUSH1 0x20 DUP1 PUSH1 0x1F DUP4 GT PUSH1 0x1 DUP2 EQ PUSH2 0x303 JUMPI PUSH0 DUP5 ISZERO PUSH2 0x2EC JUMPI POP DUP6 DUP4 ADD MLOAD JUMPDEST PUSH0 NOT PUSH1 0x3 DUP7 SWAP1 SHL SHR NOT AND PUSH1 0x1 DUP6 SWAP1 SHL OR DUP6 SSTORE PUSH2 0x35A JUMP JUMPDEST PUSH0 DUP6 DUP2 MSTORE PUSH1 0x20 DUP2 KECCAK256 PUSH1 0x1F NOT DUP7 AND SWAP2 JUMPDEST DUP3 DUP2 LT ISZERO PUSH2 0x331 JUMPI DUP9 DUP7 ADD MLOAD DUP3 SSTORE SWAP5 DUP5 ADD SWAP5 PUSH1 0x1 SWAP1 SWAP2 ADD SWAP1 DUP5 ADD PUSH2 0x312 JUMP JUMPDEST POP DUP6 DUP3 LT ISZERO PUSH2 0x34E JUMPI DUP8 DUP6 ADD MLOAD PUSH0 NOT PUSH1 0x3 DUP9 SWAP1 SHL PUSH1 0xF8 AND SHR NOT AND DUP2 SSTORE JUMPDEST POP POP PUSH1 0x1 DUP5 PUSH1 0x1 SHL ADD DUP6 SSTORE JUMPDEST POP POP POP POP POP POP JUMP JUMPDEST PUSH2 0x128E DUP1 PUSH2 0x36F PUSH0 CODECOPY PUSH0 RETURN INVALID PUSH1 0x80 PUSH1 0x40 MSTORE CALLVALUE DUP1 ISZERO PUSH2 0xF JUMPI PUSH0 DUP1 REVERT JUMPDEST POP PUSH1 0x4 CALLDATASIZE LT PUSH2 0x13C JUMPI PUSH0 CALLDATALOAD PUSH1 0xE0 SHR DUP1 PUSH4 0x3827EBAA GT PUSH2 0xB4 JUMPI DUP1 PUSH4 0x95D89B41 GT PUSH2 0x79 JUMPI DUP1 PUSH4 0x95D89B41 EQ PUSH2 0x2C7 JUMPI DUP1 PUSH4 0xA7533D04 EQ PUSH2 0x2CF JUMPI DUP1 PUSH4 0xA9059CBB EQ PUSH2 0x2E2 JUMPI DUP1 PUSH4 0xC5CC6B6A EQ PUSH2 0x2F5 JUMPI DUP1 PUSH4 0xD21220A7 EQ PUSH2 0x308 JUMPI DUP1 PUSH4 0xDD62ED3E EQ PUSH2 0x31B JUMPI PUSH0 DUP1 REVERT JUMPDEST DUP1 PUSH4 0x3827EBAA EQ PUSH2 0x25D JUMPI DUP1 PUSH4 0x53DABF40 EQ PUSH2 0x266 JUMPI DUP1 PUSH4 0x69865DEB EQ PUSH2 0x279 JUMPI DUP1 PUSH4 0x70A08231 EQ PUSH2 0x28C JUMPI DUP1 PUSH4 0x8DBDBE6D EQ PUSH2 0x2B4 JUMPI PUSH0 DUP1 REVERT JUMPDEST DUP1 PUSH4 0xD293D3B GT PUSH2 0x105 JUMPI DUP1 PUSH4 0xD293D3B EQ PUSH2 0x1DE JUMPI DUP1 PUSH4 0xDFE1681 EQ PUSH2 0x1F5 JUMPI DUP1 PUSH4 0x18160DDD EQ PUSH2 0x220 JUMPI DUP1 PUSH4 0x22817769 EQ PUSH2 0x228 JUMPI DUP1 PUSH4 0x23B872DD EQ PUSH2 0x23B JUMPI DUP1 PUSH4 0x313CE567 EQ PUSH2 0x24E JUMPI PUSH0 DUP1 REVERT JUMPDEST DUP1 PUSH3 0xF714CE EQ PUSH2 0x140 JUMPI DUP1 PUSH4 0x6FDDE03 EQ PUSH2 0x16D JUMPI DUP1 PUSH4 0x7AA9486 EQ PUSH2 0x182 JUMPI DUP1 PUSH4 0x902F1AC EQ PUSH2 0x197 JUMPI DUP1 PUSH4 0x95EA7B3 EQ PUSH2 0x1BB JUMPI JUMPDEST PUSH0 DUP1 REVERT JUMPDEST PUSH2 0x153 PUSH2 0x14E CALLDATASIZE PUSH1 0x4 PUSH2 0xEA2 JUMP JUMPDEST PUSH2 0x353 JUMP JUMPDEST PUSH1 0x40 DUP1 MLOAD SWAP3 DUP4 MSTORE PUSH1 0x20 DUP4 ADD SWAP2 SWAP1 SWAP2 MSTORE ADD JUMPDEST PUSH1 0x40 MLOAD DUP1 SWAP2 SUB SWAP1 RETURN JUMPDEST PUSH2 0x175 PUSH2 0x469 JUMP JUMPDEST PUSH1 0x40 MLOAD PUSH2 0x164 SWAP2 SWAP1 PUSH2 0xECC JUMP JUMPDEST PUSH2 0x195 PUSH2 0x190 CALLDATASIZE PUSH1 0x4 PUSH2 0xF01 JUMP JUMPDEST PUSH2 0x4F9 JUMP JUMPDEST STOP JUMPDEST PUSH1 0x8 SLOAD PUSH1 0x9 SLOAD PUSH1 0xA SLOAD PUSH1 0x40 DUP1 MLOAD SWAP4 DUP5 MSTORE PUSH1 0x20 DUP5 ADD SWAP3 SWAP1 SWAP3 MSTORE SWAP1 DUP3 ADD MSTORE PUSH1 0x60 ADD PUSH2 0x164 JUMP JUMPDEST PUSH2 0x1CE PUSH2 0x1C9 CALLDATASIZE PUSH1 0x4 PUSH2 0xF31 JUMP JUMPDEST PUSH2 0x620 JUMP JUMPDEST PUSH1 0x40 MLOAD SWAP1 ISZERO ISZERO DUP2 MSTORE PUSH1 0x20 ADD PUSH2 0x164 JUMP JUMPDEST PUSH2 0x1E7 PUSH1 0x8 SLOAD DUP2 JUMP JUMPDEST PUSH1 0x40 MLOAD SWAP1 DUP2 MSTORE PUSH1 0x20 ADD PUSH2 0x164 JUMP JUMPDEST PUSH1 0x6 SLOAD PUSH2 0x208 SWAP1 PUSH1 0x1 PUSH1 0x1 PUSH1 0xA0 SHL SUB AND DUP2 JUMP JUMPDEST PUSH1 0x40 MLOAD PUSH1 0x1 PUSH1 0x1 PUSH1 0xA0 SHL SUB SWAP1 SWAP2 AND DUP2 MSTORE PUSH1 0x20 ADD PUSH2 0x164 JUMP JUMPDEST PUSH1 0x2 SLOAD PUSH2 0x1E7 JUMP JUMPDEST PUSH2 0x195 PUSH2 0x236 CALLDATASIZE PUSH1 0x4 PUSH2 0xF59 JUMP JUMPDEST PUSH2 0x639 JUMP JUMPDEST PUSH2 0x1CE PUSH2 0x249 CALLDATASIZE PUSH1 0x4 PUSH2 0xF79 JUMP JUMPDEST PUSH2 0x756 JUMP JUMPDEST PUSH1 0x40 MLOAD PUSH1 0x12 DUP2 MSTORE PUSH1 0x20 ADD PUSH2 0x164 JUMP JUMPDEST PUSH2 0x1E7 PUSH1 0x9 SLOAD DUP2 JUMP JUMPDEST PUSH2 0x195 PUSH2 0x274 CALLDATASIZE PUSH1 0x4 PUSH2 0xF01 JUMP JUMPDEST PUSH2 0x779 JUMP JUMPDEST PUSH2 0x195 PUSH2 0x287 CALLDATASIZE PUSH1 0x4 PUSH2 0xF31 JUMP JUMPDEST PUSH2 0x8AC JUMP JUMPDEST PUSH2 0x1E7 PUSH2 0x29A CALLDATASIZE PUSH1 0x4 PUSH2 0xFB2 JUMP JUMPDEST PUSH1 0x1 PUSH1 0x1 PUSH1 0xA0 SHL SUB AND PUSH0 SWAP1 DUP2 MSTORE PUSH1 0x20 DUP2 SWAP1 MSTORE PUSH1 0x40 SWAP1 KECCAK256 SLOAD SWAP1 JUMP JUMPDEST PUSH2 0x195 PUSH2 0x2C2 CALLDATASIZE PUSH1 0x4 PUSH2 0xFD2 JUMP JUMPDEST PUSH2 0x90F JUMP JUMPDEST PUSH2 0x175 PUSH2 0x9EA JUMP JUMPDEST PUSH2 0x195 PUSH2 0x2DD CALLDATASIZE PUSH1 0x4 PUSH2 0xF01 JUMP JUMPDEST PUSH2 0x9F9 JUMP JUMPDEST PUSH2 0x1CE PUSH2 0x2F0 CALLDATASIZE PUSH1 0x4 PUSH2 0xF31 JUMP JUMPDEST PUSH2 0xA73 JUMP JUMPDEST PUSH1 0x5 SLOAD PUSH2 0x208 SWAP1 PUSH1 0x1 PUSH1 0x1 PUSH1 0xA0 SHL SUB AND DUP2 JUMP JUMPDEST PUSH1 0x7 SLOAD PUSH2 0x208 SWAP1 PUSH1 0x1 PUSH1 0x1 PUSH1 0xA0 SHL SUB AND DUP2 JUMP JUMPDEST PUSH2 0x1E7 PUSH2 0x329 CALLDATASIZE PUSH1 0x4 PUSH2 0x1004 JUMP JUMPDEST PUSH1 0x1 PUSH1 0x1 PUSH1 0xA0 SHL SUB SWAP2 DUP3 AND PUSH0 SWAP1 DUP2 MSTORE PUSH1 0x1 PUSH1 0x20 SWAP1 DUP2 MSTORE PUSH1 0x40 DUP1 DUP4 KECCAK256 SWAP4 SWAP1 SWAP5 AND DUP3 MSTORE SWAP2 SWAP1 SWAP2 MSTORE KECCAK256 SLOAD SWAP1 JUMP JUMPDEST PUSH0 DUP1 PUSH0 DUP5 GT PUSH2 0x3A9 JUMPI PUSH1 0x40 MLOAD PUSH3 0x461BCD PUSH1 0xE5 SHL DUP2 MSTORE PUSH1 0x20 PUSH1 0x4 DUP3 ADD MSTORE PUSH1 0x18 PUSH1 0x24 DUP3 ADD MSTORE PUSH32 0x616D6F756E742067726561746572207468616E207A65726F0000000000000000 PUSH1 0x44 DUP3 ADD MSTORE PUSH1 0x64 ADD JUMPDEST PUSH1 0x40 MLOAD DUP1 SWAP2 SUB SWAP1 REVERT JUMPDEST PUSH1 0x5 SLOAD PUSH1 0x1 PUSH1 0x1 PUSH1 0xA0 SHL SUB AND CALLER EQ PUSH2 0x3D3 JUMPI PUSH1 0x40 MLOAD PUSH3 0x461BCD PUSH1 0xE5 SHL DUP2 MSTORE PUSH1 0x4 ADD PUSH2 0x3A0 SWAP1 PUSH2 0x102C JUMP JUMPDEST PUSH0 PUSH2 0x3DD PUSH1 0x2 SLOAD SWAP1 JUMP JUMPDEST SWAP1 POP PUSH0 DUP2 PUSH2 0x3F6 DUP8 PUSH11 0x84595161401484A000000 PUSH2 0x1063 JUMP JUMPDEST PUSH2 0x400 SWAP2 SWAP1 PUSH2 0x107A JUMP JUMPDEST PUSH1 0x8 SLOAD PUSH1 0x9 SLOAD SWAP2 SWAP3 POP SWAP1 PUSH0 PUSH11 0x84595161401484A000000 PUSH2 0x421 DUP6 DUP6 PUSH2 0x1063 JUMP JUMPDEST PUSH2 0x42B SWAP2 SWAP1 PUSH2 0x107A JUMP JUMPDEST SWAP1 POP PUSH0 PUSH11 0x84595161401484A000000 PUSH2 0x444 DUP7 DUP6 PUSH2 0x1063 JUMP JUMPDEST PUSH2 0x44E SWAP2 SWAP1 PUSH2 0x107A JUMP JUMPDEST SWAP1 POP PUSH2 0x45A DUP10 DUP12 PUSH2 0xA80 JUMP JUMPDEST SWAP1 SWAP10 SWAP1 SWAP9 POP SWAP7 POP POP POP POP POP POP POP JUMP JUMPDEST PUSH1 0x60 PUSH1 0x3 DUP1 SLOAD PUSH2 0x478 SWAP1 PUSH2 0x1099 JUMP JUMPDEST DUP1 PUSH1 0x1F ADD PUSH1 0x20 DUP1 SWAP2 DIV MUL PUSH1 0x20 ADD PUSH1 0x40 MLOAD SWAP1 DUP2 ADD PUSH1 0x40 MSTORE DUP1 SWAP3 SWAP2 SWAP1 DUP2 DUP2 MSTORE PUSH1 0x20 ADD DUP3 DUP1 SLOAD PUSH2 0x4A4 SWAP1 PUSH2 0x1099 JUMP JUMPDEST DUP1 ISZERO PUSH2 0x4EF JUMPI DUP1 PUSH1 0x1F LT PUSH2 0x4C6 JUMPI PUSH2 0x100 DUP1 DUP4 SLOAD DIV MUL DUP4 MSTORE SWAP2 PUSH1 0x20 ADD SWAP2 PUSH2 0x4EF JUMP JUMPDEST DUP3 ADD SWAP2 SWAP1 PUSH0 MSTORE PUSH1 0x20 PUSH0 KECCAK256 SWAP1 JUMPDEST DUP2 SLOAD DUP2 MSTORE SWAP1 PUSH1 0x1 ADD SWAP1 PUSH1 0x20 ADD DUP1 DUP4 GT PUSH2 0x4D2 JUMPI DUP3 SWAP1 SUB PUSH1 0x1F AND DUP3 ADD SWAP2 JUMPDEST POP POP POP POP POP SWAP1 POP SWAP1 JUMP JUMPDEST PUSH1 0x5 SLOAD PUSH1 0x1 PUSH1 0x1 PUSH1 0xA0 SHL SUB AND CALLER EQ PUSH2 0x523 JUMPI PUSH1 0x40 MLOAD PUSH3 0x461BCD PUSH1 0xE5 SHL DUP2 MSTORE PUSH1 0x4 ADD PUSH2 0x3A0 SWAP1 PUSH2 0x102C JUMP JUMPDEST PUSH1 0x6 SLOAD PUSH1 0x1 PUSH1 0x1 PUSH1 0xA0 SHL SUB SWAP1 DUP2 AND SWAP1 DUP5 AND SUB PUSH2 0x5AA JUMPI DUP2 PUSH1 0x8 PUSH0 DUP3 DUP3 SLOAD PUSH2 0x54A SWAP2 SWAP1 PUSH2 0x10CB JUMP JUMPDEST SWAP3 POP POP DUP2 SWAP1 SSTORE POP DUP1 PUSH1 0x9 PUSH0 DUP3 DUP3 SLOAD PUSH2 0x562 SWAP2 SWAP1 PUSH2 0x10CB JUMP JUMPDEST SWAP1 SWAP2 SSTORE POP POP PUSH1 0x8 SLOAD PUSH1 0x9 SLOAD PUSH1 0x40 MLOAD PUSH32 0x47A0F291B7D5C7D992B467D24BB7350C2FDE51FAFC5E867DF69D34A7FF2208F4 SWAP3 PUSH2 0x59D SWAP3 ADDRESS SWAP3 PUSH2 0x10DE JUMP JUMPDEST PUSH1 0x40 MLOAD DUP1 SWAP2 SUB SWAP1 LOG1 PUSH2 0x5D9 JUMP JUMPDEST DUP1 PUSH1 0x8 PUSH0 DUP3 DUP3 SLOAD PUSH2 0x5BB SWAP2 SWAP1 PUSH2 0x10CB JUMP JUMPDEST SWAP3 POP POP DUP2 SWAP1 SSTORE POP DUP2 PUSH1 0x9 PUSH0 DUP3 DUP3 SLOAD PUSH2 0x5D3 SWAP2 SWAP1 PUSH2 0x10CB JUMP JUMPDEST SWAP1 SWAP2 SSTORE POP POP JUMPDEST TIMESTAMP PUSH1 0xA SSTORE PUSH1 0x8 SLOAD PUSH1 0x9 SLOAD PUSH1 0x40 MLOAD PUSH32 0x47A0F291B7D5C7D992B467D24BB7350C2FDE51FAFC5E867DF69D34A7FF2208F4 SWAP3 PUSH2 0x613 SWAP3 ADDRESS SWAP3 PUSH2 0x10DE JUMP JUMPDEST PUSH1 0x40 MLOAD DUP1 SWAP2 SUB SWAP1 LOG1 POP POP POP JUMP JUMPDEST PUSH0 CALLER PUSH2 0x62D DUP2 DUP6 DUP6 PUSH2 0xAB8 JUMP JUMPDEST PUSH1 0x1 SWAP2 POP POP JUMPDEST SWAP3 SWAP2 POP POP JUMP JUMPDEST PUSH1 0x5 SLOAD PUSH1 0x1 PUSH1 0x1 PUSH1 0xA0 SHL SUB AND CALLER EQ PUSH2 0x663 JUMPI PUSH1 0x40 MLOAD PUSH3 0x461BCD PUSH1 0xE5 SHL DUP2 MSTORE PUSH1 0x4 ADD PUSH2 0x3A0 SWAP1 PUSH2 0x102C JUMP JUMPDEST PUSH1 0x6 SLOAD PUSH1 0x5 SLOAD PUSH1 0x40 MLOAD PUSH4 0x95EA7B3 PUSH1 0xE0 SHL DUP2 MSTORE PUSH1 0x1 PUSH1 0x1 PUSH1 0xA0 SHL SUB SWAP2 DUP3 AND PUSH1 0x4 DUP3 ADD MSTORE PUSH1 0x24 DUP2 ADD DUP6 SWAP1 MSTORE SWAP2 AND SWAP1 PUSH4 0x95EA7B3 SWAP1 PUSH1 0x44 ADD PUSH1 0x20 PUSH1 0x40 MLOAD DUP1 DUP4 SUB DUP2 PUSH0 DUP8 GAS CALL ISZERO DUP1 ISZERO PUSH2 0x6B5 JUMPI RETURNDATASIZE PUSH0 DUP1 RETURNDATACOPY RETURNDATASIZE PUSH0 REVERT JUMPDEST POP POP POP POP PUSH1 0x40 MLOAD RETURNDATASIZE PUSH1 0x1F NOT PUSH1 0x1F DUP3 ADD AND DUP3 ADD DUP1 PUSH1 0x40 MSTORE POP DUP2 ADD SWAP1 PUSH2 0x6D9 SWAP2 SWAP1 PUSH2 0x10FF JUMP JUMPDEST POP PUSH1 0x7 SLOAD PUSH1 0x5 SLOAD PUSH1 0x40 MLOAD PUSH4 0x95EA7B3 PUSH1 0xE0 SHL DUP2 MSTORE PUSH1 0x1 PUSH1 0x1 PUSH1 0xA0 SHL SUB SWAP2 DUP3 AND PUSH1 0x4 DUP3 ADD MSTORE PUSH1 0x24 DUP2 ADD DUP5 SWAP1 MSTORE SWAP2 AND SWAP1 PUSH4 0x95EA7B3 SWAP1 PUSH1 0x44 ADD JUMPDEST PUSH1 0x20 PUSH1 0x40 MLOAD DUP1 DUP4 SUB DUP2 PUSH0 DUP8 GAS CALL ISZERO DUP1 ISZERO PUSH2 0x72D JUMPI RETURNDATASIZE PUSH0 DUP1 RETURNDATACOPY RETURNDATASIZE PUSH0 REVERT JUMPDEST POP POP POP POP PUSH1 0x40 MLOAD RETURNDATASIZE PUSH1 0x1F NOT PUSH1 0x1F DUP3 ADD AND DUP3 ADD DUP1 PUSH1 0x40 MSTORE POP DUP2 ADD SWAP1 PUSH2 0x751 SWAP2 SWAP1 PUSH2 0x10FF JUMP JUMPDEST POP POP POP JUMP JUMPDEST PUSH0 CALLER PUSH2 0x763 DUP6 DUP3 DUP6 PUSH2 0xAC5 JUMP JUMPDEST PUSH2 0x76E DUP6 DUP6 DUP6 PUSH2 0xB27 JUMP JUMPDEST POP PUSH1 0x1 SWAP5 SWAP4 POP POP POP POP JUMP JUMPDEST PUSH1 0x5 SLOAD PUSH1 0x1 PUSH1 0x1 PUSH1 0xA0 SHL SUB AND CALLER EQ PUSH2 0x7A3 JUMPI PUSH1 0x40 MLOAD PUSH3 0x461BCD PUSH1 0xE5 SHL DUP2 MSTORE PUSH1 0x4 ADD PUSH2 0x3A0 SWAP1 PUSH2 0x102C JUMP JUMPDEST PUSH1 0x6 SLOAD PUSH1 0x1 PUSH1 0x1 PUSH1 0xA0 SHL SUB SWAP1 DUP2 AND SWAP1 DUP5 AND SUB PUSH2 0x7F0 JUMPI DUP2 PUSH1 0x8 PUSH0 DUP3 DUP3 SLOAD PUSH2 0x7CA SWAP2 SWAP1 PUSH2 0x111E JUMP JUMPDEST SWAP3 POP POP DUP2 SWAP1 SSTORE POP DUP1 PUSH1 0x9 PUSH0 DUP3 DUP3 SLOAD PUSH2 0x7E2 SWAP2 SWAP1 PUSH2 0x111E JUMP JUMPDEST SWAP1 SWAP2 SSTORE POP POP TIMESTAMP PUSH1 0xA SSTORE PUSH2 0x823 JUMP JUMPDEST DUP1 PUSH1 0x8 PUSH0 DUP3 DUP3 SLOAD PUSH2 0x801 SWAP2 SWAP1 PUSH2 0x111E JUMP JUMPDEST SWAP3 POP POP DUP2 SWAP1 SSTORE POP DUP2 PUSH1 0x9 PUSH0 DUP3 DUP3 SLOAD PUSH2 0x819 SWAP2 SWAP1 PUSH2 0x111E JUMP JUMPDEST SWAP1 SWAP2 SSTORE POP POP TIMESTAMP PUSH1 0xA SSTORE JUMPDEST PUSH1 0x1 PUSH1 0x8 SLOAD GT DUP1 ISZERO PUSH2 0x837 JUMPI POP PUSH1 0x1 PUSH1 0x9 SLOAD GT JUMPDEST PUSH2 0x876 JUMPI PUSH1 0x40 MLOAD PUSH3 0x461BCD PUSH1 0xE5 SHL DUP2 MSTORE PUSH1 0x20 PUSH1 0x4 DUP3 ADD MSTORE PUSH1 0x10 PUSH1 0x24 DUP3 ADD MSTORE PUSH16 0x1B9BDD08195B9BDD59DA08185CDCD95D PUSH1 0x82 SHL PUSH1 0x44 DUP3 ADD MSTORE PUSH1 0x64 ADD PUSH2 0x3A0 JUMP JUMPDEST PUSH1 0x8 SLOAD PUSH1 0x9 SLOAD PUSH1 0x40 MLOAD PUSH32 0x47A0F291B7D5C7D992B467D24BB7350C2FDE51FAFC5E867DF69D34A7FF2208F4 SWAP3 PUSH2 0x613 SWAP3 ADDRESS SWAP3 PUSH2 0x10DE JUMP JUMPDEST PUSH1 0x5 SLOAD PUSH1 0x1 PUSH1 0x1 PUSH1 0xA0 SHL SUB AND CALLER EQ PUSH2 0x8D6 JUMPI PUSH1 0x40 MLOAD PUSH3 0x461BCD PUSH1 0xE5 SHL DUP2 MSTORE PUSH1 0x4 ADD PUSH2 0x3A0 SWAP1 PUSH2 0x102C JUMP JUMPDEST PUSH1 0x5 SLOAD PUSH1 0x40 MLOAD PUSH4 0x95EA7B3 PUSH1 0xE0 SHL DUP2 MSTORE PUSH1 0x1 PUSH1 0x1 PUSH1 0xA0 SHL SUB SWAP2 DUP3 AND PUSH1 0x4 DUP3 ADD MSTORE PUSH1 0x24 DUP2 ADD DUP4 SWAP1 MSTORE SWAP1 DUP4 AND SWAP1 PUSH4 0x95EA7B3 SWAP1 PUSH1 0x44 ADD PUSH2 0x711 JUMP JUMPDEST PUSH1 0x5 SLOAD PUSH1 0x1 PUSH1 0x1 PUSH1 0xA0 SHL SUB AND CALLER EQ PUSH2 0x939 JUMPI PUSH1 0x40 MLOAD PUSH3 0x461BCD PUSH1 0xE5 SHL DUP2 MSTORE PUSH1 0x4 ADD PUSH2 0x3A0 SWAP1 PUSH2 0x102C JUMP JUMPDEST PUSH0 DUP4 GT DUP1 ISZERO PUSH2 0x947 JUMPI POP PUSH0 DUP3 GT JUMPDEST PUSH2 0x985 JUMPI PUSH1 0x40 MLOAD PUSH3 0x461BCD PUSH1 0xE5 SHL DUP2 MSTORE PUSH1 0x20 PUSH1 0x4 DUP3 ADD MSTORE PUSH1 0xF PUSH1 0x24 DUP3 ADD MSTORE PUSH15 0x6E65646420746F20616464206C6971 PUSH1 0x88 SHL PUSH1 0x44 DUP3 ADD MSTORE PUSH1 0x64 ADD PUSH2 0x3A0 JUMP JUMPDEST PUSH1 0x7 SLOAD PUSH0 SWAP1 PUSH2 0x9D8 SWAP1 PUSH2 0x9A0 SWAP1 PUSH1 0x1 PUSH1 0x1 PUSH1 0xA0 SHL SUB AND PUSH2 0xB84 JUMP JUMPDEST PUSH1 0x6 SLOAD PUSH2 0x9B5 SWAP1 PUSH1 0x1 PUSH1 0x1 PUSH1 0xA0 SHL SUB AND PUSH2 0xB84 JUMP JUMPDEST PUSH2 0x9BF DUP7 DUP9 PUSH2 0x1063 JUMP JUMPDEST PUSH2 0x9C9 SWAP2 SWAP1 PUSH2 0x1063 JUMP JUMPDEST PUSH2 0x9D3 SWAP2 SWAP1 PUSH2 0x1063 JUMP JUMPDEST PUSH2 0xC09 JUMP JUMPDEST SWAP1 POP PUSH2 0x9E4 DUP3 DUP3 PUSH2 0xC77 JUMP JUMPDEST POP POP POP POP JUMP JUMPDEST PUSH1 0x60 PUSH1 0x4 DUP1 SLOAD PUSH2 0x478 SWAP1 PUSH2 0x1099 JUMP JUMPDEST PUSH1 0x5 SLOAD PUSH1 0x1 PUSH1 0x1 PUSH1 0xA0 SHL SUB AND CALLER EQ PUSH2 0xA23 JUMPI PUSH1 0x40 MLOAD PUSH3 0x461BCD PUSH1 0xE5 SHL DUP2 MSTORE PUSH1 0x4 ADD PUSH2 0x3A0 SWAP1 PUSH2 0x102C JUMP JUMPDEST PUSH1 0x6 SLOAD PUSH1 0x1 PUSH1 0x1 PUSH1 0xA0 SHL SUB SWAP1 DUP2 AND SWAP1 DUP5 AND SUB PUSH2 0xA4A JUMPI DUP2 PUSH1 0x8 PUSH0 DUP3 DUP3 SLOAD PUSH2 0x7CA SWAP2 SWAP1 PUSH2 0x10CB JUMP JUMPDEST DUP2 PUSH1 0x8 PUSH0 DUP3 DUP3 SLOAD PUSH2 0xA5B SWAP2 SWAP1 PUSH2 0x111E JUMP JUMPDEST SWAP3 POP POP DUP2 SWAP1 SSTORE POP DUP1 PUSH1 0x9 PUSH0 DUP3 DUP3 SLOAD PUSH2 0x819 SWAP2 SWAP1 PUSH2 0x10CB JUMP JUMPDEST PUSH0 CALLER PUSH2 0x62D DUP2 DUP6 DUP6 PUSH2 0xB27 JUMP JUMPDEST PUSH1 0x1 PUSH1 0x1 PUSH1 0xA0 SHL SUB DUP3 AND PUSH2 0xAA9 JUMPI PUSH1 0x40 MLOAD PUSH4 0x4B637E8F PUSH1 0xE1 SHL DUP2 MSTORE PUSH0 PUSH1 0x4 DUP3 ADD MSTORE PUSH1 0x24 ADD PUSH2 0x3A0 JUMP JUMPDEST PUSH2 0xAB4 DUP3 PUSH0 DUP4 PUSH2 0xCA7 JUMP JUMPDEST POP POP JUMP JUMPDEST PUSH2 0x751 DUP4 DUP4 DUP4 PUSH1 0x1 PUSH2 0xDBA JUMP JUMPDEST PUSH1 0x1 PUSH1 0x1 PUSH1 0xA0 SHL SUB DUP4 DUP2 AND PUSH0 SWAP1 DUP2 MSTORE PUSH1 0x1 PUSH1 0x20 SWAP1 DUP2 MSTORE PUSH1 0x40 DUP1 DUP4 KECCAK256 SWAP4 DUP7 AND DUP4 MSTORE SWAP3 SWAP1 MSTORE KECCAK256 SLOAD PUSH0 NOT DUP2 EQ PUSH2 0x9E4 JUMPI DUP2 DUP2 LT ISZERO PUSH2 0xB19 JUMPI DUP3 DUP2 DUP4 PUSH1 0x40 MLOAD PUSH4 0x7DC7A0D9 PUSH1 0xE1 SHL DUP2 MSTORE PUSH1 0x4 ADD PUSH2 0x3A0 SWAP4 SWAP3 SWAP2 SWAP1 PUSH2 0x10DE JUMP JUMPDEST PUSH2 0x9E4 DUP5 DUP5 DUP5 DUP5 SUB PUSH0 PUSH2 0xDBA JUMP JUMPDEST PUSH1 0x1 PUSH1 0x1 PUSH1 0xA0 SHL SUB DUP4 AND PUSH2 0xB50 JUMPI PUSH1 0x40 MLOAD PUSH4 0x4B637E8F PUSH1 0xE1 SHL DUP2 MSTORE PUSH0 PUSH1 0x4 DUP3 ADD MSTORE PUSH1 0x24 ADD PUSH2 0x3A0 JUMP JUMPDEST PUSH1 0x1 PUSH1 0x1 PUSH1 0xA0 SHL SUB DUP3 AND PUSH2 0xB79 JUMPI PUSH1 0x40 MLOAD PUSH4 0xEC442F05 PUSH1 0xE0 SHL DUP2 MSTORE PUSH0 PUSH1 0x4 DUP3 ADD MSTORE PUSH1 0x24 ADD PUSH2 0x3A0 JUMP JUMPDEST PUSH2 0x751 DUP4 DUP4 DUP4 PUSH2 0xCA7 JUMP JUMPDEST PUSH0 DUP1 DUP3 PUSH1 0x1 PUSH1 0x1 PUSH1 0xA0 SHL SUB AND PUSH4 0x313CE567 PUSH1 0x40 MLOAD DUP2 PUSH4 0xFFFFFFFF AND PUSH1 0xE0 SHL DUP2 MSTORE PUSH1 0x4 ADD PUSH1 0x20 PUSH1 0x40 MLOAD DUP1 DUP4 SUB DUP2 DUP7 GAS STATICCALL ISZERO DUP1 ISZERO PUSH2 0xBC2 JUMPI RETURNDATASIZE PUSH0 DUP1 RETURNDATACOPY RETURNDATASIZE PUSH0 REVERT JUMPDEST POP POP POP POP PUSH1 0x40 MLOAD RETURNDATASIZE PUSH1 0x1F NOT PUSH1 0x1F DUP3 ADD AND DUP3 ADD DUP1 PUSH1 0x40 MSTORE POP DUP2 ADD SWAP1 PUSH2 0xBE6 SWAP2 SWAP1 PUSH2 0x1131 JUMP JUMPDEST SWAP1 POP PUSH0 PUSH2 0xBF4 DUP3 PUSH1 0x12 PUSH2 0x1151 JUMP JUMPDEST SWAP1 POP PUSH2 0xC01 DUP2 PUSH1 0xA PUSH2 0x124A JUMP JUMPDEST SWAP5 SWAP4 POP POP POP POP JUMP JUMPDEST PUSH0 PUSH1 0x3 DUP3 GT ISZERO PUSH2 0xC68 JUMPI POP DUP1 PUSH0 PUSH2 0xC21 PUSH1 0x2 DUP4 PUSH2 0x107A JUMP JUMPDEST PUSH2 0xC2C SWAP1 PUSH1 0x1 PUSH2 0x10CB JUMP JUMPDEST SWAP1 POP JUMPDEST DUP2 DUP2 LT ISZERO PUSH2 0xC62 JUMPI SWAP1 POP DUP1 PUSH1 0x2 DUP2 PUSH2 0xC47 DUP2 DUP7 PUSH2 0x107A JUMP JUMPDEST PUSH2 0xC51 SWAP2 SWAP1 PUSH2 0x10CB JUMP JUMPDEST PUSH2 0xC5B SWAP2 SWAP1 PUSH2 0x107A JUMP JUMPDEST SWAP1 POP PUSH2 0xC2F JUMP JUMPDEST POP SWAP2 SWAP1 POP JUMP JUMPDEST DUP2 ISZERO PUSH2 0xC72 JUMPI POP PUSH1 0x1 JUMPDEST SWAP2 SWAP1 POP JUMP JUMPDEST PUSH1 0x1 PUSH1 0x1 PUSH1 0xA0 SHL SUB DUP3 AND PUSH2 0xCA0 JUMPI PUSH1 0x40 MLOAD PUSH4 0xEC442F05 PUSH1 0xE0 SHL DUP2 MSTORE PUSH0 PUSH1 0x4 DUP3 ADD MSTORE PUSH1 0x24 ADD PUSH2 0x3A0 JUMP JUMPDEST PUSH2 0xAB4 PUSH0 DUP4 DUP4 JUMPDEST PUSH1 0x1 PUSH1 0x1 PUSH1 0xA0 SHL SUB DUP4 AND PUSH2 0xCD1 JUMPI DUP1 PUSH1 0x2 PUSH0 DUP3 DUP3 SLOAD PUSH2 0xCC6 SWAP2 SWAP1 PUSH2 0x10CB JUMP JUMPDEST SWAP1 SWAP2 SSTORE POP PUSH2 0xD2E SWAP1 POP JUMP JUMPDEST PUSH1 0x1 PUSH1 0x1 PUSH1 0xA0 SHL SUB DUP4 AND PUSH0 SWAP1 DUP2 MSTORE PUSH1 0x20 DUP2 SWAP1 MSTORE PUSH1 0x40 SWAP1 KECCAK256 SLOAD DUP2 DUP2 LT ISZERO PUSH2 0xD10 JUMPI DUP4 DUP2 DUP4 PUSH1 0x40 MLOAD PUSH4 0x391434E3 PUSH1 0xE2 SHL DUP2 MSTORE PUSH1 0x4 ADD PUSH2 0x3A0 SWAP4 SWAP3 SWAP2 SWAP1 PUSH2 0x10DE JUMP JUMPDEST PUSH1 0x1 PUSH1 0x1 PUSH1 0xA0 SHL SUB DUP5 AND PUSH0 SWAP1 DUP2 MSTORE PUSH1 0x20 DUP2 SWAP1 MSTORE PUSH1 0x40 SWAP1 KECCAK256 SWAP1 DUP3 SWAP1 SUB SWAP1 SSTORE JUMPDEST PUSH1 0x1 PUSH1 0x1 PUSH1 0xA0 SHL SUB DUP3 AND PUSH2 0xD4A JUMPI PUSH1 0x2 DUP1 SLOAD DUP3 SWAP1 SUB SWAP1 SSTORE PUSH2 0xD68 JUMP JUMPDEST PUSH1 0x1 PUSH1 0x1 PUSH1 0xA0 SHL SUB DUP3 AND PUSH0 SWAP1 DUP2 MSTORE PUSH1 0x20 DUP2 SWAP1 MSTORE PUSH1 0x40 SWAP1 KECCAK256 DUP1 SLOAD DUP3 ADD SWAP1 SSTORE JUMPDEST DUP2 PUSH1 0x1 PUSH1 0x1 PUSH1 0xA0 SHL SUB AND DUP4 PUSH1 0x1 PUSH1 0x1 PUSH1 0xA0 SHL SUB AND PUSH32 0xDDF252AD1BE2C89B69C2B068FC378DAA952BA7F163C4A11628F55A4DF523B3EF DUP4 PUSH1 0x40 MLOAD PUSH2 0xDAD SWAP2 DUP2 MSTORE PUSH1 0x20 ADD SWAP1 JUMP JUMPDEST PUSH1 0x40 MLOAD DUP1 SWAP2 SUB SWAP1 LOG3 POP POP POP JUMP JUMPDEST PUSH1 0x1 PUSH1 0x1 PUSH1 0xA0 SHL SUB DUP5 AND PUSH2 0xDE3 JUMPI PUSH1 0x40 MLOAD PUSH4 0xE602DF05 PUSH1 0xE0 SHL DUP2 MSTORE PUSH0 PUSH1 0x4 DUP3 ADD MSTORE PUSH1 0x24 ADD PUSH2 0x3A0 JUMP JUMPDEST PUSH1 0x1 PUSH1 0x1 PUSH1 0xA0 SHL SUB DUP4 AND PUSH2 0xE0C JUMPI PUSH1 0x40 MLOAD PUSH4 0x4A1406B1 PUSH1 0xE1 SHL DUP2 MSTORE PUSH0 PUSH1 0x4 DUP3 ADD MSTORE PUSH1 0x24 ADD PUSH2 0x3A0 JUMP JUMPDEST PUSH1 0x1 PUSH1 0x1 PUSH1 0xA0 SHL SUB DUP1 DUP6 AND PUSH0 SWAP1 DUP2 MSTORE PUSH1 0x1 PUSH1 0x20 SWAP1 DUP2 MSTORE PUSH1 0x40 DUP1 DUP4 KECCAK256 SWAP4 DUP8 AND DUP4 MSTORE SWAP3 SWAP1 MSTORE KECCAK256 DUP3 SWAP1 SSTORE DUP1 ISZERO PUSH2 0x9E4 JUMPI DUP3 PUSH1 0x1 PUSH1 0x1 PUSH1 0xA0 SHL SUB AND DUP5 PUSH1 0x1 PUSH1 0x1 PUSH1 0xA0 SHL SUB AND PUSH32 0x8C5BE1E5EBEC7D5BD14F71427D1E84F3DD0314C0F7B2291E5B200AC8C7C3B925 DUP5 PUSH1 0x40 MLOAD PUSH2 0xE7E SWAP2 DUP2 MSTORE PUSH1 0x20 ADD SWAP1 JUMP JUMPDEST PUSH1 0x40 MLOAD DUP1 SWAP2 SUB SWAP1 LOG3 POP POP POP POP JUMP JUMPDEST DUP1 CALLDATALOAD PUSH1 0x1 PUSH1 0x1 PUSH1 0xA0 SHL SUB DUP2 AND DUP2 EQ PUSH2 0xC72 JUMPI PUSH0 DUP1 REVERT JUMPDEST PUSH0 DUP1 PUSH1 0x40 DUP4 DUP6 SUB SLT ISZERO PUSH2 0xEB3 JUMPI PUSH0 DUP1 REVERT JUMPDEST DUP3 CALLDATALOAD SWAP2 POP PUSH2 0xEC3 PUSH1 0x20 DUP5 ADD PUSH2 0xE8C JUMP JUMPDEST SWAP1 POP SWAP3 POP SWAP3 SWAP1 POP JUMP JUMPDEST PUSH1 0x20 DUP2 MSTORE PUSH0 DUP3 MLOAD DUP1 PUSH1 0x20 DUP5 ADD MSTORE DUP1 PUSH1 0x20 DUP6 ADD PUSH1 0x40 DUP6 ADD MCOPY PUSH0 PUSH1 0x40 DUP3 DUP6 ADD ADD MSTORE PUSH1 0x40 PUSH1 0x1F NOT PUSH1 0x1F DUP4 ADD AND DUP5 ADD ADD SWAP2 POP POP SWAP3 SWAP2 POP POP JUMP JUMPDEST PUSH0 DUP1 PUSH0 PUSH1 0x60 DUP5 DUP7 SUB SLT ISZERO PUSH2 0xF13 JUMPI PUSH0 DUP1 REVERT JUMPDEST PUSH2 0xF1C DUP5 PUSH2 0xE8C JUMP JUMPDEST SWAP6 PUSH1 0x20 DUP6 ADD CALLDATALOAD SWAP6 POP PUSH1 0x40 SWAP1 SWAP5 ADD CALLDATALOAD SWAP4 SWAP3 POP POP POP JUMP JUMPDEST PUSH0 DUP1 PUSH1 0x40 DUP4 DUP6 SUB SLT ISZERO PUSH2 0xF42 JUMPI PUSH0 DUP1 REVERT JUMPDEST PUSH2 0xF4B DUP4 PUSH2 0xE8C JUMP JUMPDEST SWAP5 PUSH1 0x20 SWAP4 SWAP1 SWAP4 ADD CALLDATALOAD SWAP4 POP POP POP JUMP JUMPDEST PUSH0 DUP1 PUSH1 0x40 DUP4 DUP6 SUB SLT ISZERO PUSH2 0xF6A JUMPI PUSH0 DUP1 REVERT JUMPDEST POP POP DUP1 CALLDATALOAD SWAP3 PUSH1 0x20 SWAP1 SWAP2 ADD CALLDATALOAD SWAP2 POP JUMP JUMPDEST PUSH0 DUP1 PUSH0 PUSH1 0x60 DUP5 DUP7 SUB SLT ISZERO PUSH2 0xF8B JUMPI PUSH0 DUP1 REVERT JUMPDEST PUSH2 0xF94 DUP5 PUSH2 0xE8C JUMP JUMPDEST SWAP3 POP PUSH2 0xFA2 PUSH1 0x20 DUP6 ADD PUSH2 0xE8C JUMP JUMPDEST SWAP2 POP PUSH1 0x40 DUP5 ADD CALLDATALOAD SWAP1 POP SWAP3 POP SWAP3 POP SWAP3 JUMP JUMPDEST PUSH0 PUSH1 0x20 DUP3 DUP5 SUB SLT ISZERO PUSH2 0xFC2 JUMPI PUSH0 DUP1 REVERT JUMPDEST PUSH2 0xFCB DUP3 PUSH2 0xE8C JUMP JUMPDEST SWAP4 SWAP3 POP POP POP JUMP JUMPDEST PUSH0 DUP1 PUSH0 PUSH1 0x60 DUP5 DUP7 SUB SLT ISZERO PUSH2 0xFE4 JUMPI PUSH0 DUP1 REVERT JUMPDEST DUP4 CALLDATALOAD SWAP3 POP PUSH1 0x20 DUP5 ADD CALLDATALOAD SWAP2 POP PUSH2 0xFFB PUSH1 0x40 DUP6 ADD PUSH2 0xE8C JUMP JUMPDEST SWAP1 POP SWAP3 POP SWAP3 POP SWAP3 JUMP JUMPDEST PUSH0 DUP1 PUSH1 0x40 DUP4 DUP6 SUB SLT ISZERO PUSH2 0x1015 JUMPI PUSH0 DUP1 REVERT JUMPDEST PUSH2 0x101E DUP4 PUSH2 0xE8C JUMP JUMPDEST SWAP2 POP PUSH2 0xEC3 PUSH1 0x20 DUP5 ADD PUSH2 0xE8C JUMP JUMPDEST PUSH1 0x20 DUP1 DUP3 MSTORE PUSH1 0x9 SWAP1 DUP3 ADD MSTORE PUSH9 0x3337B93134B23232B7 PUSH1 0xB9 SHL PUSH1 0x40 DUP3 ADD MSTORE PUSH1 0x60 ADD SWAP1 JUMP JUMPDEST PUSH4 0x4E487B71 PUSH1 0xE0 SHL PUSH0 MSTORE PUSH1 0x11 PUSH1 0x4 MSTORE PUSH1 0x24 PUSH0 REVERT JUMPDEST DUP1 DUP3 MUL DUP2 ISZERO DUP3 DUP3 DIV DUP5 EQ OR PUSH2 0x633 JUMPI PUSH2 0x633 PUSH2 0x104F JUMP JUMPDEST PUSH0 DUP3 PUSH2 0x1094 JUMPI PUSH4 0x4E487B71 PUSH1 0xE0 SHL PUSH0 MSTORE PUSH1 0x12 PUSH1 0x4 MSTORE PUSH1 0x24 PUSH0 REVERT JUMPDEST POP DIV SWAP1 JUMP JUMPDEST PUSH1 0x1 DUP2 DUP2 SHR SWAP1 DUP3 AND DUP1 PUSH2 0x10AD JUMPI PUSH1 0x7F DUP3 AND SWAP2 POP JUMPDEST PUSH1 0x20 DUP3 LT DUP2 SUB PUSH2 0xC62 JUMPI PUSH4 0x4E487B71 PUSH1 0xE0 SHL PUSH0 MSTORE PUSH1 0x22 PUSH1 0x4 MSTORE PUSH1 0x24 PUSH0 REVERT JUMPDEST DUP1 DUP3 ADD DUP1 DUP3 GT ISZERO PUSH2 0x633 JUMPI PUSH2 0x633 PUSH2 0x104F JUMP JUMPDEST PUSH1 0x1 PUSH1 0x1 PUSH1 0xA0 SHL SUB SWAP4 SWAP1 SWAP4 AND DUP4 MSTORE PUSH1 0x20 DUP4 ADD SWAP2 SWAP1 SWAP2 MSTORE PUSH1 0x40 DUP3 ADD MSTORE PUSH1 0x60 ADD SWAP1 JUMP JUMPDEST PUSH0 PUSH1 0x20 DUP3 DUP5 SUB SLT ISZERO PUSH2 0x110F JUMPI PUSH0 DUP1 REVERT JUMPDEST DUP2 MLOAD DUP1 ISZERO ISZERO DUP2 EQ PUSH2 0xFCB JUMPI PUSH0 DUP1 REVERT JUMPDEST DUP2 DUP2 SUB DUP2 DUP2 GT ISZERO PUSH2 0x633 JUMPI PUSH2 0x633 PUSH2 0x104F JUMP JUMPDEST PUSH0 PUSH1 0x20 DUP3 DUP5 SUB SLT ISZERO PUSH2 0x1141 JUMPI PUSH0 DUP1 REVERT JUMPDEST DUP2 MLOAD PUSH1 0xFF DUP2 AND DUP2 EQ PUSH2 0xFCB JUMPI PUSH0 DUP1 REVERT JUMPDEST PUSH1 0xFF DUP3 DUP2 AND DUP3 DUP3 AND SUB SWAP1 DUP2 GT ISZERO PUSH2 0x633 JUMPI PUSH2 0x633 PUSH2 0x104F JUMP JUMPDEST PUSH1 0x1 DUP2 DUP2 JUMPDEST DUP1 DUP6 GT ISZERO PUSH2 0x11A4 JUMPI DUP2 PUSH0 NOT DIV DUP3 GT ISZERO PUSH2 0x118A JUMPI PUSH2 0x118A PUSH2 0x104F JUMP JUMPDEST DUP1 DUP6 AND ISZERO PUSH2 0x1197 JUMPI SWAP2 DUP2 MUL SWAP2 JUMPDEST SWAP4 DUP5 SHR SWAP4 SWAP1 DUP1 MUL SWAP1 PUSH2 0x116F JUMP JUMPDEST POP SWAP3 POP SWAP3 SWAP1 POP JUMP JUMPDEST PUSH0 DUP3 PUSH2 0x11BA JUMPI POP PUSH1 0x1 PUSH2 0x633 JUMP JUMPDEST DUP2 PUSH2 0x11C6 JUMPI POP PUSH0 PUSH2 0x633 JUMP JUMPDEST DUP2 PUSH1 0x1 DUP2 EQ PUSH2 0x11DC JUMPI PUSH1 0x2 DUP2 EQ PUSH2 0x11E6 JUMPI PUSH2 0x1202 JUMP JUMPDEST PUSH1 0x1 SWAP2 POP POP PUSH2 0x633 JUMP JUMPDEST PUSH1 0xFF DUP5 GT ISZERO PUSH2 0x11F7 JUMPI PUSH2 0x11F7 PUSH2 0x104F JUMP JUMPDEST POP POP PUSH1 0x1 DUP3 SHL PUSH2 0x633 JUMP JUMPDEST POP PUSH1 0x20 DUP4 LT PUSH2 0x133 DUP4 LT AND PUSH1 0x4E DUP5 LT PUSH1 0xB DUP5 LT AND OR ISZERO PUSH2 0x1225 JUMPI POP DUP2 DUP2 EXP PUSH2 0x633 JUMP JUMPDEST PUSH2 0x122F DUP4 DUP4 PUSH2 0x116A JUMP JUMPDEST DUP1 PUSH0 NOT DIV DUP3 GT ISZERO PUSH2 0x1242 JUMPI PUSH2 0x1242 PUSH2 0x104F JUMP JUMPDEST MUL SWAP4 SWAP3 POP POP POP JUMP JUMPDEST PUSH0 PUSH2 0xFCB PUSH1 0xFF DUP5 AND DUP4 PUSH2 0x11AC JUMP INVALID LOG2 PUSH5 0x6970667358 0x22 SLT KECCAK256 GAS CALL 0x28 0xE8 PUSH25 0x5D00BC0B97FC8949B00C9B076E7054AC1CB28B52A2130EEC7A CHAINID PUSH13 0x64736F6C63430008190033A264 PUSH10 0x706673582212200D26FA BALANCE PUSH0 CALLVALUE SWAP12 DUP10 0xB1 SAR PUSH0 ADD CALLER CHAINID PUSH31 0x2A798D8FB433E5FFFA14A3DF350C0FB45964736F6C63430008190033000000 "
		},
		"gasEstimates": {
			"creation": {
				"codeDepositCost": "3244400",
				"executionCost": "49925",
				"totalCost": "3294325"
			},
			"external": {
				"AmountIN(address,address,uint256)": "infinite",
				"AmountOut(address,uint256,address)": "infinite",
				"ISpairExist(address,address)": "infinite",
				"RemoveLiquidity(address,address,uint256)": "infinite",
				"addLiquidity(address,address,uint256,uint256)": "infinite",
				"fee()": "2378",
				"getPair(address,address)": "infinite",
				"getReserveratio(address,address)": "infinite",
				"getliquidityOutperIn(uint256,address,address)": "infinite",
				"swap(uint256,address,address,uint256)": "infinite",
				"swapOutIfNotpool(address[],uint256)": "infinite",
				"swap_If_pool_not_exist(address[],uint256,uint256)": "infinite"
			},
			"internal": {
				"LptokenName(address,address)": "infinite",
				"concatenateStrings(string memory,string memory)": "infinite",
				"convertToTargetedPrecison(address)": "infinite",
				"createPair(address,address)": "infinite",
				"sortminTOmax(address,address)": "122"
			}
		},
		"methodIdentifiers": {
			"AmountIN(address,address,uint256)": "8d2dbeae",
			"AmountOut(address,uint256,address)": "ca4abd68",
			"ISpairExist(address,address)": "49778581",
			"RemoveLiquidity(address,address,uint256)": "d8ae9b9b",
			"addLiquidity(address,address,uint256,uint256)": "cf6c62ea",
			"fee()": "ddca3f43",
			"getPair(address,address)": "e6a43905",
			"getReserveratio(address,address)": "e3cb477c",
			"getliquidityOutperIn(uint256,address,address)": "40fa3295",
			"swap(uint256,address,address,uint256)": "70085be0",
			"swapOutIfNotpool(address[],uint256)": "112a15fb",
			"swap_If_pool_not_exist(address[],uint256,uint256)": "1efd0e78"
		}
	},
	"abi": [
		{
			"anonymous": false,
			"inputs": [
				{
					"indexed": false,
					"internalType": "address",
					"name": "token0",
					"type": "address"
				},
				{
					"indexed": false,
					"internalType": "address",
					"name": "token1",
					"type": "address"
				},
				{
					"indexed": false,
					"internalType": "contract pool",
					"name": "pair",
					"type": "address"
				}
			],
			"name": "PairCreated",
			"type": "event"
		},
		{
			"anonymous": false,
			"inputs": [
				{
					"indexed": false,
					"internalType": "contract pool",
					"name": "pair",
					"type": "address"
				},
				{
					"indexed": false,
					"internalType": "address",
					"name": "tokenIN",
					"type": "address"
				},
				{
					"indexed": false,
					"internalType": "address",
					"name": "tokenOUT",
					"type": "address"
				},
				{
					"indexed": false,
					"internalType": "uint256",
					"name": "quantIN",
					"type": "uint256"
				},
				{
					"indexed": false,
					"internalType": "uint256",
					"name": "quantOUT",
					"type": "uint256"
				},
				{
					"indexed": false,
					"internalType": "uint256",
					"name": "time",
					"type": "uint256"
				}
			],
			"name": "Swap",
			"type": "event"
		},
		{
			"anonymous": false,
			"inputs": [
				{
					"indexed": false,
					"internalType": "contract pool",
					"name": "pair",
					"type": "address"
				},
				{
					"indexed": false,
					"internalType": "address",
					"name": "token0",
					"type": "address"
				},
				{
					"indexed": false,
					"internalType": "address",
					"name": "token1",
					"type": "address"
				},
				{
					"indexed": false,
					"internalType": "uint256",
					"name": "quant0",
					"type": "uint256"
				},
				{
					"indexed": false,
					"internalType": "uint256",
					"name": "quant1",
					"type": "uint256"
				},
				{
					"indexed": false,
					"internalType": "uint256",
					"name": "time",
					"type": "uint256"
				}
			],
			"name": "liquidityAdded",
			"type": "event"
		},
		{
			"anonymous": false,
			"inputs": [
				{
					"indexed": false,
					"internalType": "contract pool",
					"name": "pair",
					"type": "address"
				},
				{
					"indexed": false,
					"internalType": "address",
					"name": "token0",
					"type": "address"
				},
				{
					"indexed": false,
					"internalType": "address",
					"name": "token1",
					"type": "address"
				},
				{
					"indexed": false,
					"internalType": "uint256",
					"name": "quant0",
					"type": "uint256"
				},
				{
					"indexed": false,
					"internalType": "uint256",
					"name": "quant1",
					"type": "uint256"
				},
				{
					"indexed": false,
					"internalType": "uint256",
					"name": "time",
					"type": "uint256"
				}
			],
			"name": "liquidityRemoved",
			"type": "event"
		},
		{
			"inputs": [
				{
					"internalType": "address",
					"name": "tokenIN",
					"type": "address"
				},
				{
					"internalType": "address",
					"name": "tokenOUT",
					"type": "address"
				},
				{
					"internalType": "uint256",
					"name": "amountOUT",
					"type": "uint256"
				}
			],
			"name": "AmountIN",
			"outputs": [
				{
					"internalType": "uint256",
					"name": "",
					"type": "uint256"
				}
			],
			"stateMutability": "view",
			"type": "function"
		},
		{
			"inputs": [
				{
					"internalType": "address",
					"name": "tokenIN",
					"type": "address"
				},
				{
					"internalType": "uint256",
					"name": "amountIN",
					"type": "uint256"
				},
				{
					"internalType": "address",
					"name": "tokenOUT",
					"type": "address"
				}
			],
			"name": "AmountOut",
			"outputs": [
				{
					"internalType": "uint256",
					"name": "amountOUT",
					"type": "uint256"
				}
			],
			"stateMutability": "view",
			"type": "function"
		},
		{
			"inputs": [
				{
					"internalType": "address",
					"name": "tokenA",
					"type": "address"
				},
				{
					"internalType": "address",
					"name": "tokenB",
					"type": "address"
				}
			],
			"name": "ISpairExist",
			"outputs": [
				{
					"internalType": "bool",
					"name": "",
					"type": "bool"
				}
			],
			"stateMutability": "view",
			"type": "function"
		},
		{
			"inputs": [
				{
					"internalType": "address",
					"name": "_tokenA",
					"type": "address"
				},
				{
					"internalType": "address",
					"name": "_tokenB",
					"type": "address"
				},
				{
					"internalType": "uint256",
					"name": "_LPtoken",
					"type": "uint256"
				}
			],
			"name": "RemoveLiquidity",
			"outputs": [
				{
					"internalType": "string",
					"name": "",
					"type": "string"
				}
			],
			"stateMutability": "nonpayable",
			"type": "function"
		},
		{
			"inputs": [
				{
					"internalType": "address",
					"name": "tokenA",
					"type": "address"
				},
				{
					"internalType": "address",
					"name": "tokenB",
					"type": "address"
				},
				{
					"internalType": "uint256",
					"name": "_amount0",
					"type": "uint256"
				},
				{
					"internalType": "uint256",
					"name": "_amount1",
					"type": "uint256"
				}
			],
			"name": "addLiquidity",
			"outputs": [
				{
					"internalType": "string",
					"name": "",
					"type": "string"
				}
			],
			"stateMutability": "nonpayable",
			"type": "function"
		},
		{
			"inputs": [],
			"name": "fee",
			"outputs": [
				{
					"internalType": "uint16",
					"name": "",
					"type": "uint16"
				}
			],
			"stateMutability": "view",
			"type": "function"
		},
		{
			"inputs": [
				{
					"internalType": "address",
					"name": "",
					"type": "address"
				},
				{
					"internalType": "address",
					"name": "",
					"type": "address"
				}
			],
			"name": "getPair",
			"outputs": [
				{
					"internalType": "address",
					"name": "",
					"type": "address"
				}
			],
			"stateMutability": "view",
			"type": "function"
		},
		{
			"inputs": [
				{
					"internalType": "address",
					"name": "_tokenA",
					"type": "address"
				},
				{
					"internalType": "address",
					"name": "_tokenB",
					"type": "address"
				}
			],
			"name": "getReserveratio",
			"outputs": [
				{
					"internalType": "uint256",
					"name": "",
					"type": "uint256"
				}
			],
			"stateMutability": "view",
			"type": "function"
		},
		{
			"inputs": [
				{
					"internalType": "uint256",
					"name": "input",
					"type": "uint256"
				},
				{
					"internalType": "address",
					"name": "_tokenA",
					"type": "address"
				},
				{
					"internalType": "address",
					"name": "_tokenB",
					"type": "address"
				}
			],
			"name": "getliquidityOutperIn",
			"outputs": [
				{
					"internalType": "uint256",
					"name": "",
					"type": "uint256"
				}
			],
			"stateMutability": "view",
			"type": "function"
		},
		{
			"inputs": [
				{
					"internalType": "uint256",
					"name": "amountIN",
					"type": "uint256"
				},
				{
					"internalType": "address",
					"name": "tokenIN",
					"type": "address"
				},
				{
					"internalType": "address",
					"name": "tokenOUT",
					"type": "address"
				},
				{
					"internalType": "uint256",
					"name": "desiredOut",
					"type": "uint256"
				}
			],
			"name": "swap",
			"outputs": [
				{
					"internalType": "uint256",
					"name": "",
					"type": "uint256"
				}
			],
			"stateMutability": "nonpayable",
			"type": "function"
		},
		{
			"inputs": [
				{
					"internalType": "address[]",
					"name": "token",
					"type": "address[]"
				},
				{
					"internalType": "uint256",
					"name": "_amountIn",
					"type": "uint256"
				}
			],
			"name": "swapOutIfNotpool",
			"outputs": [
				{
					"internalType": "uint256",
					"name": "",
					"type": "uint256"
				}
			],
			"stateMutability": "view",
			"type": "function"
		},
		{
			"inputs": [
				{
					"internalType": "address[]",
					"name": "token",
					"type": "address[]"
				},
				{
					"internalType": "uint256",
					"name": "_amount",
					"type": "uint256"
				},
				{
					"internalType": "uint256",
					"name": "desiredAmount",
					"type": "uint256"
				}
			],
			"name": "swap_If_pool_not_exist",
			"outputs": [
				{
					"internalType": "uint256",
					"name": "",
					"type": "uint256"
				}
			],
			"stateMutability": "nonpayable",
			"type": "function"
		}
	]
}